:100000000C94B0030C94D8030C94D8030C94D8032C
:100010000C94D8030C94D8030C94D8030C94D803F4
:100020000C94D8030C94D8030C94E1120C94531341
:100030000C94D8030C94D8030C94D8030C94D803D4
:100040000C94D8030C94D8030C94D8030C94D803C4
:100050000C94D8030C94D8030C94D8030C941A0E67
:100060000C94D8030C94F8150C94D2150C94D80366
:100070000C94D8030C94D8030C94D8030C94D80394
:100080000C94D8030C94D8030C94D8030C94D80384
:100090000C94D8030C94D8030C94D8030C94D80374
:1000A0000C94D8030C94D8030C94D803B70BBA0B58
:1000B000A90BAD0BB30BDB0BDB0BDB0BBE0BC20BCE
:1000C000C60BCC0BD00BDB0BD60BCB1BD01BD51B25
:1000D000DF1BE91B331C331C331CF31BFD1B071CEC
:1000E000111C1E1C331C261C00000000003E5B4F30
:1000F0005B3E3E6B4F6B3E1C3E7C3E1C183C7E3C88
:10010000181C577D571C1C5E7F5E1C00183C180095
:10011000FFE7C3E7FF0018241800FFE7DBE7FF3025
:10012000483A060E2629792926407F050507407F93
:1001300005253F5A3CE73C5A7F3E1C1C08081C1C06
:100140003E7F14227F22145F5F005F5F06097F01FC
:100150007F006689956A606060606094A2FFA294E7
:1001600008047E040810207E201008082A1C0808B5
:100170001C2A08081E101010100C1E0C1E0C303803
:100180003E3830060E3E0E06000000000000005F04
:1001900000000007000700147F147F14242A7F2A20
:1001A00012231308646236495620500008070300E2
:1001B000001C2241000041221C002A1C7F1C2A082E
:1001C000083E080800807030000808080808000091
:1001D00060600020100804023E5149453E00427F05
:1001E000400072494949462141494D331814127F54
:1001F0001027454545393C4A4949314121110907F4
:100200003649494936464949291E00001400000074
:100210004034000000081422411414141414004146
:1002200022140802015909063E415D594E7C121103
:10023000127C7F494949363E414141227F4141413B
:100240003E7F494949417F090909013E41415173B6
:100250007F0808087F00417F41002040413F017F27
:10026000081422417F404040407F021C027F7F04EF
:1002700008107F3E4141413E7F090909063E415138
:10028000215E7F09192946264949493203017F0128
:10029000033F4040403F1F2040201F3F4038403F29
:1002A000631408146303047804036159494D43003F
:1002B0007F4141410204081020004141417F040276
:1002C000010204404040404000030708002054540D
:1002D00078407F28444438384444442838444428EB
:1002E0007F385454541800087E090218A4A49C783E
:1002F0007F0804047800447D40002040403D007F9A
:100300001028440000417F40007C047804787C0879
:100310000404783844444438FC182424181824244D
:1003200018FC7C08040408485454542404043F4432
:10033000243C4040207C1C2040201C3C4030403C61
:1003400044281028444C9090907C4464544C4400C1
:100350000836410000007700000041360800020125
:100360000204023C2623263C1EA1A161123A404011
:10037000207A38545455592155557941215454788F
:1003800041215554784020545579400C1E52721228
:1003900039555555593954545459395554545800B0
:1003A00000457C410002457D420001457C40F0292A
:1003B0002429F0F0282528F07C5455450020545479
:1003C0007C547C0A097F49324949493232484848BD
:1003D00032324A4848303A4141217A3A4240207804
:1003E000009DA0A07D39444444393D4040403D3CFF
:1003F00024FF2424487E4943662B2FFC2F2BFF0922
:1004000029F620C0887E0903205454794100004415
:100410007D413048484A32384040227A007A0A0A00
:10042000727D0D19317D2629292F28262929292673
:1004300030484D4020380808080808080808382FB8
:1004400010C8ACBA2F102834FA00007B0000081442
:100450002A142222142A1408AA005500AAAA55AA6E
:1004600055AA000000FF00101010FF00141414FF24
:10047000001010FF00FF1010F010F0141414FC0016
:100480001414F700FF0000FF00FF1414F404FC1420
:100490001417101F10101F101F1414141F00101019
:1004A00010F0000000001F101010101F101010108E
:1004B000F010000000FF101010101010101010FFAE
:1004C00010000000FF140000FF00FF00001F1017C5
:1004D0000000FC04F414141710171414F404F400AE
:1004E00000FF00F714141414141414F700F7141474
:1004F00014171410101F101F141414F4141010F0FB
:1005000010F000001F101F0000001F14000000FC6E
:10051000140000F010F01010FF10FF141414FF145A
:100520001010101F00000000F010FFFFFFFFFFF091
:10053000F0F0F0F0FFFFFF0000000000FFFF0F0FE2
:100540000F0F0F38444438447C2A2A3E147E02029E
:100550000606027E027E0263554941633844443CEC
:1005600004407E201E2006027E020299A5E7A5997E
:100570001C2A492A1C4C7201724C304A4D4D3030B5
:1005800048784830BC625A463D3E494949007E01A0
:1005900001017E2A2A2A2A2A44445F444440514ABF
:1005A000444040444A51400000FF0103E080FF0006
:1005B0000008086B6B083612362436060F090F0642
:1005C000000018180000001010003040FF0101006A
:1005D0001F01011E00191D1712003C3C3C3C00008D
:1005E000000000000000002300260029002C002F3E
:1005F0000072756E2D6272696467650A000A000AEE
:1006000000080B00020202010009040000010202BE
:100610000000052400100105240101010424020644
:1006200005240600010705810310004009040100AC
:10063000020A0000000705020240000007058302CD
:100640004000000403090441726475696E6F204C18
:100650004C430041726475696E6F2059756E0012CB
:10066000010002000000404123418000010102031B
:100670000112010002EF020140412341800001010B
:100680000203010000000200090F00000304010042
:100690000C0000000000000000000000000000004E
:1006A000000000000000240027002A002D00300078
:1006B00013018032118064260104B1020B14C002C0
:1006C0000800C10105C5024130C701C1EC011B3A58
:1006D0008155642A040000007F2B040000009F362F
:1006E00001C8B70100F20100E08F282422312B0E4F
:1006F00053A5421618121A140332E18F171B1D0E50
:1007000014112CA53D09272D252B3C3213800A29D5
:1007100080FF04080201104080401020408040808B
:100720000802040180402010020110801020404087
:100730002000000000250028002B002E00310004BE
:100740000404040403040502020202040302020278
:1007500002060606060606040402020204047E26B9
:1007600011241FBECFEFDAE0DEBFCDBF13E0A0E063
:10077000B1E0EEE4F3E502C005900D92AC33B107B1
:10078000D9F725E0ACE3B3E001C01D92A635B2076E
:10079000E1F713E0C0EBD3E004C02197FE010E9413
:1007A0001327CF3AD107C9F70E949A210C94A529A3
:1007B0000C9400004C7F38E0439FC001112430E0CE
:1007C00043E0359527954A95E1F7822B932B687F77
:1007D000962B089508952F923F924F925F926F92B9
:1007E0007F928F929F92AF92BF92CF92DF92EF92C1
:1007F000FF920F931F93CF93DF93CDB7DEB72D9763
:100800000FB6F894DEBF0FBECDBFFC016A3069F4AD
:1008100024898685978538E0239F800D911D1124BA
:100820009787868715861486E4C06D3009F4E1C089
:100830009D878C8754895983828993899D838C8372
:10084000A089B189BF83AE8386849784C484D5840C
:1008500080859185C816D906BCF0EC85FD85448954
:10086000242F30E084859585F6E04F9F800D911D03
:100870001124AC85BD851D969C938E931C9756962E
:100880004C91411192C0B5C0EC85FD858285938560
:100890008816990614F7F981AF2EB12CC60126E00F
:1008A000F29F800D911D112418161906B4F6C5018A
:1008B00023E0880F991F2A95E1F7880D991D1816D6
:1008C00019065CF655E0659FB001112416011A82E5
:1008D000CB018C199D0999878887D4011896BB870D
:1008E000AA87BA81B53049F0E885F985E20DF31D94
:1008F000E851FF4F24912B8301C01B822401340156
:100900003B8130FF13C0AC85BD85ED91FC91B98171
:10091000B13031F40480F581E02D2E813F8119C082
:100920000684F785E02DEE80FF801EC0EC81FD81FE
:100930002E813F81E217F307F1F0AC85BD85ED9183
:10094000FC91B981B13059F40480F581E02D2C81FE
:100950003D81A301B1018C859D8509950CC006845C
:10096000F785E02DEC80FD8085019501A201B6019F
:100970008C859D850995EB81E695EB83FFEF6F1ADA
:100980007F0A4A0C5B1C2A853B856216730609F0B8
:10099000B7CF3A813F5F3A835FEF251A350ACA0C19
:1009A000DB1C363009F09DCF58CF4AEF4203B0012F
:1009B000439F700D1124AC85BD8518964D915C91B7
:1009C0001997460F571F481759079CF483E0220FC9
:1009D000331F8A95E1F71E968D919C911F97280FE2
:1009E000391F1F963C932E931E971D961C921E92A4
:1009F0001C9781E090E02D960FB6F894DEBF0FBEF5
:100A0000CDBFDF91CF911F910F91FF90EF90DF90BD
:100A1000CF90BF90AF909F908F907F906F905F909E
:100A20004F903F902F900895EF92FF920F931F9356
:100A3000DC01ED91FC9111971A960D911C911B9779
:100A400018962D913C9119970684F785E02D7B012E
:100A500040E050E060E070E009951F910F91FF9039
:100A6000EF9008956F927F928F929F92AF92BF9274
:100A7000CF92DF92EF92FF920F931F93CF93DF936A
:100A80006C015A014801EB013B01620E731EC61551
:100A9000D70574F4D601ED91FC910084F185E02D29
:100AA00087019401A501BE01C60109952196EFCFEA
:100AB000DF91CF911F910F91FF90EF90DF90CF903A
:100AC000BF90AF909F908F907F906F900895EF921E
:100AD000FF920F931F93DC01ED91FC91260F371FBE
:100AE000215031090680F781E02D78018A010995AE
:100AF0001F910F91FF90EF900895EF92FF920F9347
:100B00001F937801DC01ED91FC91240F351F8901C1
:100B1000015011090680F781E02D9B0109951F9175
:100B20000F91FF90EF9008956F927F928F929F9216
:100B3000AF92BF92CF92DF92EF92FF920F931F93EB
:100B4000CF93DF93EC014B015A0169013801E88131
:100B5000F9810284F385E02D87010995E881F98107
:100B6000A501460D571D415051090284F385E02D22
:100B70009601B401CE010995E881F9810084F185DF
:100B8000E02D9301A501B401CE010995E881F98119
:100B9000C80CD91CB601615071090084F185E02DA3
:100BA0009301A501CE010995DF91CF911F910F917E
:100BB000FF90EF90DF90CF90BF90AF909F908F907D
:100BC0007F906F9008952F923F924F925F926F9215
:100BD0007F928F929F92AF92BF92CF92DF92EF92CD
:100BE000FF920F931F93CF93DF9300D01F92CDB747
:100BF000DEB74C017B836A836A01590117019801B2
:100C0000241B350B37FF03C0319521953109C501F0
:100C10004A815B81841B950B97FF03C09195819559
:100C2000910951E059838217930714F019820BC080
:100C30009A2D8B2D5801092F182F9A818B81DB82D9
:100C4000CA82C92ED82E8A819B81A816B9065CF467
:100C50009C2D8D2D6801092F182F9A818B81BB82C5
:100C6000AA82A92EB82E2501AA81BB814A1A5B0A45
:100C700038016C187D0877FE03C071946194710887
:100C8000720157FE03C0BFEFEB1AFB0AF594E7941D
:100C9000C016D1061CF00FEF1FEF1FC001E010E0DF
:100CA0001CC0D401ED91FC91B9810480F581E02D47
:100CB0009101BB23C1F04A815B81B601C401099552
:100CC000E618F708F7FE04C0C00ED11EE40CF51CB0
:100CD000EA81FB813196FB83EA834A815B81A4161A
:100CE000B506FCF604C0A6016A817B81E7CF0F90B0
:100CF0000F900F90DF91CF911F910F91FF90EF9088
:100D0000DF90CF90BF90AF909F908F907F906F902B
:100D10005F904F903F902F9008950895EF92FF922B
:100D20000F931F93CF93DF93EC014FEF6FEF8FEF94
:100D30000E94881B4FEF6FEF8FEF0E949A1B8DE090
:100D4000E82E85E0F82EF7018285938503E010E018
:100D5000B8010E94FF26C69FC001C79F900DD69F75
:100D6000900D11242AE230E045E050E0BC0180E023
:100D700090E00E94451BF70182859385B8010E948F
:100D8000FF26C69FC001C79F900DD69F900D1124CE
:100D90002AE230E045E050E0BC018BE990E0DF91D1
:100DA000CF911F910F91FF90EF900C94451BCF9323
:100DB000DF93EC018D819E81DC01ED91FC9104803B
:100DC000F581E02D09951816190654F48D819E8140
:100DD000DC01ED91FC910680F781E02D0995EACFC9
:100DE000DF91CF9108958F929F92AF92BF92CF9251
:100DF000DF92EF92FF92CF93DF93EC016B010E94A1
:100E00000E0E4B015C01E12CF12C8D819E81DC01E9
:100E1000ED91FC910680F781E02D099597FF0FC0B9
:100E20000E940E0EDC01CB0188199909AA09BB09A1
:100E30008C159D05AE05BF0540F38FEF9FEFDF9149
:100E4000CF91FF90EF90DF90CF90BF90AF909F90A9
:100E50008F900895FC01238134812627022E22954C
:100E6000207F2025032E322F22952F7002262695D3
:100E700032272327220F220F220F2025348323839A
:100E80000895CF92DF92EF92FF920F931F93680124
:100E9000790100E010E020E030E00E946D1C1F911D
:100EA0000F91FF90EF90DF90CF9008950F931F93D5
:100EB000CF93DF9300D01F92CDB7DEB729E429830B
:100EC000FC0126852A836B8300E010E020E030E0FF
:100ED00043E050E0BE016F5F7F4F848595850E949F
:100EE000410781E090E00F900F900F90DF91CF913C
:100EF0001F910F910895EF92FF920F931F93CF933D
:100F0000DF9300D0CDB7DEB77C01FC018189882357
:100F100089F087E7898386858A8300E010E020E0F6
:100F200030E042E050E0BE016F5F7F4F84859585E1
:100F30000E944107F701118A0F900F90DF91CF9126
:100F40001F910F91FF90EF9008950F931F93CF93F0
:100F5000DF9300D01F92CDB7DEB722E72983FC01D3
:100F600026852A8301E010E09E012D5F3F4F42E07D
:100F700050E0BE016F5F7F4F848595850E944107D9
:100F800081E09B81913009F080E00F900F900F90ED
:100F9000DF91CF911F910F9108958F929F92AF9201
:100FA000BF92CF92DF92EF92FF920F931F93CF9356
:100FB000DF93CDB7DEB728970FB6F894DEBF0FBE2C
:100FC000CDBF5C017B016BE871E0CE0101964C0165
:100FD0000E94CC12C5010E947B0786E090E00E942F
:100FE0002D278C01DC0111961C921E9213961C92E7
:100FF0001E92129715961C921E92149788159905A9
:1010000049F069817A816115710521F04D815E8118
:101010000E942111F501108B0787C4010E94C7129D
:1010200064E971E0C4010E94CC12D5011F968D9134
:101030009C9150970E94F71D4D815E8169817A8154
:10104000F501878590890E94F310C4010E94C712A0
:10105000D5011F968D919C9150970E94F71DF70125
:101060004481558160817181D5011F968D919C913C
:1010700050970E94F31082E58F83D5011F96ED9162
:10108000FC915097048115812081318142E0C42E6A
:10109000D12C740141E050E0BE01695F7F4F1C9686
:1010A0008D919C911D970E946D1C8A81F501868708
:1010B000078510890115110531F0C8010E94C7127A
:1010C000C8010E94C227D50150961C921E921F97FC
:1010D0008981811103C081E051968C93C5010E94E2
:1010E000A507882339F064E670E080E090E00E9474
:1010F000480DF4CF87E58F83F5018685888702E068
:1011000010E0940142E050E0BE01695F7F4F8485AA
:1011100095850E944107898190E0982F88272A8130
:10112000820F911D28960FB6F894DEBF0FBECDBF7B
:10113000DF91CF911F910F91FF90EF90DF90CF90B3
:10114000BF90AF909F908F900895CF93DF93CDB7CE
:10115000DEB7CA55D1090FB6F894DEBF0FBECDBFBA
:101160001C821B8288EE93E0A0E0B0E08D839E831A
:10117000AF83B88786E291E09A83898382E095E025
:101180009E878D871A8A1B8A1C8A8091640390919E
:1011900065038230910509F473C08330910509F429
:1011A00075C0019709F0F3C040E060E080E00E9464
:1011B0005B1C4FEF6FEF8FEF0E94881B82E08093E4
:1011C000210544E150E064E170E087E991E00E948C
:1011D0003B1C48E250E068E270E082EA91E00E9445
:1011E0003B1C4FEF6FEF8FEF0E949A1B4FEF6FEF9B
:1011F0008FEF0E94881B28E230E04AE050E066E46E
:1012000070E08AE090E00E94451B28E230E048E26E
:1012100050E066E470E088E290E00E94451B28E21E
:1012200030E04AE050E066E470E08AE590E00E9439
:10123000451B28E230E04EE150E066E470E08EE6C7
:1012400090E00E94451B28E230E04AE050E066E46E
:1012500070E086E990E00E94451B6AEA71E0CE01E9
:101260008B5A9F4F0E94CC12BE016B5A7F4FCE010A
:1012700001960E94CD07CE018B5A9F4F0E94C71244
:10128000E0914E03F0914F03099581C082E090E018
:10129000909365038093640361E085E00E94DC0C19
:1012A000809162039091630381309105D9F54FEFEE
:1012B0006FEF8FEF0E949A1B40E060E080E00E9499
:1012C000881B24E130E044E150E060E370E08AE014
:1012D00090E00E94451B40E060E080E00E949A1B85
:1012E0004FEF6FEF8FEF0E94881B28E030E048E05F
:1012F00050E06AE370E084E190E00E94451B26E044
:1013000030E046E050E06AE370E08CE090E00E945C
:10131000451B26E030E046E050E062E370E084E107
:1013200090E02DC0029769F54FEF6FEF8FEF0E94AD
:101330009A1B40E060E080E00E94881B24E130E0DE
:1013400044E150E06BE570E08AE090E00E94451BCC
:1013500026E030E046E050E064E670E083E190E0B3
:101360000E94451B40E060E080E00E949A1B26E05E
:1013700030E046E050E062E670E081E190E00E94FB
:10138000451B64EF71E080E090E00E94480D86E22A
:1013900091E09A838983CE0101960E947B07C65A09
:1013A000DF4F0FB6F894DEBF0FBECDBFDF91CF91F8
:1013B0000895EF92FF920F931F93CF93DF9300D086
:1013C0001F92CDB7DEB7FC012289211118C07C0124
:1013D000138A8FE4898380E48B8386858A839F01C7
:1013E0002C5E3F4F00E410E043E050E0BE016F5F31
:1013F0007F4F848595850E944107F701828B0F906E
:101400000F900F90DF91CF911F910F91FF90EF9070
:101410000895CF93DF93EC010E94D9098A8988232C
:1014200031F08B89C80FD11D8C8990E002C08FEFFD
:101430009FEFDF91CF910895CF93DF93EC010E944E
:10144000D9098A89882359F081508A8B8B8991E048
:10145000980F9B8BC80FD11D8C8990E002C08FEF35
:101460009FEFDF91CF910895CF93DF93EC010E941E
:10147000D9098A8990E0DF91CF910895EF92FF9288
:101480000F931F93CF93DF93EC014FEF6FEF8FEF2D
:101490000E94881B40E060E080E00E949A1B8DE083
:1014A000E82E85E0F82EF7018285938503E010E0B1
:1014B000B8010E94FF26C69FC001C79F900DD69F0E
:1014C000900D11242AE230E045E050E0BC0180E0BC
:1014D00090E00E94451BF70182859385B8010E9428
:1014E000FF26C69FC001C79F900DD69F900D112467
:1014F0002AE230E045E050E0BC018BE990E0DF916A
:10150000CF911F910F91FF90EF900C94451BCF93BB
:10151000DF938BE00E94B30CEC0190934103809326
:1015200040038091640390916503029709F053C0D2
:1015300080913E0390913F03C817D90709F44BC02F
:101540008CE00E94B30C8C179D07F9F08091620328
:101550009091630318161906F4F56FED71E085E1BB
:1015600094E00E94BB1565EE71E085E194E00E9475
:10157000BB1580916203909163030E948E06809157
:10158000620390916303019720C068EE71E085E1EA
:1015900094E00E94BB1565EE71E085E194E00E9445
:1015A000BB15809162039091630320913C033091BD
:1015B0003D0321503109821793076CF40E948E0677
:1015C00080916203909163030196909363038093EB
:1015D00062030E943E0A80914003909141039093E0
:1015E0003F0380933E03DF91CF9108958091640380
:1015F00090916503009719F0029739F008950E94C1
:10160000601A80E090E00C943E0A80916203909111
:101610006303892BB9F542EF65EB87E20E949A1BC1
:1016200040E060E080E00E94881B24E130E044E17B
:1016300050E067E070E08AE090E00E94451B2AE0FD
:1016400030E045E050E067E070E086E190E00E9425
:10165000451B40E060E080E00E949A1B2AE030E0F9
:1016600045E050E061E170E08DE090E00E94451BB4
:10167000109265031092640364EF71E080E090E0E3
:101680000E94480DE0916203F0916303EE0FFF1F8B
:10169000E25BFC4F0190F081E02D0994FC01918DFB
:1016A000228D892F90E0805C9F4F821B91098F7360
:1016B0009927089580E090E0892B29F00E942D124F
:1016C00081110C9400000895CF93DF931F92CDB742
:1016D000DEB76983DC01ED91FC910280F381E02D9E
:1016E00041E050E0BE016F5F7F4F09950F90DF91A1
:1016F000CF91089583E08093E9008091F2008823E0
:1017000019F08AE38093E8000895FC0184859585AB
:1017100097FD0BC09FB7F89482E08093E900809119
:10172000F2009FBF90E0019608959FB7F89482E081
:101730008093E9008091F2009FBF90E0089590E0CF
:10174000FC013197EF30F105B0F5EA5AFF4F0C94E8
:101750001327809180008F7703C0809180008F7D58
:1017600080938000089580918000877FF9CF84B5B1
:101770008F7702C084B58F7D84BD089580919000DD
:101780008F7707C0809190008F7D03C0809190007B
:10179000877F8093900008958091C0008F7703C069
:1017A0008091C0008F7D8093C00008958091C20019
:1017B000877F8093C20008953FB7F89480914703D4
:1017C00090914803A0914903B0914A0326B5A89B84
:1017D00005C02F3F19F00196A11DB11D3FBFBA2FC3
:1017E000A92F982F8827820F911DA11DB11DBC0123
:1017F000CD0142E0660F771F881F991F4A95D1F7E8
:101800000895EF92FF920F931F93DC01ED91FC91ED
:1018100011971A960D911C911B9718962D913C913A
:1018200019970684F785E02D7B0140E050E060E0E9
:1018300070E009951F910F91FF90EF900895FC01C2
:10184000868D882339F06EBD00000DB407FEFDCFF4
:101850008EB5089528E030E090E8A1A1B2A186A558
:10186000492F462319F04C91842B03C04C9180954D
:1018700084238C93A3A1B4A14C9187A5842B8C9332
:10188000A3A1B4A14C9187A5809584238C939695B0
:101890002150310911F7089508958CBD9DBD08951B
:1018A0000F931F93CF93DF931F92CDB7DEB78C01B9
:1018B000FC018485958597FF0EC0CE0101960E949C
:1018C0005C21019719F4298130E002C02FEF3FEF2E
:1018D000F80135872487F801848595850F90DF917D
:1018E000CF911F910F910895CF93DF931F92CDB7A2
:1018F000DEB7FC018485958597FD05C02FEF3FEF8E
:10190000358724870BC0CE0101960E945C21019788
:1019100019F4898190E002C08FEF9FEF0F90DF9163
:10192000CF910895FC01848DDF01A80FB11DA35A4A
:10193000BF4F2C91848D90E001968F739927848FEF
:10194000A689B7892C93A089B1898C9180648C93E6
:10195000938D848D981306C00288F389E02D8081D1
:101960008F7D80830895CF93DF93282F30E0F90196
:10197000ED57F94F8491F901EE5EF84FD491F901DA
:10198000E15CF84FC491CC2391F081110E949F0B30
:10199000EC2FF0E0EE0FFF1FED51FA4FA591B4913F
:1019A000EC91ED2381E090E021F480E002C080E042
:1019B00090E0DF91CF9108951F93CF93DF93282F6D
:1019C00030E0F901ED57F94F8491F901EE5EF84FDF
:1019D000D491F901E15CF84FC491CC23C9F0162FE2
:1019E00081110E949F0BEC2FF0E0EE0FFF1FEF5CC8
:1019F000F84FA591B4918FB7F894111105C09C913F
:101A0000ED2FE095E92302C0EC91ED2BEC938FBF15
:101A1000DF91CF911F910895CF93DF9390E0FC0168
:101A2000EE5EF84F2491FC01E15CF84F849188232D
:101A300061F190E0880F991FFC01EE55F94FC591B7
:101A4000D491FC01EF5CF84FA591B491611109C0EC
:101A50009FB7F8948881209582238883EC912E2368
:101A60000BC0623061F49FB7F8943881822F809563
:101A700083238883EC912E2B2C939FBF06C08FB7B6
:101A8000F894E8812E2B28838FBFDF91CF910895A2
:101A90008F929F92AF92BF92CF92DF92EF92FF927E
:101AA0006B017C010E94DC0B4B015C01C114D10471
:101AB000E104F104F1F00E94DC0BDC01CB01881998
:101AC0009909AA09BB09883E9340A105B10570F3A5
:101AD00021E0C21AD108E108F10888EE880E83E0FF
:101AE000981EA11CB11CC114D104E104F10419F722
:101AF000DDCFFF90EF90DF90CF90BF90AF909F90A1
:101B00008F9008958F929F92AF92BF92CF92DF9263
:101B1000EF92FF920F931F93CF93DF935C016B01C2
:101B20008A0180911101882309F45EC080914205E9
:101B3000882309F459C080914C0380FF05C080912F
:101B4000E00082608093E000E8018AEFF82E93E0E5
:101B5000E92E2FE3822E3AE3932E209709F43DC01D
:101B60008FB7F894E092E9009091E80095FF06C0E5
:101B70009091F200282D291B922F01C090E08FBF79
:101B800091110AC0FA94FF2079F161E070E080E0E1
:101B900090E00E94480DE1CF292F30E0C217D30713
:101BA0000CF49C2F8FB7F894E092E9002091E800A4
:101BB00025FF11C0292F30E0C21BD30BF601915035
:101BC00020F041914093F100FACFC20ED31E9091C4
:101BD000E80095FF13C08FBFC0CF5D9884E6809367
:101BE000D8031016110644F081E090E0F5019383CC
:101BF000828380E090E005C0C80103C09092E800B5
:101C0000EACFDF91CF911F910F91FF90EF90DF907E
:101C1000CF90BF90AF909F908F9008952FB7F8947A
:101C20006091430370914403809145039091460372
:101C30002FBF08951F920F920FB60F9211242F936A
:101C40003F938F939F93AF93BF9380914303909162
:101C50004403A0914503B09146033091420323E031
:101C6000230F2D3720F40196A11DB11D05C026E8D4
:101C7000230F0296A11DB11D2093420380934303BD
:101C800090934403A0934503B09346038091470388
:101C900090914803A0914903B0914A030196A11D78
:101CA000B11D8093470390934803A0934903B093D9
:101CB0004A03BF91AF919F918F913F912F910F90C8
:101CC0000FBE0F901F9018950F931F93CF93DF9324
:101CD0001F92CDB7DEB78C01DC015E968C915E97CA
:101CE000882341F05F968D919C91909769830E9423
:101CF0004D0C6981D8019796ED91FC919897908150
:101D0000D1968C91D197892B80839596ED91FC91FA
:101D100096979081D0968C91809589238083C80175
:101D20000E941F0CD8019596ED91FC919697908199
:101D3000D0968C91892B80830F90DF91CF911F914A
:101D40000F9108950F931F93CF93DF931F92CDB7F9
:101D5000DEB78C01DC015E968C915E97882341F0A2
:101D60005F968D919C91909769830E944D0C69813B
:101D7000D8019796ED91FC9198979081D1968C918E
:101D8000D1978095892380839596ED91FC919697C4
:101D90009081D0968C91809589238083C8010E9480
:101DA0001F0CD8019596ED91FC9196979081D09655
:101DB0008C91892B80830F90DF91CF911F910F9190
:101DC0000895611102C060E201C061E20C94A20EAC
:101DD000EF92FF920F931F93CF93DF9300D0CDB775
:101DE000DEB77C01162F6AE229834A830E94A20E85
:101DF00060E0C7010E94640EF70182A9612F680F9D
:101E0000C7010E94640E60E0C7010E94640EF701E2
:101E100082A92981622F680FC7010E94640E6BE2BC
:101E2000C7010E94A20E60E0C7010E94640EF70184
:101E300083A94A81642F680FC7010E94640E60E085
:101E4000C7010E94640EF70183A9602F680FC701C4
:101E50000E94640E6CE2C7010F900F90DF91CF914A
:101E60001F910F91FF90EF900C94A20EAF92BF9232
:101E7000CF92DF92EF92FF920F931F93CF93DF9356
:101E8000EC015901680128853985621773070CF048
:101E900066C08A859B85481759070CF060C0FB0116
:101EA000EA0DFB1D2E173F071CF45901A61AB70AAD
:101EB0009A012C0D3D1D821793071CF46C01C41A66
:101EC000D50A8D8D823091F49701207E3770C7013D
:101ED000982F8827990F990F990F822B932BEF2C0E
:101EE000FF24E694E694E694E82AF92A0FEF040F1B
:101EF0000C0D2FEF260F2A0DCE010E94E80E8E8DBD
:101F0000882321F08F8D98A10E944D0CEFA1F8A598
:101F1000908189A9892B8083EDA1FEA1908188A958
:101F20008095892380831C141D049CF48501101660
:101F300011065CF46F2DCE010E941F0C6E2DCE0198
:101F40000E941F0C01501109F2CF81E0C81AD1087C
:101F5000EACFEDA1FEA1908188A9892B8083DF9132
:101F6000CF911F910F91FF90EF90DF90CF90BF9096
:101F7000AF900895CF92DF92EF92FF920F931F934D
:101F8000CF93DF93EC016901780188859985681703
:101F900079070CF054C02A853B85421753070CF093
:101FA0004EC09B012C0D3D1D821793071CF46C0144
:101FB000C61AD70A2FEF260F2C0D042FCE010E9430
:101FC000E80E8D8D823091F49701207E3770C70125
:101FD000982F8827990F990F990F822B932BEF2C0D
:101FE000FF24E694E694E694E82AF92A8E8D882365
:101FF00021F08F8D98A10E944D0CEFA1F8A5908142
:1020000089A9892B8083EDA1FEA1908188A9809563
:1020100089238083C114D10461F06F2DCE010E9409
:102020001F0C6E2DCE010E941F0C81E0C81AD10832
:10203000F1CFEDA1FEA1908188A9892B8083DF914A
:10204000CF911F910F91FF90EF90DF90CF90089567
:10205000CF92DF92EF92FF920F931F93CF93DF9374
:10206000EC016901780188859985681779070CF07A
:1020700055C08A859B85481759070CF04FC09A01B7
:102080002C0D3D1D821793071CF46C01C41AD50A50
:102090000FEF040F0C0D262FCE010E94E80E8D8D40
:1020A000823091F49701207E3770C701982F8827DE
:1020B000990F990F990F822B932BEF2CFF24E69405
:1020C000E694E694E82AF92A0F2D8E8D882321F0D4
:1020D0008F8D98A10E944D0CEFA1F8A5908189A940
:1020E000892B8083EDA1FEA1908188A98095892309
:1020F0008083C114D10461F0602FCE010E941F0CB7
:102100006E2DCE010E941F0C81E0C81AD108F1CFBC
:10211000EDA1FEA1908188A9892B8083DF91CF91C9
:102120001F910F91FF90EF90DF90CF900895EF9265
:10213000FF920F93CF93DF93EC01790177FD4BC0B2
:1021400088859985681779070CF045C057FD43C00D
:102150008A859B8548175907F4F501E0040F21E0B3
:10216000260FCE010E94E80E8E8D882321F08F8DE0
:1021700098A10E944D0CEFA1F8A5908189A9892B07
:102180008083EDA1FEA1908188A980958923808319
:102190008D8D823091F49701207E3770C701982F82
:1021A0008827990F990F990F822B932BEF2CFF24DF
:1021B000E694E694E694E82AF92A6F2DCE010E946F
:1021C0001F0C6E2DCE010E941F0CEDA1FEA190816F
:1021D00088A9892B8083DF91CF910F91FF90EF9099
:1021E00008950E942429EF92FF920F931F93CF939B
:1021F000DF93FC01248135816115710511F480E0C4
:1022000019C041155105A9F07B01EC018A01020FAB
:10221000131FB8010E94A012882389F328813981F5
:102220008C819D81B701820F931F0E943B291D83E2
:102230000C8381E0DF91CF911F910F91FF90EF9080
:102240000895EF92FF920F931F93CF93DF93EC01CA
:102250007B018A01BA010E94A01228813981811173
:102260000DC02115310519F0C9010E94C22719823C
:1022700018821D821C821B821A8206C01D830C8359
:10228000B701C9010E943B29CE01DF91CF911F9177
:102290000F91FF90EF9008954091DC035091DD0382
:1022A0002091DA033091DB0342175307B4F4909185
:1022B000E8009570E1F39091E80092FD19C08093D9
:1022C000F1008091DC039091DD0301968F739927D3
:1022D000892B19F48EEF8093E8008091DC039091B4
:1022E000DD0301969093DD038093DC0381E0089584
:1022F00080E00895DF92EF92FF920F931F93CF93A8
:10230000DF93D82E8A017B01E40EF51EEB01CE157A
:10231000DF0571F0D7FE03C0FE01849101C0888102
:102320000E944C1121968111F2CF8FEF9FEF01C0D7
:10233000C801DF91CF911F910F91FF90EF90DF9037
:102340000895615030F02091F100FC012083019646
:10235000F8CF289884E6809341050895CF92DF92C4
:10236000EF92FF920F931F93CF93DF936C017A014B
:102370008B01C0E0D0E0CE15DF0589F0D8016D916A
:102380008D01D601ED91FC910190F081E02DC60107
:102390000995892B11F47E0102C02196ECCFC7016B
:1023A000DF91CF911F910F91FF90EF90DF90CF9031
:1023B0000895FC01918D828D981761F0828DDF0167
:1023C000A80FB11D5D968C91928D9F5F9F73928F28
:1023D00090E008958FEF9FEF0895FC01918D828D1D
:1023E000981731F0828DE80FF11D858D90E00895EA
:1023F0008FEF9FEF08950F931F93CF93DF931F925B
:10240000CDB7DEB782E0898342E450E061E076E058
:1024100080E80E947A110E948621DC0112960D91BB
:102420001C9113970115110569F0D801ED91FC91EC
:102430000280F381E02DBE016F5F7F4FC8010995D7
:1024400097FF07C089810F90DF91CF911F910F9166
:102450000895F80100851185E5CF85E694E00E9496
:102460004E0B21E0892B09F420E0822F0895EF9292
:10247000FF920F931F93CF93DF93EC0181E0888F3E
:102480009B8D8C8D981305C0E889F989808185FD25
:1024900024C0F62E0B8D10E00F5F1F4F0F73112716
:1024A000E02E8C8DE8120CC00FB607FCFACFE8893D
:1024B000F989808185FFF5CFCE010E94920CF1CF82
:1024C0008B8DFE01E80FF11DE35AFF4FF0820B8F59
:1024D000EA89FB898081806207C0EE89FF89608379
:1024E000E889F98980818064808381E090E0DF91D0
:1024F000CF911F910F91FF90EF900895CF93DF93AD
:10250000EC01888D8823C9F0EA89FB89808185FDEB
:1025100005C0A889B9898C9186FD0FC00FB607FC4C
:10252000F5CF808185FFF2CFA889B9898C9185FF8D
:10253000EDCFCE010E94920CE7CFDF91CF910895AD
:102540000F931F93CF93DF93EC01888199810097BC
:1025500029F02A813B812617370788F48B016F5FAA
:102560007F4F0E945A28009761F0998388831B83CC
:102570000A832C813D81232B11F4FC01108281E020
:1025800001C080E0DF91CF911F910F910895FC0170
:10259000808191810C94C227FC01118210821382E8
:1025A0001282158214826115710551F0FB010190B0
:1025B0000020E9F73197AF01461B570B0C9421110E
:1025C00008951F920F920FB60F9211248F939F932D
:1025D0008091E1009091E100937F9093E10083FF6F
:1025E0000FC01092E90091E09093EB001092EC0084
:1025F00092E39093ED001092420598E09093F000E2
:1026000082FF20C093E09093E9009091F20099231B
:1026100019F09AE39093E8009091D803992339F048
:102620009091D80391509093D803992389F1909178
:102630004105992339F090914105915090934105BE
:10264000992341F184FF10C08091E2008E7E816069
:102650008093E2008091E1008F7E8093E100809181
:102660004C038E7E806111C080FF16C08091E20015
:102670008E7E80618093E2008091E1008E7E809367
:10268000E10080914C038E7E816080934C0304C0F6
:102690005D9ACDCF289AD6CF9F918F910F900FBE84
:1026A0000F901F9018951F920F920FB60F92112442
:1026B000CF92DF92EF92FF920F931F932F933F934E
:1026C0004F935F936F937F938F939F93AF93BF933A
:1026D000EF93FF93CF93DF93CDB7DEB76C97DEBF59
:1026E000CDBF1092E9008091E80083FFFAC168E055
:1026F000CE0145960E94A11182EF8093E8008D895A
:1027000087FF05C09091E80090FFFCCF03C09EEFCB
:102710009093E800982F907609F0C6C09E892F8983
:10272000188D91110CC0803829F480914D0380934D
:10273000F10002C01092F1001092F10047C1422F47
:1027400050E0512B913051F4811140C1413051057D
:1027500009F03CC180914D038D7F0BC0933061F433
:10276000811134C14130510509F030C180914D03D0
:10277000826080934D032AC1953041F48091E80036
:1027800080FFFCCF20682093E30020C1963009F041
:102790005FC0EB8CFC8C1092E9001092DD0310926C
:1027A000DC03123091F51092DB031092DA030E94E1
:1027B000FB1199E0BE016F5F7F4FDB01E92F1D9296
:1027C000EA95E9F799831A8391E09E8390EA9887C6
:1027D0009AEF99872091DC033091DD03275F3F4F0B
:1027E0003C832B838D831092E9001092DD031092BD
:1027F000DC03F092DB03E092DA0349E050E080E092
:102800000E947A110E94FB11E1C0F092DB03E0927A
:10281000DA030E948621DC011296ED90FC9013975A
:10282000E114F10409F4C0C0D701ED91FC910480DA
:10283000F581E02DBE016B5E7F4FC70109950097C2
:1028400019F00CF0C3C0C6C0F701E084F184E8CFF2
:10285000973009F4BFC0983021F481E08093F100F3
:10286000B5C0993009F0B2C0837009F0B3C0E3E39A
:10287000F1E081E021E036E39081992361F08093DB
:10288000E9002093EB0091919093EC003093ED00E0
:102890008F5F873089F78EE78093EA001092EA0015
:1028A0008F898093420592C08B8D9C8D1092E90098
:1028B0001092DD031092DC039093DB038093DA0324
:1028C000898D811156C08E899D89913A59F4813242
:1028D00009F080C047E050E06AE071E080E00E94CB
:1028E0007A1174C0913209F075C0833289F4888DF1
:1028F00090E0982F88272F89822BA0E0B0E080936A
:10290000060190930701A0930801B09309015EC0EE
:10291000803269F48091E80082FFFCCF67E08AE0B2
:1029200091E00E94A1118BEF8093E80006C08232F3
:1029300009F04CC08F898093110180914B0388234B
:1029400019F0EEEFFAE002C0E0E0F8E080910A0151
:1029500090910B01A0910C01B0910D01803B94402E
:10296000A105B10509F088C08091110180FFA0C0C8
:1029700083C00E948621DC0112960D911C91139751
:102980000115110539F1D801ED91FC910190F0810B
:10299000E02DBE016B5E7F4FC8010995811116C005
:1029A000F80100851185ECCF1130C1F0133091F49E
:1029B0008F89882309F455C08230E9F440E86BE040
:1029C00083E596E00E944126882321F08EEF8093D4
:1029D000E80087C081E28093EB0083C08B8D9C8DE3
:1029E000089711F41093D9038091D903811136C04F
:1029F0006FE576E038C0813029F440E86BE087E489
:102A000096E0E0CF833031F70E948621DC011296F8
:102A1000ED90FC9013978E010F5F1F4F6801E1143A
:102A2000F10479F0D701ED91FC910680F781E02D5A
:102A3000B801C7010995080F111DF701E084F18461
:102A4000EECFD8011C92F60101900020E9F73197F2
:102A5000BF016C197D0940E0C601B4CF61E776E0A3
:102A600002C063E476E06115710509F4B3CFFB01A0
:102A7000449150E080E833CF0FB6F894A895809148
:102A80006000886180936000109260000FBEA8957E
:102A9000EE3F2AE0F20739F08091FE0A9091FF0A9A
:102AA0009183808393CF1092FF0A1092FE0A8ECFFB
:102AB000EE3F8AE0F80731F0808191819093FF0A20
:102AC0008093FE0A87E797E7918380839BE088E104
:102AD0000FB6F894A895809360000FBE90936000A5
:102AE00075CF6C960FB6F894DEBF0FBECDBFDF91E9
:102AF000CF91FF91EF91BF91AF919F918F917F9176
:102B00006F915F914F913F912F911F910F91FF9086
:102B1000EF90DF90CF900F900FBE0F901F90189501
:102B2000DC01ED91FC910190F081E02D0994EF9290
:102B3000FF920F931F93CF93DF938C017B01C0E033
:102B4000D0E0F701EC0FFD1F6491662361F0D8011E
:102B5000ED91FC910190F081E02DC8010995892B40
:102B600011F02196EECFCE01DF91CF911F910F9101
:102B7000FF90EF9008956115710579F0FB010190C8
:102B80000020E9F73197AF01461B570BDC01ED91AF
:102B9000FC910280F381E02D099480E090E008959B
:102BA0000C94BB151F920F920FB60F9211242F9306
:102BB0003F934F935F936F937F938F939F93AF93C5
:102BC000BF93EF93FF9385E694E00E94920CFF91F0
:102BD000EF91BF91AF919F918F917F916F915F9195
:102BE0004F913F912F910F900FBE0F901F9018950E
:102BF0001F920F920FB60F9211242F938F939F93D2
:102C0000EF93FF93E0917504F09176048081E09159
:102C10007B04F0917C0482FD12C0908180917E043F
:102C20008F5F8F7320917F04821751F0E0917E04B3
:102C3000F0E0EB59FB4F958F80937E0401C08081BB
:102C4000FF91EF919F918F912F910F900FBE0F9059
:102C50001F901895CF93DF9364EF71E080E090E0D0
:102C60000E94480D10926503109264031092630352
:102C70001092620363EF71E085E194E00E94D01549
:102C80004FEF6FEF8FEF0E945B1C40E060E080E051
:102C90000E94881B40E060E080E00E949A1BCDE02B
:102CA000D5E08A859B8563E070E00E94FF269B014A
:102CB0004885598560E070E080E090E00E94451B07
:102CC00082E08C8B47E350E06AE070E08FE792E0AF
:102CD0000E943B1C44E650E06AE070E085E892E028
:102CE0000E943B1C4FEF6FEF8FEF0E94881B4AE062
:102CF00050E064E170E08BE892E00E943B1C4AE007
:102D000050E061E470E080910401909105010E941F
:102D10003B1C42EF65EB87E20E94881B47E350E0D3
:102D20006CE370E080910001909101010E943B1CD6
:102D300043E463E487EF0E94881B44E650E06CE3C1
:102D400070E08091020190910301DF91CF910C948A
:102D50003B1C0F931F93CF93DF93CDB7DEB7CA55BC
:102D6000D1090FB6F894DEBF0FBECDBF1C821B8207
:102D700088EE93E0A0E0B0E08D839E83AF83B887B8
:102D800086E291E09A83898382E095E09E878D8731
:102D90001A8A1B8A1C8A6FE872E085E194E00E941F
:102DA000D01542EF65EB87E20E945B1C43E463E4CD
:102DB00086EF0E94881B43E463E486EF0E949A1B1F
:102DC00020E530E048E750E06AE070E084E190E020
:102DD0000E94451B40E060E080E00E94881B40E0CC
:102DE00060E080E00E949A1B82E0809321054EE122
:102DF00050E063E270E089E992E00E943B1C42E30C
:102E000050E063E270E082EA91E00E943B1C4FEFE9
:102E10006FEF8FEF0E94881B4FEF6FEF8FEF0E94D5
:102E20009A1B87E090E00E94781F43E463E486EFFA
:102E30000E94881B43E463E486EF0E949A1B85E0AE
:102E400090E00E94781F6AEA71E0CE018B5A9F4F92
:102E50000E94CC12BE016B5A7F4FCE0101960E9498
:102E6000CD078C01CE018B5A9F4F0E94C712012BB8
:102E7000A1F086E291E09A838983CE0101960E94B7
:102E80007B07C65ADF4F0FB6F894DEBF0FBECDBF2B
:102E9000DF91CF911F910F910895109214048091AA
:102EA000640390916503019729F4E0914E03F0913A
:102EB0004F0309956EE972E085E194E00E94D01518
:102EC000CE0101960E94A5078111FACFD2CF8F9231
:102ED0009F92AF92BF92CF92DF92EF92FF920F93A9
:102EE0001F93CF93DF93CDB7DEB7CF55D1090FB680
:102EF000F894DEBF0FBECDBF62EA72E085E194E0D8
:102F00000E94D0154FEF6FEF8FEF0E945B1C40E0E7
:102F100060E080E00E94881B82E08093210544E10C
:102F200050E064E170E088EA92E00E943B1C48E2D5
:102F300050E064E170E083EB92E00E943B1C40E0D3
:102F400060E080E00E949A1B40E060E080E00E9428
:102F5000881B28E230E043E050E066E470E082E065
:102F600090E00E94451B28E230E048E250E066E431
:102F700070E08CE090E00E94451B28E230E048E2DF
:102F800050E066E470E08CE390E00E94451B28E28C
:102F900030E043E050E066E470E08CE690E00E94B0
:102FA000451B28E230E048E250E066E470E083E749
:102FB00090E00E94451B28E230E043E050E066E4E8
:102FC00070E08EE990E00E94451B4FEF6FEF8FEFAE
:102FD0000E949A1B4FEF6FEF8FEF0E94881B28E132
:102FE00030E048E150E06EE470E084E190E00E945F
:102FF000451B28E130E048E150E06EE470E084E4F5
:1030000090E00E94451B28E130E048E150E06EE48A
:1030100070E08BE790E00E94451B1C821B8288EECB
:1030200093E0A0E0B0E08D839E83AF83B88786E213
:1030300091E09A83898382E095E09E878D871A8A42
:103040001B8A1C8A6BEB72E0CE018B5A9F4F0E9449
:10305000CC12BE016B5A7F4FCE0101960E94CD0764
:103060008C01CE018B5A9F4F0E94C712012B09F091
:1030700088C081E080931404CE0101960E94A507C8
:103080008111FACF8E01055A1F4F680184E0C80EE6
:10309000D11C7801CE0101960E94D9098B89882321
:1030A00009F48BC00C151D0509F487C0CE010196EB
:1030B0000E941C0AF80181938F01682F85E194E03A
:1030C0000E949015E7CFF1E0AF1AB10809F457C09C
:1030D0000150110928F481E0E81AF10809E010E034
:1030E000F7FE08C0E1E0CE1AD10859E0E52EF12C38
:1030F00009E010E080E38C0D66968FAF669780E361
:103100008E0D67968FAF679780E3800F68968FAFBD
:10311000689769968FAE69976A961FAE6A9742EF75
:1031200065EB87E20E949A1B42EF65EB87E20E9403
:10313000881B24E130E04CE350E063E670E081E579
:1031400090E00E94451B40E060E080E00E94881B08
:103150009092210543E650E061E570E0CE018B5A84
:103160009F4F0E943B1C68EE73E080E090E00E945D
:10317000480D87E00E94B30C019709F0A4CF0E948C
:10318000A91686E291E09A838983CE0101960E9476
:103190007B07C15ADF4F0FB6F894DEBF0FBECDBF1D
:1031A000DF91CF911F910F91FF90EF90DF90CF9023
:1031B000BF90AF909F908F900895F701148281E0A7
:1031C00090E0909365038093640342EF65EB87E2A0
:1031D0000E945B1C4FEF6FEF8FEF0E94881B4FEF39
:1031E0006FEF8FEF0E949A1B20E530E048E750E038
:1031F0006AE070E084E190E00E94451B40E060E0FE
:1032000080E00E94881B40E060E080E00E949A1B02
:1032100084E0809321054EE150E063E270E0C70155
:103220000E943B1C4FEF6FEF8FEF0E94881B4FEF08
:103230006FEF8FEF0E949A1B87E090E00E94781F4B
:1032400040E060E080E00E94881B40E060E080E0B9
:103250000E949A1B85E090E00E94781F84EBA82EC4
:10326000B12C00E010E098E0E92EF12CCC24C394BE
:10327000D12C33E7832E42E0942E2ACF83E090E0D6
:10328000909365038093640342EF65EB87E20E94AD
:103290009A1B40E060E080E00E94881B24E130E05F
:1032A00044E150E060E370E08AE090E00E94451B5A
:1032B00040E060E080E00E949A1B42EF65EB87E20D
:1032C0000E94881B28E030E048E050E06AE370E0AC
:1032D00084E190E00E94451B26E030E046E050E0AB
:1032E0006AE370E08CE090E00E94451B26E030E04D
:1032F00046E050E062E370E084E190E00E94451B0C
:1033000060E085E00C94DC0C0F931F93CF93DF9368
:1033100042EF65EB87E20E949A1B40E060E080E0AC
:103320000E94881B24E130E044E150E06BE570E04E
:103330008AE090E00E94451B26E030E046E050E045
:1033400064E670E083E190E00E94451B40E060E0AD
:1033500080E00E949A1B26E030E046E050E062E602
:1033600070E081E190E00E94451B83E090E0909343
:1033700065038093640387E00E94B30C892BD1F529
:1033800002E010E0C0E0D0E087E00E94B30C0197BB
:1033900041F460E08DE0DF91CF911F910F910C948B
:1033A000DC0CCE010E94A81B6EE170E080E090E092
:1033B0000E94480D2596C43081E0D80729F7CFEF49
:1033C000D0E087E00E94B30C019719F3CE010E9470
:1033D000A81B6EE170E080E090E00E94480D259708
:1033E000CB3F8FEFD80769F70130110521F201E0DB
:1033F00010E0C8CFDF91CF911F910F910895E4EFB6
:10340000F3E020E030E0408151814817590759F43A
:10341000220F331F220F331FF901EC50FC4F0280A3
:10342000F381E02D09942F5F3F4F3496283031050A
:1034300051F708952091F2033091F30328303105BC
:1034400094F4F901EE0FFF1FEE0FFF1FEC50FC4F3D
:1034500091838083738362832F5F3F4F3093F303A5
:103460002093F203089565EF72E085E194E00C94F7
:10347000D01520913C0330913D0362177307D1F4BE
:103480006A307105A4F49B01220F331FF901E25247
:10349000FC4F91838083F901E25BFC4F51834083B1
:1034A0006F5F7F4F70933D0360933C03089564E129
:1034B00073E002C067E273E085E194E00C94D015FC
:1034C000EF92FF920F931F93CF93DF9364E373E028
:1034D00085E194E00E94D01582E090E0909365032E
:1034E00080936403809321054FEF6FEF8FEF0E946D
:1034F0005B1C40E060E080E00E94881B4FEF6FEFB4
:103500008FEF0E949A1B40E060E080E00E94881BE1
:1035100024E130E044E150E067E070E08AE090E0D0
:103520000E94451B2AE030E045E050E067E070E093
:1035300086E190E00E94451B40E060E080E00E9450
:103540009A1B2AE030E045E050E061E170E08DE058
:1035500090E00E94451B4FEF6FEF8FEF0E949A1B88
:1035600040E060E080E00E94881B24E130E044E11C
:1035700050E060E370E08AE090E00E94451B40E08C
:1035800060E080E00E949A1B4FEF6FEF8FEF0E9488
:10359000881B28E030E048E050E06AE370E084E116
:1035A00090E00E94451B26E030E046E050E06AE3F0
:1035B00070E08CE090E00E94451B26E030E046E0A1
:1035C00050E062E370E084E190E00E94451B4FEF21
:1035D0006FEF8FEF0E949A1B40E060E080E00E9456
:1035E000881B24E130E044E150E06BE570E08AE0C4
:1035F00090E00E94451B26E030E046E050E064E6A3
:1036000070E083E190E00E94451B40E060E080E0D4
:103610000E949A1B26E030E046E050E062E670E04F
:1036200081E190E00E94451B0EED13E0C0E0D0E088
:1036300083E0E82EF12C80913C0390913D03C81764
:10364000D907E4F48091170590911805B7010E94FD
:10365000FF26C69FA001C79F500DD69F500D112475
:10366000465F5F4F68E270E0F801819191918F01B0
:103670000E943B1C2196C330D105E9F6DF91CF9122
:103680001F910F91FF90EF9008958F929F92AF92AC
:10369000BF92CF92DF92EF92FF920F931F93CF933F
:1036A000DF93EC016B015A014901809129058823C0
:1036B00091F0E0910D05F0910E05E0902705F09056
:1036C00028050684F785E02D89019A01AB01BE012A
:1036D0008DE095E0099580912605882361F0E090C2
:1036E0002405F090250584019501A601BE018DE019
:1036F00095E00E949405DF91CF911F910F91FF906B
:10370000EF90DF90CF90BF90AF909F908F900895F3
:10371000242F462F682F8DE095E00E94DA03EDE01C
:10372000F5E021E0218F908F878B918B808B938B9D
:10373000828B0895242F462F682F8DE095E00E94FC
:10374000DA03EDE0F5E021E0248F938F828F089576
:10375000CF93DF93EC0161E08DE00E940C0D209788
:1037600011F460E004C0CF3FD10531F461E08DE099
:10377000DF91CF910C94DC0CE0E9F6E0E4918E2F20
:1037800090E0FC013197EF30F10508F06CC0EB5987
:10379000FF4F0C94132784B5806884BDC7BD68C0F3
:1037A00084B5806284BDC8BD63C08091800080689C
:1037B00080938000D0938900C093880059C0809185
:1037C0008000806280938000D0938B00C0938A0039
:1037D0004FC080918000886080938000D0938D00DE
:1037E000C0938C0045C080919000806880939000C9
:1037F000D0939900C09398003BC080919000806264
:1038000080939000D0939B00C0939A0031C0809128
:103810009000886080939000D0939D00C0939C009E
:1038200027C08091C00080688093C0008091C00054
:103830008F7B8093C000C093CF001AC08091C000DE
:1038400080628093C000C093D00012C08091C200FB
:1038500088608093C2008091C2008B7F8093C200F9
:10386000C093D20005C0C038D1050CF07FCF79CF0E
:10387000DF91CF910895209126052223D9F010924F
:103880002305209124053091250530931E052093B2
:103890001D053093200520931F0570931A05609332
:1038A000190550931C0540931B05BC018DE095E064
:1038B0000C94D0150895242F462F682F8DE095E0A5
:1038C0000E94DA03E0910D05F0910E050088F18960
:1038D000E02DBC018DE095E009942F923F924F922C
:1038E0005F926F927F928F929F92AF92BF92CF9290
:1038F000DF92EF92FF920F931F93CF93DF93CDB799
:10390000DEB72B970FB6F894DEBF0FBECDBF9B87F7
:103910008A875B011901FD82EC823A01600E711EFB
:10392000872C7B82912C44244A94542C9B01240F95
:10393000351F3F832E839101200F311F3987288740
:10394000EA85FB858085981608F036C1AA85BB8577
:1039500014965C924E92139715968D919C911697A2
:10396000DC01ED91FC910190F081E02D6FEF099564
:103970006FEF8A859B850E942A07EA85FB858581F2
:103980009681DC01ED91FC910190F081E02DAA85FA
:10399000BB856C910995EA85FB856081CF010E940A
:1039A0002A07AA85BB8515968D919C911697DC01F7
:1039B000ED91FC910190F081E02D682D09956B81CE
:1039C0008A859B850E942A07EA85FB8585819681E9
:1039D000DC01ED91FC910190F081E02D662D0995BF
:1039E000662D8A859B850E942A0775012E813F815D
:1039F000E216F306B1F0EA85FB85858196818701A1
:103A0000DC01ED91FC910190F081E02DD7016D91E9
:103A10007D010995F80160818A859B850E942A07AE
:103A2000E5CF7101AA85BB8515968D919C9116975E
:103A300028853985E216F30691F08701DC01ED91C6
:103A4000FC910190F081E02DD7016D917D010995E8
:103A5000F80160818A859B850E942A07E3CFDC01FB
:103A6000ED91FC91AA85BB8514966C910190F08133
:103A7000E02D0995EA85FB8585819681DC01ED9134
:103A8000FC910190F081E02DAA85BB8513966C9185
:103A9000099564E670E08A859B850E94F3068F3F56
:103AA000910509F07DC0EA85FB85548243826FEF62
:103AB000CF010E942A0765E070E08A859B850E94FD
:103AC000F306AA85BB856C91262F30E082179307F9
:103AD00009F066C0CD010E942A076AE070E08A857D
:103AE0009B850E94F3067C0197FD5AC0682F8A854A
:103AF0009B850E942A076AE070E08A859B850E9468
:103B0000F3068C0197FD4CC0682F8A859B850E9427
:103B10002A07EA821982E981FA810E0F1F1FE12C20
:103B2000F12C65E070E08A859B85E016F106A9F02E
:103B3000EC14FD0491F00E94F30697FD0AC0EC819D
:103B4000FD81EE0DFF1D8083682F8A859B850E9475
:103B50002A07FFEFEF1AFF0AE4CF0E94F3067C0169
:103B600097FD1EC065E070E08A859B850E94F30684
:103B700097FD16C0FE2CEE248E0D9F1DAA85BB85D9
:103B800013962D913C9114972817390749F48C917D
:103B90008F5F8C93C801C016D10680F4C6010EC099
:103BA000939464E670E080E090E00E94480D8A857E
:103BB0009B850E94D706C4CE8FEF9FEF2B960FB642
:103BC000F894DEBF0FBECDBFDF91CF911F910F9153
:103BD000FF90EF90DF90CF90BF90AF909F908F902D
:103BE0007F906F905F904F903F902F9008950F932C
:103BF0001F93CF93DF93EC010C811D810F5F1F4F4B
:103C0000B8010E94A012882369F0288139818C8133
:103C10009D8169E373E0820F931F0E943B291D83FE
:103C20000C8381E0DF91CF911F910F910895CF9385
:103C3000DF9366E38DE095E00E94A20ECDE0D5E033
:103C400081E08D8B68EACE010E94640E80EA90E0EC
:103C50009987888780E890E09B878A87DF91CF915A
:103C60000895CF92DF92EF92FF920F931F93CF931D
:103C7000DF931092400510923F0561E08091370577
:103C80000E940C0D61E0809136050E940C0D809120
:103C9000360590E0FC01E15CF84FE491F0E0EE0FB6
:103CA000FF1FEF5CF84F259134913093330520933B
:103CB0003205FC01EE5EF84FE491E0933D05809102
:103CC000370590E0FC01E15CF84FE491F0E0EE0F85
:103CD000FF1FEF5CF84F2591349130933505209309
:103CE0003405FC01EE5EF84FE491E0933E058091CF
:103CF0002B05882309F439C0CFB7F89480914F057C
:103D0000811127C0E0E5F7E08491E3E2F7E09491C8
:103D1000E82FF0E0EE0FFF1FEE55F94FA591B4919B
:103D2000EC91E92321F461E081E10E94DC0C61E087
:103D300081E10E940C0D8CB580618CBD8CB58064D6
:103D40008CBD61E08FE00E940C0D61E080E10E947B
:103D50000C0D80914F058F5F80934F05CFBF80E59D
:103D600080932C0510922D0549C061E080913A05A1
:103D70000E940C0D61E0809139050E940C0D80912C
:103D80003A0590E0FC01E15CF84FE491F0E0EE0FC1
:103D9000FF1FEF5CF84FA591B491B0933105A0934C
:103DA0003005FC01EE5EF84F849180933C05209134
:103DB000390530E0F901E15CF84FE491F0E0EE0FF5
:103DC000FF1FEF5CF84F4591549150932F0540939E
:103DD0002E05F901EE5EF84FE491E0933B059C91CE
:103DE000E82FE095E923EC93E0912E05F0912F0563
:103DF000908180913B05809589238083E0913205F5
:103E0000F0913305908180913D05809589238083D1
:103E100080913805882321F161E00E940C0D61E05A
:103E2000809138050E94DC0C64EF71E080E090E046
:103E30000E94480D60E0809138050E94DC0C64EF20
:103E400071E080E090E00E94480D61E080913805CB
:103E50000E94DC0C64EF71E080E090E00E94480D6D
:103E6000E0EBF6E01491C1EBD6E0112309F437C082
:103E7000FE0164918DE095E00E94A20E6E01F2E0D9
:103E8000CF0ED11CFE013196C4910C2F0078CF7754
:103E90007601DC2FD15050F0F70164918DE095E070
:103EA0000E94640EFFEFEF1AFF0AF4CFC6018C0FD9
:103EB000911DEC01002389F07C019FEFE91AF90ABA
:103EC000FE01649170E06F3F710511F464EF71E0E1
:103ED00080E090E00E94480DE7011150C6CFDF91CD
:103EE000CF911F910F91FF90EF90DF90CF900895A9
:103EF0002F923F924F925F926F927F928F929F92FA
:103F0000AF92BF92CF92DF92EF92FF920F931F93E7
:103F1000CF93DF9300D000D000D0CDB7DEB71C0127
:103F2000892B09F4B0C180912905811162C080916B
:103F30002605882309F4A7C1E0912405F091250501
:103F4000FA83E98381E090E07C01E218F3084424DD
:103F5000552442185308440C551CE0910D05F0916E
:103F60000E050480F581E02D29813A81A101475990
:103F70005F4F6EE170E08DE095E00995E0910D05F1
:103F8000F0910E0549E650E0421953090480F5818D
:103F9000E02D29813A816EE170E08DE095E0099590
:103FA000E0910D05F0910E050480F581E02D298149
:103FB0003A8149E650E0B101625E7F4F8DE095E0C5
:103FC0000995E0910D05F0910E056EE170E0621922
:103FD00073090480F581E02D29813A8149E650E09A
:103FE0008DE095E0099500E010E066246394712C63
:103FF00046C16090270570902805E0910D05F0916D
:104000000E059101220F331F2F5F3F4F49E650E00D
:10401000421953090084F185E02D83016EE170E0BF
:104020008DE095E0099581E090E04C0182189308BD
:1040300088279927821993095C01AA0CBB1C3E8230
:104040002D82E12CF12CCC24C394D12CAD81BE81E6
:10405000EA16FB060CF06BCF97FC0BC04D815E811E
:10406000415051095E834D8352E0A50EB11C8A0C6C
:104070009B1C8FEFE81AF80A92E0C90ED11C8C0C39
:104080009D1C4D805E80440C551CAFEF4A1A5A0AA5
:10409000E0910D05F0910E05B701625E7F4F00843F
:1040A000F185E02D8301920149E650E08D819E81EA
:1040B000481B590B5A8349838DE095E00995A9E681
:1040C000B0E0AE19BF09BC83AB83E0910D05F09160
:1040D0000E050084F185E02D9601AD016D817E8194
:1040E000625E7F4F8DE095E00995E0910D05F091BE
:1040F0000E056EE170E06E197F090084F185E02DF8
:10410000920149815A818DE095E00995E0910D0574
:10411000F0910E050084F185E02D96014B815C81C4
:104120006EE170E08D819E81681B790B8DE095E0DA
:1041300009958CCFF7FC08C0F1E02F1A310842E056
:10414000440E511CE40CF51C0F5F1F4F52E0650E2E
:10415000711CE60CF71C48018EE1880E911CE09161
:104160000D05F0910E050480F581E02D29813A813D
:10417000610199E6C90ED11CA601B4018DE095E05C
:1041800009958EE1A82EB12CA01AB10AE0910D0577
:10419000F0910E050480F581E02D29813A81A60178
:1041A000B5018DE095E00995E0910D05F0910E05C2
:1041B0000480F581E02D29813A8199E6C92ED12C20
:1041C000C218D308A601B4018DE095E00995E091ED
:1041D0000D05F0910E050480F581E02D29813A81CD
:1041E000A601B5018DE095E009956801A9E6CA0E22
:1041F000D11CE0910D05F0910E050480F581E02DB4
:1042000029813A81A6015101BEE1AB0EB11CB50175
:104210008DE095E00995E0910D05F0910E05048083
:10422000F581E02D29813A81A6016EE1C62ED12CBF
:10423000C218D308B6018DE095E0099579E6872E7E
:10424000912C801A910AE0910D05F0910E050480E1
:10425000F581E02D29813A81A401B5018DE095E039
:104260000995E0910D05F0910E050480F581E02D92
:1042700029813A81A401B6018DE095E009950215E6
:1042800013050CF457CF26960FB6F894DEBF0FBE79
:10429000CDBFDF91CF911F910F91FF90EF90DF90F5
:1042A000CF90BF90AF909F908F907F906F905F90D6
:1042B0004F903F902F900895FC018091420581110D
:1042C00003C08FEF9FEF08959FB7F89482E080932B
:1042D000E9002091F20030E01216130614F421E0F8
:1042E00030E02115310559F0289884E68093410586
:1042F0008091F10080838091F200882319F09FBFA4
:10430000C90108958BE68093E800F9CF80914705B5
:1043100081110DC082E08093430584E080934405C1
:10432000109246051092450581E08093470583E48D
:1043300095E00895CF93DF93CDB7DEB7CE55D10981
:104340000FB6F894DEBF0FBECDBF789484B58260FF
:1043500084BD84B5816084BD85B5826085BD85B529
:10436000816085BD80916E00816080936E001092A7
:104370008100809181008260809381008091810022
:1043800081608093810080918000816080938000B3
:104390008091910082608093910080919100816072
:1043A0008093910080919000816080939000809133
:1043B000C10084608093C1008091C10082608093BD
:1043C000C1008091C10081608093C1008091C300D1
:1043D00081608093C3008091C00082608093C000A0
:1043E0008091C20081608093C20080917A008460D5
:1043F00080937A0080917A00826080937A00809125
:104400007A00816080937A0080917A00806880933E
:104410007A001092420510924D0310924C03809145
:10442000D70081608093D70080EA8093D80089B557
:10443000806189BD89B5826089BD09B400FEFDCF68
:1044400061E070E080E090E00E94480D8091D8002B
:104450008F7C80618093D8008091E000807F809382
:10446000E0008091E1008E7E8093E1008DE08093FA
:10447000E200559A209AEEEFFFE7859194918B3FE9
:104480009C4D19F481E080934B038FEF9FEF909345
:10449000220480932104E0910B05F0910C05A08982
:1044A000B18982E08C93A485B5851C92A685B785D9
:1044B00087E08C93108EA489B58986E08C93A289BD
:1044C000B3898C9180618C93A289B3898C91886027
:1044D0008C93A289B3898C9180688C930288F3892C
:1044E000E02D80818F7D8083809109058111CCC072
:1044F00081E08093090582E095E00E94D70668EE8E
:1045000073E080E090E00E94480D80910705909153
:104510000805DC01ED91FC910480F581E02D099501
:104520001816190644F345E0F42EEE24E39452E302
:10453000D52EE8E1F1E0DE01AB5ABF4F8F2D01909F
:104540000D928A95E1F7E0920A0500E010E020E084
:1045500030E045E050E0BE016B5A7F4F82E095E0CD
:104560000E94410763E080910705909108050E9431
:1045700090156AEF70E080E090E00E94480D6FEFC8
:1045800075E080910705909108050E9497156AEFE4
:1045900070E080E090E00E94480D6DEF75E0809142
:1045A0000705909108050E94971564EF71E080E07F
:1045B00090E00E94480D61EF75E0809107059091B1
:1045C00008050E94971564EF71E080E090E00E947A
:1045D000480D82E095E00E94D706EDE1F1E0DE01B2
:1045E00011968F2D01900D928A95E1F7D0920A05D0
:1045F00004E010E09E01255A3F4F45E050E0BE0127
:104600006F5F7F4F82E095E00E9441078F3FBFEFD1
:104610009B0739F468EE73E080E090E00E94480D5B
:1046200088CF6C962FAD6C972111FFCF049719F5A9
:104630006D962FAD6D9730E02053310984E6829F4F
:10464000A001839F500D11246E962FAD6E9730E020
:10465000205331096AE0629FC001639F900D1124CD
:10466000840F951F6F962FAD6F9730E0205331095F
:10467000820F931F02C084E690E09093040580931C
:10468000030582E380930A050E94311E0E94171ED3
:1046900061E085E00E940C0D61E08DE00E940C0D50
:1046A00060E08BE00E940C0D60E08CE00E940C0D3D
:1046B00060E083E00E940C0D60E087E00E940C0D3A
:1046C00060E086E00E940C0D60E083E00E940C0D2B
:1046D00061E083E00E94DC0C61E082E00E940C0D4E
:1046E00061E082E00E94DC0C61E085E00E94DC0C6D
:1046F0000E94311E0E94171E6DEE71E085E194E06C
:104700000E94D0154AE256E160E070E083EF91E04C
:104710000E94391A4EE359E161E070E08BEF91E0BD
:104720000E94391A44E859E162E070E083E092E0C7
:104730000E94391AE0914E03F0914F03099567E604
:1047400077E183E090E00E941A1A65EA78E082E05F
:1047500090E00E941A1A67E87AE084E090E00E94F4
:104760001A1A66EF7AE085E090E00E941A1A0E9419
:104770000E0E6093D0037093D1038093D203909375
:10478000D3030E940E0E6093D4037093D5038093DD
:10479000D6039093D70328EE422E23E0522E612CAD
:1047A000712C06E211E032E0A32E35E0B32E0E9418
:1047B0000E0EC090D403D090D503E090D603F090B5
:1047C000D703DC01CB018C199D09AE09BF090B97FA
:1047D000A105B10578F184E090E00E94FF1987E01F
:1047E0000E94B30C019751F46CE072E085E194E013
:1047F0000E94D01582E090E00E94FF1986E00E949E
:10480000B30C019721F483E090E00E94FF1983E04C
:104810000E94B30C892B21F485E090E00E94FF19DF
:104820000E940E0E6093D4037093D5038093D60339
:104830009093D7030E940E0EC090D003D090D10366
:10484000E090D203F090D303DC01CB018C199D09D9
:10485000AE09BF0981369A4EA105B10508F408C218
:1048600061E172E085E194E00E94D01542EF65EBD2
:1048700087E20E94881B42EF65EB87E20E949A1B49
:1048800027E030E048E250E060E070E080E090E057
:104890000E94451B27E030E044E150E060E070E01A
:1048A00086E490E00E94451B27E030E048E250E0BB
:1048B00060E070E088E790E00E94451B27E030E070
:1048C00048E250E069E770E080E090E00E94451B1C
:1048D00027E030E044E150E069E770E086E490E0F2
:1048E0000E94451B27E030E048E250E069E770E0B5
:1048F00088E790E00E94451B4DE466EE8FEF0E9432
:10490000881B4DE466EE8FEF0E949A1B27E030E093
:104910004EE150E060E070E088E290E00E94451BCC
:1049200027E030E04EE150E060E070E08AE590E0A2
:104930000E94451B27E030E04EE150E069E770E05F
:104940008AE590E00E94451B27E030E04EE150E010
:1049500069E770E088E290E00E94451B1C821B82A0
:104960004D825E826F8278861A830983BE86AD8609
:104970001A8A1B8A1C8A67E172E0CE018B5A9F4F0C
:104980000E94CC12BE016B5A7F4FCE0101960E944D
:10499000CD077C01CE018B5A9F4F0E94C712EF2892
:1049A000F1F4CE0101960E94A5078111FACF96E697
:1049B000E92E93E0F92ECE0101960E94D9098B8948
:1049C000882369F0CE0101960E941C0AD7018D93BD
:1049D0007D01682F85E194E00E949015ECCF1A8349
:1049E0000983CE0101960E947B0766EE71E086E6A0
:1049F00093E00E9442299093CB038093CA0366EE12
:104A000071E080E090E00E9442299093CD03809372
:104A1000CC0366EE71E080E090E00E944229909322
:104A2000CF038093CE038AECE82E83E0F82E69E46E
:104A300072E0F701819191917F010E9442296C01FE
:104A40006BE472E00E943229892B61F566EE71E019
:104A500080E090E00E944229909305018093040138
:104A600040E060E080E00E94881B40E060E080E081
:104A70000E949A1B24E130E040E550E06AE070E0DB
:104A800081E490E00E94451B4FEF6FEF8FEF0E9493
:104A9000881B4AE050E061E470E08091040190914D
:104AA000050165C066E572E0C6010E943229892BC6
:104AB00061F566EE71E080E090E00E9442299093FB
:104AC0000301809302014FEF6FEF8FEF0E94881B6D
:104AD0004FEF6FEF8FEF0E949A1B24E130E040E52B
:104AE00050E067E370E08CE390E00E94451B43E4F4
:104AF00063E487EF0E94881B47E350E06CE370E0BB
:104B0000809102019091030132C061E672E0C6011A
:104B10000E943229892B69F566EE71E080E090E011
:104B20000E94422990930101809300014FEF6FEFA3
:104B30008FEF0E94881B4FEF6FEF8FEF0E949A1B41
:104B400024E130E040E550E064E670E08CE390E082
:104B50000E94451B42EF65EB87E20E94881B44E6FA
:104B600050E06CE370E080910001909101010E949F
:104B70003B1CF0EDEF16F3E0FF0609F058CF6CE6B2
:104B800072E085E194E00E94D0150E940E0E6093C1
:104B9000D0037093D1038093D2039093D303809179
:104BA00064039091650381309105E1F064F4892BF1
:104BB00009F05EC040E060E080E00E94881B40E0B9
:104BC00060E080E035C08230910549F1039709F03B
:104BD0004FC04FEF6FEF8FEF0E94881B4FEF6FEFCB
:104BE0008FEF26C042EF65EB87E20E94881B42EF01
:104BF00065EB87E20E949A1B27E030E048EC50E02A
:104C000060E070E080E090E00E94451B42EF65EBC1
:104C100087E20E94881B42EF65EB87E21DC00E947D
:104C2000601A80916203909163030E943E0A20C043
:104C30000E949A1B27E030E048EC50E060E070E012
:104C400080E090E00E94451B4FEF6FEF8FEF0E94D6
:104C5000881B4FEF6FEF8FEF0E949A1B27E030E029
:104C600048EC50E069E770E080E090E00E94451B6E
:104C70006AE070E080E090E00E94480D0E945A0BCC
:104C800096CDCF92DF92EF92FF920F931F93CF9327
:104C9000DF931F92CDB7DEB7182F062FE42E862F95
:104CA000880F8E5F99830E944C1183E00E944C1103
:104CB000F12EC12E9981D92E8C2D8F19801798F441
:104CC000F601E7FE02C0849101C080810E944C1170
:104CD000182F80E00E944C118123FFEFCF1ADF0ACA
:104CE0008111EACF01C081E00F90DF91CF911F9138
:104CF0000F91FF90EF90DF90CF900895E5E6F4E0FC
:104D00001382128248EE53E060E070E044835583E2
:104D1000668377838DE391E0918380838DEC90E0CF
:104D2000958784878CEC90E09787868788EC90E065
:104D3000918B808B89EC90E0938B828B8AEC90E056
:104D4000958B848B8EEC90E0978B868B118E128ED8
:104D5000138E148EA5E1B4E013961C921E92129746
:104D600014964D935D936D937C9317978DE491E02A
:104D700011969C938E932FEF3FEF1D963C932E93AD
:104D80001C97A2E0B5E01C921696FC93EE93159743
:104D900017961C92179718961C9218971A96FC93C0
:104DA000EE931997EDE0F5E01382128240E850E0AF
:104DB0005583448360EA70E077836683158A15869D
:104DC00014861786168681E0848B338B228B318B79
:104DD000208B868B90E5978F10A29AE091A799E09F
:104DE00092A798E093A7868F15A614A685E791E071
:104DF000918380837187608753874287089597FBEB
:104E0000072E16F4009407D077FD09D00E941927C9
:104E100007FC05D03EF4909581959F4F08957095BD
:104E200061957F4F0895EE0FFF1F0590F491E02DDF
:104E30000994AA1BBB1B51E107C0AA1FBB1FA617E1
:104E4000B70710F0A61BB70B881F991F5A95A9F733
:104E500080959095BC01CD010895CF93DF9382306A
:104E6000910510F482E090E0E0915405F091550531
:104E700020E030E0C0E0D0E0309711F14081518176
:104E800048175907C0F04817590761F48281938188
:104E9000209719F09B838A832BC0909355058093AC
:104EA000540526C02115310519F04217530718F48F
:104EB0009A01BE01DF01EF010280F381E02DDCCF1A
:104EC0002115310509F1281B390B2430310590F4E7
:104ED00012968D919C9113976115710521F0FB013C
:104EE0009383828304C09093550580935405FD01FC
:104EF000329644C0FD01E20FF31F8193919322503B
:104F000031092D933C933AC02091520530915305BD
:104F1000232B41F420911401309115013093530556
:104F20002093520520911201309113012115310572
:104F300041F42DB73EB74091160150911701241B43
:104F4000350BE0915205F0915305E217F307A0F4F9
:104F50002E1B3F0B2817390778F0AC014E5F5F4FCF
:104F60002417350748F04E0F5F1F509353054093A9
:104F700052058193919302C0E0E0F0E0CF01DF9110
:104F8000CF9108950F931F93CF93DF93009709F468
:104F90008CC0FC013297138212820091540510914B
:104FA00055050115110581F420813181820F931F70
:104FB00020915205309153052817390779F5F09360
:104FC0005305E093520571C0D80140E050E0AE17A0
:104FD000BF0750F412962D913C911397AD01211506
:104FE000310509F1D901F3CF9D01DA013383228321
:104FF00060817181860F971F8217930769F4EC0116
:1050000028813981260F371F2E5F3F4F3183208340
:105010008A819B8193838283452B29F4F0935505E4
:10502000E093540542C01396FC93EE931297ED0162
:10503000499159919E01240F351FE217F30771F42E
:1050400080819181840F951F029611969C938E9377
:105050008281938113969C938E931297E0E0F0E007
:10506000D80112968D919C911397009719F0F80131
:105070008C01F6CF8D919C9198012E5F3F4F820F4E
:10508000931F20915205309153052817390769F471
:10509000309729F4109255051092540502C01382DE
:1050A00012821093530500935205DF91CF911F9107
:1050B0000F910895A0E0B0E0E0E6F8E20C947229C8
:1050C000EC01009721F4CB010E942D27B8C0FC0110
:1050D000E60FF71F9C0122503109E217F30708F48D
:1050E000ACC0D9010D911C91119706171707B0F0AC
:1050F0000530110508F49FC0C8010497861797076B
:1051000008F499C002501109061B170B0193119363
:105110006D937C93CF010E94C2278DC05B01A01AC2
:10512000B10A4C01800E911EA0915405B091550515
:1051300040E050E0E12CF12C109709F44AC0A8158A
:10514000B905D1F56D907C901197630182E0C80E8E
:10515000D11CCA14DB0480F1A3014A195B096A015E
:1051600082E0C80ED11C1296BC9012971396AC9197
:10517000B5E0CB16D10440F0B282A38351834083C3
:10518000D9016D937C930AC00E5F1F4FC301800F3E
:10519000911FF90191838083EB2DFA2FE114F10423
:1051A00031F0D7011396FC93EE93129744C0F0931D
:1051B0005505E09354053FC08D919C911197481778
:1051C000590708F4AC017D0112960D90BC91A02DF9
:1051D000B3CF809152059091530588159905E1F45C
:1051E00046175707C8F48091120190911301009758
:1051F00041F48DB79EB74091160150911701841B61
:10520000950BE817F907C8F4F0935305E09352059E
:10521000F901718360830FC0CB010E942D277C01AF
:10522000009759F0A801BE010E942929CE010E94D1
:10523000C227C70104C0CE0102C080E090E0CDB714
:10524000DEB7EEE00C948E2981E090E0F8940C94A7
:10525000A529FB01DC0102C001900D924150504094
:10526000D8F70895FB01DC018D91019080190110A0
:10527000D9F3990B0895FB01DC0101900D920020F8
:10528000E1F7089540E555E00E9447290895FA01A5
:10529000A191B081009719F41097E1F0CD01DC01E4
:1052A000CD010D90002011F4C00113C0FB0121912C
:1052B000222319F02015D9F7F3CFFB0121912015F6
:1052C00019F41E92119606C02223C1F70D900020FA
:1052D000A1F7D001FA01A193B08308952F923F92D4
:1052E0004F925F926F927F928F929F92AF92BF92F6
:1052F000CF92DF92EF92FF920F931F93CF93DF93A2
:10530000CDB7DEB7CA1BDB0B0FB6F894DEBF0FBEFE
:10531000CDBF09942A88398848885F846E847D844B
:105320008C849B84AA84B984C884DF80EE80FD804D
:105330000C811B81AA81B981CE0FD11D0FB6F894C3
:0E534000DEBF0FBECDBFED010895F894FFCF84
:10534E0074027D027902FFFFFFFF00E10000000002
:10535E0000000000560580005858585858585831CB
:10536E003030000000005607AE11340A1C0A090A3C
:10537E008D0600C18081000000000000003712AED3
:10538E00114E0BD911ED117E1200000000640B823C
:10539E000D850B740C500C7A0B00000000F110AE52
:1053AE0011F110F110F110F11000000000F110AE2B
:1053BE001100000000EB03AE119710E3052810BAA0
:1053CE000F9405360F010CE10EDA032F62696E2F72
:1053DE00617368002D63005368617265206D6F64A0
:1053EE006500657870697265640072756279207EF9
:1053FE002F2E74656E7461636C652F7363726970A2
:10540E0074732F64656C6574655F74656E74616327
:10541E006C65735F73686172696E672E726200727B
:10542E0069676874000D0A006C65667400536574D4
:10543E00757000436F6E76657274004265657069B3
:10544E006E6700426C696E6B696E67006261636BBA
:10545E0000636865636B0072756279207E2F2E740F
:10546E00656E7461636C652F736372697074732FEC
:10547E006765745F74656E7461636C65735F776F77
:10548E00726B6572732E7262003D00766172436FAD
:10549E007374437A6B00766172436F7374457572E1
:1054AE0000766172436F737455736400706172732A
:1054BE00696E6700312E31310032372E3031005592
:1054CE0053443A20004555523A2000435A4B00743B
:1054DE00696D65536861726500636F6465006F6620
:1054EE00660073686172650047656E657261746906
:1054FE006E6700636F64652E2E2E007275627920C2
:10550E007E2F2E74656E7461636C652F7363726982
:10551E007074732F7075745F74656E7461636C65EF
:10552E00735F73686172696E672E7262004D617887
:10553E00696D756D206F6620686F6F6B7320696E75
:10554E00206D656E7520697320004D6178696D75EB
:10555E006D206F66206974656D7320696E206D65B0
:10556E006E75206973200057726F6E6720696E64C6
:0C557E00657821004D656E7500FE000090
:00000001FF
