:100000000C949A030C94C2030C94C2030C94C20384
:100010000C94C2030C94C2030C94C2030C94C2034C
:100020000C94C2030C94C2030C94CF0F0C94411097
:100030000C94C2030C94C2030C94C2030C94C2032C
:100040000C94C2030C94C2030C94C2030C94C2031C
:100050000C94C2030C94C2030C94C2030C94D508F4
:100060000C94C2030C94C8120C94A2120C94C203F8
:100070000C94C2030C94C2030C94C2030C94C203EC
:100080000C94C2030C94C2030C94C2030C94C203DC
:100090000C94C2030C94C2030C94C2030C94C203CC
:1000A0000C94C2030C94C2030C94C203CB07CE077A
:1000B000BD07C107C507EF07EF07EF07D207D60750
:1000C000DA07E007E407EF07EA0700000000003E58
:1000D0005B4F5B3E3E6B4F6B3E1C3E7C3E1C183CB8
:1000E0007E3C181C577D571C1C5E7F5E1C00183C14
:1000F0001800FFE7C3E7FF0018241800FFE7DBE75D
:10010000FF30483A060E2629792926407F05050743
:10011000407F05253F5A3CE73C5A7F3E1C1C08089F
:100120001C1C3E7F14227F22145F5F005F5F060964
:100130007F017F006689956A606060606094A2FFBD
:10014000A29408047E040810207E201008082A1CAF
:1001500008081C2A08081E101010100C1E0C1E0C7B
:1001600030383E3830060E3E0E060000000000001B
:10017000005F00000007000700147F147F14242A8A
:100180007F2A12231308646236495620500008075C
:100190000300001C2241000041221C002A1C7F1C7D
:1001A0002A08083E0808008070300008080808087F
:1001B000000060600020100804023E5149453E00E6
:1001C000427F400072494949462141494D33181444
:1001D000127F1027454545393C4A49493141211193
:1001E00009073649494936464949291E0000140085
:1001F00000004034000000081422411414141414A8
:10020000004122140802015909063E415D594E7C05
:100210001211127C7F494949363E414141227F41BA
:1002200041413E7F494949417F090909013E414118
:1002300051737F0808087F00417F41002040413F03
:10024000017F081422417F404040407F021C027F12
:100250007F0408107F3E4141413E7F090909063E67
:100260004151215E7F091929462649494932030136
:100270007F01033F4040403F1F2040201F3F403848
:10028000403F631408146303047804036159494D23
:1002900043007F4141410204081020004141417F59
:1002A00004020102044040404040000307080020CF
:1002B000545478407F2844443838444444283844CF
:1002C00044287F385454541800087E090218A4A406
:1002D0009C787F0804047800447D40002040403D25
:1002E000007F1028440000417F40007C047804789F
:1002F0007C080404783844444438FC182424181832
:10030000242418FC7C08040408485454542404048D
:100310003F44243C4040207C1C2040201C3C40307A
:10032000403C44281028444C9090907C4464544CA9
:100330004400083641000000770000004136080004
:1003400002010204023C2623263C1EA1A161123AAE
:100350004040207A385454555921555579412154FB
:10036000547841215554784020545579400C1E5200
:1003700072123955555559395454545939555454A4
:10038000580000457C410002457D420001457C400B
:10039000F0292429F0F0282528F07C545545002028
:1003A00054547C547C0A097F4932494949323248C5
:1003B000484832324A4848303A4141217A3A42402C
:1003C0002078009DA0A07D39444444393D40404000
:1003D0003D3C24FF2424487E4943662B2FFC2F2BD1
:1003E000FF0929F620C0887E090320545479410072
:1003F00000447D413048484A32384040227A007AF1
:100400000A0A727D0D19317D2629292F28262929CE
:10041000292630484D4020380808080808080808F0
:10042000382F10C8ACBA2F102834FA00007B000017
:1004300008142A142222142A1408AA005500AAAA71
:1004400055AA55AA000000FF00101010FF00141458
:1004500014FF001010FF00FF1010F010F01414141F
:10046000FC001414F700FF0000FF00FF1414F40454
:10047000FC141417101F10101F101F1414141F0049
:10048000101010F0000000001F101010101F1010AE
:100490001010F010000000FF1010101010101010BD
:1004A00010FF10000000FF140000FF00FF00001FFD
:1004B00010170000FC04F414141710171414F4049B
:1004C000F40000FF00F714141414141414F700F7C8
:1004D000141414171410101F101F141414F41410F3
:1004E00010F010F000001F101F0000001F1400008B
:1004F00000FC140000F010F01010FF10FF14141492
:10050000FF141010101F00000000F010FFFFFFFF8D
:10051000FFF0F0F0F0F0FFFFFF0000000000FFFF31
:100520000F0F0F0F0F38444438447C2A2A3E147EA4
:1005300002020606027E027E026355494163384488
:10054000443C04407E201E2006027E020299A5E75C
:10055000A5991C2A492A1C4C7201724C304A4D4DF7
:10056000303048784830BC625A463D3E49494900DF
:100570007E0101017E2A2A2A2A2A44445F444440FB
:10058000514A444040444A51400000FF0103E0808A
:10059000FF000008086B6B083612362436060F0978
:1005A0000F06000018180000001010003040FF0176
:1005B00001001F01011E00191D1712003C3C3C3CAC
:1005C00000000000000000000200090F000003040A
:1005D00001000C000000000000000000000000000E
:1005E0000000000072756E2D6272696467650A0012
:1005F0000A000A0013018032118064260104B1024E
:100600000B14C0020800C10105C5024130C701C179
:10061000EC011B3A8155642A040000007F2B040082
:1006200000009F3601C8B70100F20100E08F2824C6
:1006300022312B0E53A5421618121A140332E18FE1
:10064000171B1D0E14112CA53D09272D252B3C32FF
:1006500013800A2980FF080B00020202010009042E
:100660000000010202000005240010010524010120
:100670000104240206052406000107058103100079
:100680004009040100020A000000070502024000C0
:1006900000070583024000000403090441726475E9
:1006A000696E6F204C4C430041726475696E6F2017
:1006B00059756E0012010002000000404123418084
:1006C00000010102030112010002EF020140412377
:1006D0004180000101020301000000002500280004
:1006E0002B002E00310000000000240027002A000B
:1006F0002D00300004040404040304050202020275
:1007000004030202020206060606060604040202AA
:100710000204040408020110408040102040804080
:100720008008020401804020100201108010204047
:100730004020BE1911241FBECFEFDAE0DEBFCDBFCF
:1007400012E0A0E0B1E0EEE7F9E302C005900D92FF
:10075000AA38B107D9F724E0AAE8B2E001C01D9297
:10076000A434B207E1F713E0CAE9D3E004C021974B
:10077000FE010E943F1AC939D107C9F70E9401152D
:100780000C94BD1C0C940000FC01918D228D892FCE
:1007900090E0805C9F4F821B91098F739927089589
:1007A00080E090E0892B29F00E941B0F81110C94AE
:1007B00000000895CF93DF931F92CDB7DEB7698312
:1007C000DC01ED91FC910280F381E02D41E050E0ED
:1007D000BE016F5F7F4F09950F90DF91CF91089514
:1007E00083E08093E9008091F200882319F08AE386
:1007F0008093E8000895FC018485958597FD0BC0E2
:100800009FB7F89482E08093E9008091F2009FBF47
:1008100090E0019608959FB7F89482E08093E900F4
:100820008091F2009FBF90E008953FB7F8948091C7
:100830008F0290919002A0919102B091920226B500
:10084000A89B05C02F3F19F00196A11DB11D3FBF08
:10085000BA2FA92F982F8827820F911DA11DB11D96
:10086000BC01CD0142E0660F771F881F991F4A9592
:10087000D1F70895EF92FF920F931F93DC01ED9152
:10088000FC9111971A960D911C911B9718962D911A
:100890003C9119970684F785E02D7B0140E050E0FC
:1008A00060E070E009951F910F91FF90EF9008951F
:1008B000FC01868D882339F06EBD00000DB407FE63
:1008C000FDCF8EB5089528E030E090E8A1A1B2A157
:1008D00086A5492F462319F04C91842B03C04C91D7
:1008E000809584238C93A3A1B4A14C9187A5842BDC
:1008F0008C93A3A1B4A14C9187A5809584238C935C
:1009000096952150310911F7089508958CBD9DBD2C
:1009100008954C7F38E0439FC001112430E043E04C
:10092000359527954A95E1F7822B932B687F962B77
:10093000089508952F923F924F925F926F927F9207
:100940008F929F92AF92BF92CF92DF92EF92FF92DF
:100950000F931F93CF93DF93CDB7DEB72D970FB6CD
:10096000F894DEBF0FBECDBFFC016A3069F4248964
:100970008685978538E0239F800D911D11249787E8
:10098000868715861486E4C06D3009F4E1C09D8722
:100990008C8754895983828993899D838C83A0890C
:1009A000B189BF83AE8386849784C484D5848085CF
:1009B0009185C816D906BCF0EC85FD854489242FA5
:1009C00030E084859585F6E04F9F800D911D1124C0
:1009D000AC85BD851D969C938E931C9756964C9125
:1009E000411192C0B5C0EC85FD858285938588163E
:1009F000990614F7F981AF2EB12CC60126E0F29FBB
:100A0000800D911D112418161906B4F6C50123E0B6
:100A1000880F991F2A95E1F7880D991D1816190658
:100A20005CF655E0659FB001112416011A82CB01D6
:100A30008C199D0999878887D4011896BB87AA8746
:100A4000BA81B53049F0E885F985E20DF31DE6532A
:100A5000FF4F24912B8301C01B82240134013B8171
:100A600030FF13C0AC85BD85ED91FC91B981B130EB
:100A700031F40480F581E02D2E813F8119C0068478
:100A8000F785E02DEE80FF801EC0EC81FD812E8178
:100A90003F81E217F307F1F0AC85BD85ED91FC9144
:100AA000B981B13059F40480F581E02D2C813D816C
:100AB000A301B1018C859D8509950CC00684F7853D
:100AC000E02DEC80FD8085019501A201B6018C85A9
:100AD0009D850995EB81E695EB83FFEF6F1A7F0A01
:100AE0004A0C5B1C2A853B856216730609F0B7CF5A
:100AF0003A813F5F3A835FEF251A350ACA0CDB1C47
:100B0000363009F09DCF58CF4AEF4203B001439FE2
:100B1000700D1124AC85BD8518964D915C91199787
:100B2000460F571F481759079CF483E0220F331FC5
:100B30008A95E1F71E968D919C911F97280F391F7A
:100B40001F963C932E931E971D961C921E921C97E7
:100B500081E090E02D960FB6F894DEBF0FBECDBFBA
:100B6000DF91CF911F910F91FF90EF90DF90CF9089
:100B7000BF90AF909F908F907F906F905F904F90BD
:100B80003F902F900895EF92FF920F931F93DC01F7
:100B9000ED91FC9111971A960D911C911B97189647
:100BA0002D913C9119970684F785E02D7B0140E05B
:100BB00050E060E070E009951F910F91FF90EF9079
:100BC00008956F927F928F929F92AF92BF92CF9231
:100BD000DF92EF92FF920F931F93CF93DF936C01FD
:100BE0005A014801EB013B01620E731EC615D70581
:100BF00074F4D601ED91FC910084F185E02D87011C
:100C00009401A501BE01C60109952196EFCFDF91A0
:100C1000CF911F910F91FF90EF90DF90CF90BF90F9
:100C2000AF909F908F907F906F900895EF92FF927A
:100C30000F931F93DC01ED91FC91260F371F21507C
:100C400031090680F781E02D78018A0109951F910D
:100C50000F91FF90EF900895EF92FF920F931F93E3
:100C60007801DC01ED91FC91240F351F89010150C1
:100C700011090680F781E02D9B0109951F910F91C5
:100C8000FF90EF9008956F927F928F929F92AF9214
:100C9000BF92CF92DF92EF92FF920F931F93CF9369
:100CA000DF93EC014B015A0169013801E881F981B8
:100CB0000284F385E02D87010995E881F981A5017A
:100CC000460D571D415051090284F385E02D9601D0
:100CD000B401CE010995E881F9810084F185E02D08
:100CE0009301A501B401CE010995E881F981C80CF1
:100CF000D91CB601615071090084F185E02D930182
:100D0000A501CE010995DF91CF911F910F91FF9021
:100D1000EF90DF90CF90BF90AF909F908F907F909B
:100D20006F9008952F923F924F925F926F927F92B1
:100D30008F929F92AF92BF92CF92DF92EF92FF92EB
:100D40000F931F93CF93DF9300D01F92CDB7DEB7E1
:100D50004C017B836A836A01590117019801241BA6
:100D6000350B37FF03C0319521953109C5014A8103
:100D70005B81841B950B97FF03C091958195910929
:100D800051E059838217930714F019820BC09A2DF2
:100D90008B2D5801092F182F9A818B81DB82CA82F3
:100DA000C92ED82E8A819B81A816B9065CF49C2D89
:100DB0008D2D6801092F182F9A818B81BB82AA8201
:100DC000A92EB82E2501AA81BB814A1A5B0A3801D7
:100DD0006C187D0877FE03C07194619471087201EC
:100DE00057FE03C0BFEFEB1AFB0AF594E794C01659
:100DF000D1061CF00FEF1FEF1FC001E010E01CC078
:100E0000D401ED91FC91B9810480F581E02D91012F
:100E1000BB23C1F04A815B81B601C4010995E61884
:100E2000F708F7FE04C0C00ED11EE40CF51CEA81E1
:100E3000FB813196FB83EA834A815B81A416B50668
:100E4000FCF604C0A6016A817B81E7CF0F900F906A
:100E50000F90DF91CF911F910F91FF90EF90DF9056
:100E6000CF90BF90AF909F908F907F906F905F904A
:100E70004F903F902F9008950895CF93DF931F9246
:100E8000CDB7DEB7FC018485958597FD05C02FEFB2
:100E90003FEF358724870BC0CE0101960E94C31413
:100EA000019719F4898190E002C08FEF9FEF0F90B6
:100EB000DF91CF9108950F931F93CF93DF931F92EC
:100EC000CDB7DEB78C01FC018485958597FF0EC0F8
:100ED000CE0101960E94C314019719F4298130E0D4
:100EE00002C02FEF3FEFF80135872487F801848592
:100EF00095850F90DF91CF911F910F910895FC017F
:100F0000848DDF01A80FB11DA35ABF4F2C91848D92
:100F100090E001968F739927848FA689B7892C93C7
:100F2000A089B1898C9180648C93938D848D981362
:100F300006C00288F389E02D80818F7D808308952B
:100F4000362F90E0FC01EB53FA4F4491FC01ED5E2B
:100F5000F84F2491FC01EC50F94F8491882309F457
:100F600051C04423E1F150E0FA013197EF30F1052F
:100F7000B0F5EA5AFF4F0C943F1A909180009F778A
:100F800007C0909180009F7D03C090918000977F63
:100F90009093800024C094B59F7702C094B59F7D44
:100FA00094BD1DC0909190009F7707C090919000D4
:100FB0009F7D03C090919000977F909390000FC009
:100FC0009091C0009F7703C09091C0009F7D909347
:100FD000C00005C09091C200977F9093C200E82F97
:100FE000F0E0EE0FFF1FE852F94FA591B4918FB7D3
:100FF000F894EC91311103C020952E2301C02E2BC3
:101000002C938FBF08958F929F92AF92BF92CF92F1
:10101000DF92EF92FF926B017C010E9415044B015D
:101020005C01C114D104E104F104F1F00E94150443
:10103000DC01CB0188199909AA09BB09883E9340B4
:10104000A105B10570F321E0C21AD108E108F10849
:1010500088EE880E83E0981EA11CB11CC114D10437
:10106000E104F10419F7DDCFFF90EF90DF90CF900E
:10107000BF90AF909F908F9008958F929F92AF9264
:10108000BF92CF92DF92EF92FF920F931F93CF9375
:10109000DF935C016B018A0180910B01882309F4C5
:1010A0005EC080910503882309F459C080919402A1
:1010B00080FF05C08091E00082608093E000E8013D
:1010C0008AEFF82E93E0E92E2FE3822E3AE3932E57
:1010D000209709F43DC08FB7F894E092E900909111
:1010E000E80095FF06C09091F200282D291B922F51
:1010F00001C090E08FBF91110AC0FA94FF2079F1EE
:1011000061E070E080E090E00E940308E1CF292FC9
:1011100030E0C217D3070CF49C2F8FB7F894E092FD
:10112000E9002091E80025FF11C0292F30E0C21B03
:10113000D30BF601915020F041914093F100FACF8A
:10114000C20ED31E9091E80095FF13C08FBFC0CF91
:101150005D9884E68093FE021016110644F081E04B
:1011600090E0F5019383828380E090E005C0C801A0
:1011700003C09092E800EACFDF91CF911F910F91C9
:10118000FF90EF90DF90CF90BF90AF909F908F90A7
:1011900008952FB7F89460918B0270918C02809122
:1011A0008D0290918E022FBF08951F920F920FB65D
:1011B0000F9211242F933F938F939F93AF93BF93DD
:1011C00080918B0290918C02A0918D02B0918E0241
:1011D00030918A0223E0230F2D3720F40196A11DC0
:1011E000B11D05C026E8230F0296A11DB11D209355
:1011F0008A0280938B0290938C02A0938D02B0930D
:101200008E0280918F0290919002A0919102B091F4
:1012100092020196A11DB11D80938F0290939002BE
:10122000A0939102B0939202BF91AF919F918F9141
:101230003F912F910F900FBE0F901F9018950F9315
:101240001F93CF93DF931F92CDB7DEB78C01DC01E4
:101250005E968C915E97882341F05F968D919C916C
:10126000909769830E9486046981D8019796ED91D1
:10127000FC9198979081D1968C91D197892B8083FE
:101280009596ED91FC9196979081D0968C91809552
:1012900089238083C8010E945804D8019596ED9156
:1012A000FC9196979081D0968C91892B80830F909A
:1012B000DF91CF911F910F9108950F931F93CF93BB
:1012C000DF931F92CDB7DEB78C01DC015E968C9167
:1012D0005E97882341F05F968D919C9190976983EA
:1012E0000E9486046981D8019796ED91FC919897A8
:1012F0009081D1968C91D197809589238083959602
:10130000ED91FC9196979081D0968C918095892350
:101310008083C8010E945804D8019596ED91FC91F4
:1013200096979081D0968C91892B80830F90DF9136
:10133000CF911F910F910895611102C060E201C029
:1013400061E20C945D09EF92FF920F931F93CF938C
:10135000DF9300D0CDB7DEB77C01162F6AE2298378
:101360004A830E945D0960E0C7010E941F09F701DE
:1013700082A9612F680FC7010E941F0960E0C701A1
:101380000E941F09F70182A92981622F680FC701F6
:101390000E941F096BE2C7010E945D0960E0C7015E
:1013A0000E941F09F70183A94A81642F680FC701B2
:1013B0000E941F0960E0C7010E941F09F70183A96D
:1013C000602F680FC7010E941F096CE2C7010F90D0
:1013D0000F90DF91CF911F910F91FF90EF900C94A0
:1013E0005D09AF92BF92CF92DF92EF92FF920F937F
:1013F0001F93CF93DF93EC0159016801288539854C
:10140000621773070CF066C08A859B8548175907D9
:101410000CF060C0FB01EA0DFB1D2E173F071CF40A
:101420005901A61AB70A9A012C0D3D1D8217930780
:101430001CF46C01C41AD50A8D8D823091F4970189
:10144000207E3770C701982F8827990F990F990F21
:10145000822B932BEF2CFF24E694E694E694E82A63
:10146000F92A0FEF040F0C0D2FEF260F2A0DCE01D6
:101470000E94A3098E8D882321F08F8D98A10E9450
:101480008604EFA1F8A5908189A9892B8083EDA11D
:10149000FEA1908188A98095892380831C141D0456
:1014A0009CF48501101611065CF46F2DCE010E948C
:1014B00058046E2DCE010E94580401501109F2CF3C
:1014C00081E0C81AD108EACFEDA1FEA1908188A9D8
:1014D000892B8083DF91CF911F910F91FF90EF9027
:1014E000DF90CF90BF90AF900895CF92DF92EF92B0
:1014F000FF920F931F93CF93DF93EC016901780163
:1015000088859985681779070CF054C02A853B8532
:10151000421753070CF04EC09B012C0D3D1D821746
:1015200093071CF46C01C61AD70A2FEF260F2C0D57
:10153000042FCE010E94A3098D8D823091F4970172
:10154000207E3770C701982F8827990F990F990F20
:10155000822B932BEF2CFF24E694E694E694E82A62
:10156000F92A8E8D882321F08F8D98A10E94860400
:10157000EFA1F8A5908189A9892B8083EDA1FEA117
:10158000908188A9809589238083C114D10461F05A
:101590006F2DCE010E9458046E2DCE010E9458047A
:1015A00081E0C81AD108F1CFEDA1FEA1908188A9F0
:1015B000892B8083DF91CF911F910F91FF90EF9046
:1015C000DF90CF900895CF92DF92EF92FF920F932A
:1015D0001F93CF93DF93EC0169017801888599858A
:1015E000681779070CF055C08A859B8548175907FD
:1015F0000CF04FC09A012C0D3D1D821793071CF46F
:101600006C01C41AD50A0FEF040F0C0D262FCE0162
:101610000E94A3098D8D823091F49701207E37704E
:10162000C701982F8827990F990F990F822B932B19
:10163000EF2CFF24E694E694E694E82AF92A0F2D8D
:101640008E8D882321F08F8D98A10E948604EFA1B2
:10165000F8A5908189A9892B8083EDA1FEA19081B5
:1016600088A9809589238083C114D10461F0602FFB
:10167000CE010E9458046E2DCE010E94580481E0D4
:10168000C81AD108F1CFEDA1FEA1908188A9892BBC
:101690008083DF91CF911F910F91FF90EF90DF90AA
:1016A000CF900895EF92FF920F93CF93DF93EC01C9
:1016B000790177FD4BC088859985681779070CF00B
:1016C00045C057FD43C08A859B8548175907F4F5E7
:1016D00001E0040F21E0260FCE010E94A3098E8DA8
:1016E000882321F08F8D98A10E948604EFA1F8A590
:1016F000908189A9892B8083EDA1FEA1908188A981
:101700008095892380838D8D823091F49701207E8E
:101710003770C701982F8827990F990F990F822B3F
:10172000932BEF2CFF24E694E694E694E82AF92A1A
:101730006F2DCE010E9458046E2DCE010E945804D8
:10174000EDA1FEA1908188A9892B8083DF91CF91A3
:101750000F91FF90EF900895CF93DF93EC018D816F
:101760009E81DC01ED91FC910480F581E02D0995CD
:101770001816190654F48D819E81DC01ED91FC91BF
:101780000680F781E02D0995EACFDF91CF9108958A
:101790008F929F92AF92BF92CF92DF92EF92FF9281
:1017A000CF93DF93EC016B010E94C9084B015C01F0
:1017B000E12CF12C8D819E81DC01ED91FC91068064
:1017C000F781E02D099597FF0FC00E94C908DC0141
:1017D000CB0188199909AA09BB098C159D05AE058D
:1017E000BF0540F38FEF9FEFDF91CF91FF90EF9018
:1017F000DF90CF90BF90AF909F908F900895FC01A5
:10180000238134812627022E2295207F2025032E36
:10181000322F22952F700226269532272327220F5A
:10182000220F220F2025348323830895CF92DF9245
:10183000EF92FF920F931F936801790100E010E08F
:1018400020E030E00E94FA121F910F91FF90EF907C
:10185000DF90CF9008950F931F93CF93DF9300D025
:101860001F92CDB7DEB729E42983FC0126852A83A0
:101870006B8300E010E020E030E043E050E0BE0188
:101880006F5F7F4F848595850E94160C81E090E004
:101890000F900F900F90DF91CF911F910F910895AE
:1018A000EF92FF920F931F93CF93DF9300D0CDB7AA
:1018B000DEB77C01FC018189882389F087E7898371
:1018C00086858A8300E010E020E030E042E050E0CE
:1018D000BE016F5F7F4F848595850E94160CF701CE
:1018E000118A0F900F90DF91CF911F910F91FF9070
:1018F000EF9008950F931F93CF93DF9300D01F9223
:10190000CDB7DEB722E72983FC0126852A8301E0D3
:1019100010E09E012D5F3F4F42E050E0BE016F5F3F
:101920007F4F848595850E94160C81E09B819130C4
:1019300009F080E00F900F900F90DF91CF911F91F1
:101940000F9108958F929F92AF92BF92CF92DF92A4
:10195000EF92FF920F931F93CF93DF93CDB7DEB734
:1019600028970FB6F894DEBF0FBECDBF5C017B0198
:1019700065E871E0CE0101964C010E94BA0FC501E5
:101980000E94500C86E090E00E94451A8C01DC0118
:1019900011961C921E9213961C921E9212971596E7
:1019A0001C921E9214978815990549F069817A81D5
:1019B0006115710521F04D815E810E940F0EF501C8
:1019C000108B0787C4010E94B50F6EE871E0C40157
:1019D0000E94BA0FD5011F968D919C9150970E943D
:1019E00084144D815E8169817A81F50187859089B2
:1019F0000E94E10DC4010E94B50FD5011F968D9183
:101A00009C9150970E948414F70144815581608114
:101A10007181D5011F968D919C9150970E94E10D87
:101A200082E58F83D5011F96ED91FC91509704813B
:101A300015812081318142E0C42ED12C740141E016
:101A400050E0BE01695F7F4F1C968D919C911D9760
:101A50000E94FA128A81F50186870785108901158F
:101A6000110531F0C8010E94B50FC8010E94DA1AB1
:101A7000D50150961C921E921F978981811103C037
:101A800081E051968C93C5010E947A0C882339F02D
:101A900064E670E080E090E00E940308F4CF87E500
:101AA0008F83F5018685888702E010E0940142E08B
:101AB00050E0BE01695F7F4F848595850E94160CBA
:101AC000898190E0982F88272A81820F911D28967E
:101AD0000FB6F894DEBF0FBECDBFDF91CF911F913F
:101AE0000F91FF90EF90DF90CF90BF90AF909F90BD
:101AF0008F900895EF92FF920F931F93CF93DF93F0
:101B000000D01F92CDB7DEB7FC012289211118C089
:101B10007C01138A8FE4898380E48B8386858A83A2
:101B20009F012C5E3F4F00E410E043E050E0BE0117
:101B30006F5F7F4F848595850E94160CF701828B1D
:101B40000F900F900F90DF91CF911F910F91FF9009
:101B5000EF900895CF93DF93EC010E947A0D8A896C
:101B6000882331F08B89C80FD11D8C8990E002C089
:101B70008FEF9FEFDF91CF910895CF93DF93EC012B
:101B80000E947A0D8A89882359F081508A8B8B892B
:101B900091E0980F9B8BC80FD11D8C8990E002C0FB
:101BA0008FEF9FEFDF91CF910895CF93DF93EC01FB
:101BB0000E947A0D8A8990E0DF91CF9108950E946A
:101BC0003C1CEF92FF920F931F93CF93DF93FC0186
:101BD000248135816115710511F480E019C041152A
:101BE0005105A9F07B01EC018A01020F131FB80116
:101BF0000E948E0F882389F3288139818C819D81F1
:101C0000B701820F931F0E94531C1D830C8381E038
:101C1000DF91CF911F910F91FF90EF900895EF9278
:101C2000FF920F931F93CF93DF93EC017B018A0107
:101C3000BA010E948E0F2881398181110DC02115B2
:101C4000310519F0C9010E94DA1A198218821D8221
:101C50001C821B821A8206C01D830C83B701C90136
:101C60000E94531CCE01DF91CF911F910F91FF90E5
:101C7000EF900895409102035091030320910003D7
:101C80003091010342175307B4F49091E800957026
:101C9000E1F39091E80092FD19C08093F1008091EA
:101CA00002039091030301968F739927892B19F4EE
:101CB0008EEF8093E80080910203909103030196D8
:101CC000909303038093020381E0089580E00895D8
:101CD000DF92EF92FF920F931F93CF93DF93D82E53
:101CE0008A017B01E40EF51EEB01CE15DF0571F0D4
:101CF000D7FE03C0FE01849101C088810E943A0E84
:101D000021968111F2CF8FEF9FEF01C0C801DF91C3
:101D1000CF911F910F91FF90EF90DF900895615048
:101D200030F02091F100FC0120830196F8CF289833
:101D300084E6809304030895CF92DF92EF92FF929E
:101D40000F931F93CF93DF936C017A018B01C0E057
:101D5000D0E0CE15DF0589F0D8016D918D01D60157
:101D6000ED91FC910190F081E02DC6010995892B40
:101D700011F47E0102C02196ECCFC701DF91CF9113
:101D80001F910F91FF90EF90DF90CF900895FC018D
:101D9000918D828D981761F0828DDF01A80FB11DA2
:101DA0005D968C91928D9F5F9F73928F90E00895C6
:101DB0008FEF9FEF0895FC01918D828D981731F080
:101DC000828DE80FF11D858D90E008958FEF9FEFD4
:101DD00008950F931F93CF93DF931F92CDB7DEB774
:101DE00082E0898342E450E066E576E080E80E9484
:101DF000680E0E94ED14DC0112960D911C91139750
:101E00000115110569F0D801ED91FC910280F38173
:101E1000E02DBE016F5F7F4FC801099597FF07C096
:101E200089810F90DF91CF911F910F910895F80153
:101E300000851185E5CF86E593E00E94C40321E08B
:101E4000892B09F420E0822F0895EF92FF920F93DF
:101E50001F93CF93DF93EC0181E0888F9B8D8C8D56
:101E6000981305C0E889F989808185FD24C0F62E84
:101E70000B8D10E00F5F1F4F0F731127E02E8C8D1D
:101E8000E8120CC00FB607FCFACFE889F989808107
:101E900085FFF5CFCE010E947F07F1CF8B8DFE012C
:101EA000E80FF11DE35AFF4FF0820B8FEA89FB899F
:101EB0008081806207C0EE89FF896083E889F989A3
:101EC00080818064808381E090E0DF91CF911F91D9
:101ED0000F91FF90EF900895CF93DF93EC01888DE1
:101EE0008823C9F0EA89FB89808185FD05C0A8891E
:101EF000B9898C9186FD0FC00FB607FCF5CF8081A4
:101F000085FFF2CFA889B9898C9185FFEDCFCE01ED
:101F10000E947F07E7CFDF91CF9108950F931F9322
:101F2000CF93DF93EC0188819981009729F02A8172
:101F30003B812617370788F48B016F5F7F4F0E9424
:101F4000721B009761F0998388831B830A832C811D
:101F50003D81232B11F4FC01108281E001C080E05F
:101F6000DF91CF911F910F910895FC0180819181A4
:101F70000C94DA1AFC0111821082138212821582EB
:101F800014826115710551F0FB0101900020E9F701
:101F90003197AF01461B570B0C940F0E08951F92FB
:101FA0000F920FB60F9211248F939F938091E100AF
:101FB0009091E100937F9093E10083FF0FC0109216
:101FC000E90091E09093EB001092EC0092E3909383
:101FD000ED001092050398E09093F00082FF20C07E
:101FE00093E09093E9009091F200992319F09AE31D
:101FF0009093E8009091FE02992339F09091FE02AF
:1020000091509093FE02992389F1909104039923B2
:1020100039F090910403915090930403992341F176
:1020200084FF10C08091E2008E7E81608093E20088
:102030008091E1008F7E8093E100809194028E7EFA
:10204000806111C080FF16C08091E2008E7E8061A9
:102050008093E2008091E1008E7E8093E100809188
:1020600094028E7E81608093940204C05D9ACDCFED
:10207000289AD6CF9F918F910F900FBE0F901F90EF
:1020800018951F920F920FB60F921124CF92DF92E4
:10209000EF92FF920F931F932F933F934F935F9372
:1020A0006F937F938F939F93AF93BF93EF93FF9320
:1020B000CF93DF93CDB7DEB76C97DEBFCDBF109265
:1020C000E9008091E80083FFFAC168E0CE014596FF
:1020D0000E948F0E82EF8093E8008D8987FF05C0F4
:1020E0009091E80090FFFCCF03C09EEF9093E80032
:1020F000982F907609F0C6C09E892F89188D91116E
:102100000CC0803829F4809195028093F10002C0C0
:102110001092F1001092F10047C1422F50E0512B74
:10212000913051F4811140C14130510509F03CC159
:10213000809195028D7F0BC0933061F4811134C181
:102140004130510509F030C1809195028260809341
:1021500095022AC1953041F48091E80080FFFCCFC0
:1021600020682093E30020C1963009F05FC0EB8C1B
:10217000FC8C1092E90010920303109202031230BB
:1021800091F510920103109200030E94E90E99E06C
:10219000BE016F5F7F4FDB01E92F1D92EA95E9F7E2
:1021A00099831A8391E09E8390EA98879AEF9987A2
:1021B0002091020330910303275F3F4F3C832B8321
:1021C0008D831092E9001092030310920203F092A3
:1021D0000103E092000349E050E080E00E94680EB5
:1021E0000E94E90EE1C0F0920103E09200030E9418
:1021F000ED14DC011296ED90FC901397E114F104BC
:1022000009F4C0C0D701ED91FC910480F581E02D67
:10221000BE016B5E7F4FC7010995009719F00CF066
:10222000C3C0C6C0F701E084F184E8CF973009F459
:10223000BFC0983021F481E08093F100B5C099309F
:1022400009F0B2C0837009F0B3C0EDE2F1E081E0C3
:1022500021E036E39081992361F08093E900209397
:10226000EB0091919093EC003093ED008F5F8730FD
:1022700089F78EE78093EA001092EA008F898093B5
:10228000050392C08B8D9C8D1092E9001092030380
:10229000109202039093010380930003898D8111B2
:1022A00056C08E899D89913A59F4813209F080C0D7
:1022B00047E050E064E071E080E00E94680E74C086
:1022C000913209F075C0833289F4888D90E0982F9F
:1022D00088272F89822BA0E0B0E0809300019093A3
:1022E0000101A0930201B09303015EC0803269F442
:1022F0008091E80082FFFCCF67E084E091E00E94DB
:102300008F0E8BEF8093E80006C0823209F04CC03C
:102310008F8980930B0180919302882319F0EEEF4F
:10232000FAE002C0E0E0F8E080910401909105013C
:10233000A0910601B0910701803B9440A105B10531
:1023400009F088C080910B0180FFA0C083C00E946B
:10235000ED14DC0112960D911C91139701151105D6
:1023600039F1D801ED91FC910190F081E02DBE0191
:102370006B5E7F4FC8010995811116C0F801008579
:102380001185ECCF1130C1F0133091F48F8988237F
:1023900009F455C08230E9F440E86BE088EA96E041
:1023A0000E948119882321F08EEF8093E80087C076
:1023B00081E28093EB0083C08B8D9C8D089711F494
:1023C0001093FF028091FF02811136C064EB76E02A
:1023D00038C0813029F440E86BE08CE996E0E0CF2A
:1023E000833031F70E94ED14DC011296ED90FC90E1
:1023F00013978E010F5F1F4F6801E114F10479F00C
:10240000D701ED91FC910680F781E02DB801C7015D
:102410000995080F111DF701E084F184EECFD80172
:102420001C92F60101900020E9F73197BF016C1969
:102430007D0940E0C601B4CF66EC76E002C068E9F1
:1024400076E06115710509F4B3CFFB01449150E0CA
:1024500080E833CF0FB6F894A8958091600088612A
:1024600080936000109260000FBEA895EE3F2AE0B6
:10247000F20739F08091FE0A9091FF0A91838083E0
:1024800093CF1092FF0A1092FE0A8ECFEE3F8AE0A1
:10249000F80731F0808191819093FF0A8093FE0AC2
:1024A00087E797E7918380839BE088E10FB6F894F4
:1024B000A895809360000FBE9093600075CF6C96D6
:1024C0000FB6F894DEBF0FBECDBFDF91CF91FF9165
:1024D000EF91BF91AF919F918F917F916F915F919C
:1024E0004F913F912F911F910F91FF90EF90DF90AF
:1024F000CF900F900FBE0F901F901895EF92FF9204
:102500000F931F93CF93DF938C017B01C0E0D0E04A
:10251000F701EC0FFD1F6491662361F0D801ED9186
:10252000FC910190F081E02DC8010995892B11F0F3
:102530002196EECFCE01DF91CF911F910F91FF90A9
:10254000EF9008951F920F920FB60F9211242F93C0
:102550003F934F935F936F937F938F939F93AF932B
:10256000BF93EF93FF9386E593E00E947F07FF916F
:10257000EF91BF91AF919F918F917F916F915F91FB
:102580004F913F912F910F900FBE0F901F90189574
:102590001F920F920FB60F9211242F938F939F9338
:1025A000EF93FF93E0916603F09167038081E091E0
:1025B0006C03F0916D0382FD12C0908180916F03D6
:1025C0008F5F8F7320917003821751F0E0916F033A
:1025D000F0E0EA5AFC4F958F80936F0301C0808131
:1025E000FF91EF919F918F912F910F900FBE0F90C0
:1025F0001F9018952F923F924F925F926F927F9209
:102600008F929F92AF92BF92CF92DF92EF92FF9202
:102610000F931F93CF93DF93CDB7DEB72B970FB6F2
:10262000F894DEBF0FBECDBF9B878A875B0119017F
:10263000FD82EC823A01600E711E872C7B82912C08
:1026400044244A94542C9B01240F351F3F832E832E
:102650009101200F311F39872887EA85FB85808506
:10266000981608F036C1AA85BB8514965C924E92E6
:10267000139715968D919C911697DC01ED91FC9125
:102680000190F081E02D6FEF09956FEF8A859B85B2
:102690000E94FF0BEA85FB8585819681DC01ED9127
:1026A000FC910190F081E02DAA85BB856C91099584
:1026B000EA85FB856081CF010E94FF0BAA85BB855F
:1026C00015968D919C911697DC01ED91FC910190EE
:1026D000F081E02D682D09956B818A859B850E948C
:1026E000FF0BEA85FB8585819681DC01ED91FC91EC
:1026F0000190F081E02D662D0995662D8A859B85D8
:102700000E94FF0B75012E813F81E216F306B1F0A6
:10271000EA85FB85858196818701DC01ED91FC913D
:102720000190F081E02DD7016D917D010995F801AF
:1027300060818A859B850E94FF0BE5CF7101AA8588
:10274000BB8515968D919C91169728853985E21643
:10275000F30691F08701DC01ED91FC910190F0818D
:10276000E02DD7016D917D010995F80160818A8581
:102770009B850E94FF0BE3CFDC01ED91FC91AA85C4
:10278000BB8514966C910190F081E02D0995EA8546
:10279000FB8585819681DC01ED91FC910190F081B2
:1027A000E02DAA85BB8513966C91099564E670E0CF
:1027B0008A859B850E94C80B8F3F910509F07DC0DB
:1027C000EA85FB85548243826FEFCF010E94FF0BA5
:1027D00065E070E08A859B850E94C80BAA85BB8551
:1027E0006C91262F30E08217930709F066C0CD0167
:1027F0000E94FF0B6AE070E08A859B850E94C80BEF
:102800007C0197FD5AC0682F8A859B850E94FF0B2B
:102810006AE070E08A859B850E94C80B8C0197FD59
:102820004CC0682F8A859B850E94FF0BEA82198223
:10283000E981FA810E0F1F1FE12CF12C65E070E099
:102840008A859B85E016F106A9F0EC14FD0491F051
:102850000E94C80B97FD0AC0EC81FD81EE0DFF1DA3
:102860008083682F8A859B850E94FF0BFFEFEF1AFC
:10287000FF0AE4CF0E94C80B7C0197FD1EC065E0F3
:1028800070E08A859B850E94C80B97FD16C0FE2CC0
:10289000EE248E0D9F1DAA85BB8513962D913C912C
:1028A00014972817390749F48C918F5F8C93C801CE
:1028B000C016D10680F4C6010EC0939464E670E0A1
:1028C00080E090E00E9403088A859B850E94AC0B03
:1028D000C4CE8FEF9FEF2B960FB6F894DEBF0FBEDE
:1028E000CDBFDF91CF911F910F91FF90EF90DF90BF
:1028F000CF90BF90AF909F908F907F906F905F90A0
:102900004F903F902F9008950F931F93CF93DF9395
:10291000EC010C811D810F5F1F4FB8010E948E0FCB
:10292000882369F0288139818C819D8168E872E073
:10293000820F931F0E94531C1D830C8381E0DF9143
:10294000CF911F910F91089590E0FC01ED5EF84F3B
:102950002491FC01EC50F94F8491882399F090E088
:10296000880F991FFC01EA51F94FA591B491FC0120
:10297000E852F94F859194918FB7F894EC91E22B3E
:10298000EC938FBF0895FC0180910503811103C072
:102990008FEF9FEF08959FB7F89482E08093E9004E
:1029A0002091F20030E01216130614F421E030E01A
:1029B0002115310559F0289884E68093040380910D
:1029C000F10080838091F200882319F09FBFC90134
:1029D00008958BE68093E800F9CF80913604811149
:1029E0000DC082E08093320484E08093330410921F
:1029F00035041092340481E08093360482E394E03D
:102A00000895CF93DF93CDB7DEB7CE5BD1090FB674
:102A1000F894DEBF0FBECDBF789484B5826084BDCC
:102A200084B5816084BD85B5826085BD85B58160D2
:102A300085BD80916E00816080936E001092810050
:102A4000809181008260809381008091810081600B
:102A500080938100809180008160809380008091CC
:102A600091008260809391008091910081608093B9
:102A70009100809190008160809390008091C100CE
:102A800084608093C1008091C10082608093C10006
:102A90008091C10081608093C1008091C3008160FA
:102AA0008093C3008091C00082608093C0008091B9
:102AB000C20081608093C20080917A00846080931C
:102AC0007A0080917A00826080937A0080917A0007
:102AD000816080937A0080917A00806880937A0088
:102AE0001092050310929502109294028091D700E3
:102AF00081608093D70080EA8093D80089B5806197
:102B000089BD89B5826089BD09B400FEFDCF61E051
:102B100070E080E090E00E9403088091D8008F7CF4
:102B200080618093D8008091E000807F8093E000F6
:102B30008091E1008E7E8093E1008DE08093E20041
:102B4000559A209AEEEFFFE7859194918B3F9C4D2B
:102B500019F481E0809393028FEF9FEF909313031A
:102B600080931203E091FC03F091FD03A089B189E9
:102B700082E08C93A485B5851C92A685B78587E0F5
:102B80008C93108EA489B58986E08C93A289B38931
:102B90008C9180618C93A289B3898C9188608C938D
:102BA000A289B3898C9180688C930288F389E02D87
:102BB00080818F7D80838091FA038111D9C081E06B
:102BC0008093FA0383EF93E00E94AC0B68EE73E00E
:102BD00080E090E00E9403088091F8039091F9034F
:102BE000DC01ED91FC910480F581E02D099518162A
:102BF000190644F3E5E0FE2EEE24E394F2E3DF2E23
:102C0000E2E1F1E0DE01AB59BF4F8F2D01900D9253
:102C10008A95E1F7E092FB0300E010E020E030E06D
:102C200045E050E0BE016B597F4F83EF93E00E9477
:102C3000160C8091F8039091F903DC01ED91FC9161
:102C40000190F081E02D63E009956AEF70E080E08B
:102C500090E00E94030862EF75E08091F803909184
:102C6000F9030E947E126AEF70E080E090E00E941B
:102C7000030860EF75E08091F8039091F9030E94DA
:102C80007E1264EF71E080E090E00E94030864EE41
:102C900075E08091F8039091F9030E947E1264EF31
:102CA00071E080E090E00E94030883EF93E00E94CF
:102CB000AC0BE7E1F1E0DE0111968F2D01900D9252
:102CC0008A95E1F7D092FB0304E010E09E012754BF
:102CD0003F4F45E050E0BE016F5F7F4F83EF93E0D1
:102CE0000E94160C8F3FBFEF9B0739F468EE73E02C
:102CF00080E090E00E94030883CFC754DF4F288113
:102D0000C95BD0402111FFCF049749F5C654DF4F6E
:102D10002881CA5BD04030E02053310984E6829F8D
:102D2000A001839F500D1124C554DF4F2881CB5B38
:102D3000D04030E0205331096AE0629FC001639FB8
:102D4000900D1124840F951FC454DF4F2881CC5B54
:102D5000D04030E020533109820F931F02C084E637
:102D600090E09093F5038093F40382E38093FB0358
:102D700082E00E94A41461E082E00E94A007109209
:102D8000310410923004809128040E94A414809190
:102D900027040E94A4148091270490E0FC01EC50C9
:102DA000F94FE491F0E0EE0FFF1FE852F94F259143
:102DB00034913093240420932304FC01ED5EF84FFA
:102DC000E491E0932E048091280490E0FC01EC5003
:102DD000F94FE491F0E0EE0FFF1FE852F94F259113
:102DE00034913093260420932504FC01ED5EF84FC6
:102DF000E491E0932F0480911C04882309F436C0E9
:102E00001FB7F89480919602811124C0E5E0F7E0A5
:102E10008491E4E2F7E09491E82FF0E0EE0FFF1FD9
:102E2000EA51F94FA591B491EC91E92321F461E0C5
:102E300081E10E94A00781E10E94A4148CB5806109
:102E40008CBD8CB580648CBD8FE00E94A41480E1A1
:102E50000E94A414809196028F5F809396021FBFF8
:102E600080E580931D0410921E0447C080912B04BE
:102E70000E94A41480912A040E94A41480912B041F
:102E800090E0FC01EC50F94FE491F0E0EE0FFF1FF1
:102E9000E852F94FA591B491B0932204A093210474
:102EA000FC01ED5EF84F849180932D0420912A045B
:102EB00030E0F901EC50F94FE491F0E0EE0FFF1F24
:102EC000E852F94F459154915093200440931F04C8
:102ED000F901ED5EF84FE491E0932C049C91E82F0A
:102EE000E095E923EC93E0911F04F0912004908198
:102EF00080912C04809589238083E0912304F091B4
:102F00002404908180912E04809589238083809170
:102F10002904882319F10E94A41461E080912904F6
:102F20000E94A00764EF71E080E090E00E94030837
:102F300060E0809129040E94A00764EF71E080E0C6
:102F400090E00E94030861E0809129040E94A0079C
:102F500064EF71E080E090E00E940308E4EFF5E0A8
:102F6000D49005EF15E0D11061C066E38EEF93E0D9
:102F70000E945D0911E01093130468EA8EEF93E05C
:102F80000E941F0980EA90E0909307048093060452
:102F900080E890E09093090480930804E091FE0398
:102FA000F091FF030088F189E02D6FEF7FEF8EEF46
:102FB00093E00995109317041092160410921504CB
:102FC00010920F0410920E0410921104109210042B
:102FD00082E080931204109214048AE090E09093AF
:102FE0000B0480930A0484E190E090930D04809395
:102FF0000C044BE050E061E971E08EEF93E00E9439
:103000009C0E0E94C9087093FD026093FC0298EE2A
:10301000492E93E0592E612C712C00E211E023EF30
:10302000A22E23E0B22E3324339496C0F80164918B
:103030008EEF93E00E945D095801F2E0AF0EB11CE3
:10304000F80131960491202F2078C22E0F77750158
:10305000102F115050F0F70164918EEF93E00E9411
:103060001F09FFEFEF1AFF0AF4CFC501800F911D72
:103070008C01CC2089F07C019FEFE91AF90AF80154
:10308000649170E06F3F710511F464EF71E080E0CE
:1030900090E00E9403088701DA9465CFA9961FAEDD
:1030A0001EAEA997AD964CAE5DAE6EAE7FAEAD973F
:1030B000A7961FAF0EAFA797E396BFAEAEAEE3974E
:1030C000E7961FAEE797E8961FAEE897E9961FAE22
:1030D000E9976DE971E0CE0101960E94BA0FBE0139
:1030E0006F5F7F4FCE018B599F4F0E94A20C7C01D6
:1030F000CE0101960E94B50FEF2809F443C066E5A2
:1031000072E0CE0101960E94BA0FBE016F5F7F4F41
:10311000CE018B599F4F0E94A20C7C01CE010196DB
:103120000E94B50FEF2809F4CDC0A7961FAF0EAFD0
:10313000A797CE018B599F4F0E94500C0E94C9083F
:103140007093FD026093FC0264E670E080E090E022
:103150000E9403080E94D0030E94C908C090FC028C
:10316000D090FD020D2C000CEE08FF08DC01CB0115
:103170008C199D09AE09BF0981319742A105B1059E
:1031800018F38CCFCE018B599F4F0E947A0C81117E
:10319000F9CFCE0101967C01CE018B599F4F0E9441
:1031A0007A0DE8968FADE8978823A1F0CE018B5970
:1031B0009F4F0E94BD0D682FD7018D937D01E09137
:1031C0000603F09107030190F081E02D86E093E083
:1031D0000995E2CF6EEC71E0CE0101960E945A1C77
:1031E00060ED71E080E090E00E945A1C4C016EECB2
:1031F00071E0CE0101960E945A1C60ED71E080E002
:1032000090E00E945A1C6C0162ED71E0C4010E94C2
:103210004A1C7C01892BF9F48091FB0281111BC0AF
:1032200067ED71E0CE0187549F4F0E94BA0FBE0137
:1032300067547F4FCE018B599F4F0E94A20C7C0197
:10324000CE0187549F4F0E94B50FEF2809F057CF4A
:103250003092FB0254CF61E172E0C4010E944A1C2B
:10326000892BF9F48091FB02882319F167E172E060
:10327000CE0187549F4F0E94BA0FBE0167547F4F03
:10328000CE018B599F4F0E94A20C7C01CE01875426
:103290009F4F0E94B50FEF2809F031CF1092FB022B
:1032A0002ECFEF2809F02BCF8091FB02882309F461
:1032B00026CF64E572E0C6010E944A1C892B09F002
:1032C0001ECFD4CFCE018B599F4F0E947A0C811113
:1032D000F9CF87E9E82E82E0F82ECE018B599F4F77
:1032E0000E947A0DE8968FADE897882309F41DCFE8
:1032F000CE018B599F4F0E94BD0DF70181937F0135
:10330000ECCFCF92DF92EF92FF920F931F93CF9368
:10331000DF931F92CDB7DEB7182F062FE42E862F2E
:10332000880F8E5F99830E943A0E83E00E943A0EC6
:10333000F12EC12E9981D92E8C2D8F19801798F4DA
:10334000F601E7FE02C0849101C080810E943A0E1E
:10335000182F80E00E943A0E8123FFEFCF1ADF0A78
:103360008111EACF01C081E00F90DF91CF911F91D1
:103370000F91FF90EF90DF90CF900895E6E5F3E096
:103380001382128248EE53E060E070E0448355837C
:103390006683778387E391E0918380838DEC90E06F
:1033A000958784878CEC90E09787868788EC90E0FF
:1033B000918B808B89EC90E0938B828B8AEC90E0F0
:1033C000958B848B8EEC90E0978B868B118E128E72
:1033D000138E148EA6E0B3E013961C921E921297E1
:1033E00014964D935D936D937C93179787E491E0CA
:1033F00011969C938E932FEF3FEF1D963C932E9347
:103400001C97A3EFB3E01C921696FC93EE931597CE
:1034100017961C92179718961C9218971A96FC9359
:10342000EE931997EEEFF3E01382128240E850E03A
:103430005583448360EA70E077836683158A158636
:1034400014861786168681E0848B338B228B318B12
:10345000208B868B90E5978F10A29AE091A799E038
:1034600092A798E093A7868F15A614A68FE691E001
:103470009183808371876087538742870895EE0F19
:10348000FF1F0590F491E02D0994CF93DF938230D4
:10349000910510F482E090E0E0914204F091430441
:1034A00020E030E0C0E0D0E0309711F14081518160
:1034B00048175907C0F04817590761F48281938172
:1034C000209719F09B838A832BC0909343048093A9
:1034D000420426C02115310519F04217530718F48C
:1034E0009A01BE01DF01EF010280F381E02DDCCF04
:1034F0002115310509F1281B390B2430310590F4D1
:1035000012968D919C9113976115710521F0FB0125
:103510009383828304C09093430480934204FD010B
:10352000329644C0FD01E20FF31F81939193225024
:1035300031092D933C933AC02091400430914104CD
:10354000232B41F420910E0130910F01309341045F
:103550002093400420910C0130910D01211531057B
:1035600041F42DB73EB74091100150911101241B39
:10357000350BE0914004F0914104E217F307A0F409
:103580002E1B3F0B2817390778F0AC014E5F5F4FB9
:103590002417350748F04E0F5F1F509341044093A6
:1035A00040048193919302C0E0E0F0E0CF01DF910D
:1035B000CF9108950F931F93CF93DF93009709F452
:1035C0008CC0FC0132971382128200914204109148
:1035D00043040115110581F420813181820F931F6D
:1035E00020914004309141042817390779F5F09370
:1035F0004104E093400471C0D80140E050E0AE17B0
:10360000BF0750F412962D913C911397AD012115EF
:10361000310509F1D901F3CF9D01DA01338322830A
:1036200060817181860F971F8217930769F4EC01FF
:1036300028813981260F371F2E5F3F4F318320832A
:103640008A819B8193838283452B29F4F0934304E1
:10365000E093420442C01396FC93EE931297ED015F
:10366000499159919E01240F351FE217F30771F418
:1036700080819181840F951F029611969C938E9361
:103680008281938113969C938E931297E0E0F0E0F1
:10369000D80112968D919C911397009719F0F8011B
:1036A0008C01F6CF8D919C9198012E5F3F4F820F38
:1036B000931F20914004309141042817390769F481
:1036C000309729F4109243041092420402C01382EE
:1036D00012821093410400934004DF91CF911F9117
:1036E0000F910895A0E0B0E0E8E7FBE10C948A1C9C
:1036F000EC01009721F4CB010E94451AB8C0FC01EF
:10370000E60FF71F9C0122503109E217F30708F476
:10371000ACC0D9010D911C91119706171707B0F095
:103720000530110508F49FC0C80104978617970754
:1037300008F499C002501109061B170B019311934D
:103740006D937C93CF010E94DA1A8DC05B01A01AA1
:10375000B10A4C01800E911EA0914204B091430425
:1037600040E050E0E12CF12C109709F44AC0A81574
:10377000B905D1F56D907C901197630182E0C80E78
:10378000D11CCA14DB0480F1A3014A195B096A0148
:1037900082E0C80ED11C1296BC9012971396AC9181
:1037A000B5E0CB16D10440F0B282A38351834083AD
:1037B000D9016D937C930AC00E5F1F4FC301800F28
:1037C000911FF90191838083EB2DFA2FE114F1040D
:1037D00031F0D7011396FC93EE93129744C0F09307
:1037E0004304E09342043FC08D919C911197481788
:1037F000590708F4AC017D0112960D90BC91A02DE3
:10380000B3CF809140049091410488159905E1F46B
:1038100046175707C8F480910C0190910D0100974D
:1038200041F48DB79EB74091100150911101841B56
:10383000950BE817F907C8F4F0934104E0934004AE
:10384000F901718360830FC0CB010E94451A7C018E
:10385000009759F0A801BE010E94411CCE010E94B0
:10386000DA1AC70104C0CE0102C080E090E0CDB7F3
:10387000DEB7EEE00C94A61C81E090E0F8940C9486
:10388000BD1CFB01DC0102C001900D924150504073
:10389000D8F70895FB01DC018D910190801901108A
:1038A000D9F3990B0895FB01DC0101900D920020E2
:1038B000E1F708954EE354E00E945F1C0895FA0179
:1038C000A191B081009719F41097E1F0CD01DC01CE
:1038D000CD010D90002011F4C00113C0FB01219116
:1038E000222319F02015D9F7F3CFFB0121912015E0
:1038F00019F41E92119606C02223C1F70D900020E4
:10390000A1F7D001FA01A193B08308952F923F92BD
:103910004F925F926F927F928F929F92AF92BF92DF
:10392000CF92DF92EF92FF920F931F93CF93DF938B
:10393000CDB7DEB7CA1BDB0B0FB6F894DEBF0FBEE8
:10394000CDBF09942A88398848885F846E847D8435
:103950008C849B84AA84B984C884DF80EE80FD8037
:103960000C811B81AA81B981CE0FD11D0FB6F894AD
:0E397000DEBF0FBECDBFED010895F894FFCF6E
:10397E00FFFFFFFF00E10000000000000000440414
:10398E0080005858585858585831303000000000B0
:10399E002B0C9C0ED50DBD0DAA0D3C0700C18081D0
:1039AE0000000000000000250F9C0EC403C70EDBB4
:1039BE000E6C0F00000000DA033D08FB033D075BB1
:1039CE0007F00300000000DF0D9C0EDF0DDF0DDFA2
:1039DE000DDF0D00000000DF0D9C0E000000009AB0
:1039EE00049C0E520B9206E30A750A4306F1093A3D
:1039FE00049C0989042F62696E2F617368002D6320
:103A0E00004578616D706C65204170700072756252
:103A1E0079207E2F2E74656E7461636C652F7363CF
:103A2E0072697074732F6765745F74656E74616309
:103A3E006C65735F7374617475732E7262003A00F5
:103A4E000A00747275650072756279207E2F2E746D
:103A5E00656E7461636C652F736372697074732F16
:103A6E007075745F74656E7461636C65735F5F61AE
:103A7E006E656D6F6E6553686172696E672E7262E8
:103A8E000066616C73650072756279207E2F2E74EC
:103A9E00656E7461636C652F736372697074732FD6
:103AAE0064656C6574655F74656E7461636C657373
:103ABE005F5F616E656D6F6E6553686172696E678B
:103ACE002E726200320072756279207E2F2E74651E
:103ADE006E7461636C652F736372697074732F6794
:103AEE0065745F74656E7461636C65735F776F7216
:0A3AFE006B6572732E726200FE0009
:00000001FF
