:100000000C94B0030C94D8030C94D8030C94D8032C
:100010000C94D8030C94D8030C94D8030C94D803F4
:100020000C94D8030C94D8030C94570E0C94C90E5E
:100030000C94D8030C94D8030C94D8030C94D803D4
:100040000C94D8030C94D8030C94D8030C94D803C4
:100050000C94D8030C94D8030C94D8030C946E1809
:100060000C94D8030C946E110C9448110C94D80382
:100070000C94D8030C94D8030C94D8030C94D80394
:100080000C94D8030C94D8030C94D8030C94D80384
:100090000C94D8030C94D8030C94D8030C94D80374
:1000A0000C94D8030C94D8030C94D803FD160017B5
:1000B000EF16F316F9162117211721170417081741
:1000C0000C171217161721171C17CB1BD01BD51B8B
:1000D000DF1BE91B331C331C331CF31BFD1B071CEC
:1000E000111C1E1C331C261C080B000202020100FE
:1000F000090400000102020000052400100105248B
:1001000001010104240206052406000107058103FC
:1001100010004009040100020A0000000705020265
:1001200040000007058302400000040309044172F7
:100130006475696E6F204C4C430041726475696E42
:100140006F2059756E00120100020000004041232B
:10015000418000010102030112010002EF0201408F
:100160004123418000010102030172756E2D62720C
:10017000696467650A000A000A0000000000003E8A
:100180005B4F5B3E3E6B4F6B3E1C3E7C3E1C183C07
:100190007E3C181C577D571C1C5E7F5E1C00183C63
:1001A0001800FFE7C3E7FF0018241800FFE7DBE7AC
:1001B000FF30483A060E2629792926407F05050793
:1001C000407F05253F5A3CE73C5A7F3E1C1C0808EF
:1001D0001C1C3E7F14227F22145F5F005F5F0609B4
:1001E0007F017F006689956A606060606094A2FF0D
:1001F000A29408047E040810207E201008082A1CFF
:1002000008081C2A08081E101010100C1E0C1E0CCA
:1002100030383E3830060E3E0E060000000000006A
:10022000005F00000007000700147F147F14242AD9
:100230007F2A1223130864623649562050000807AB
:100240000300001C2241000041221C002A1C7F1CCC
:100250002A08083E080800807030000808080808CE
:10026000000060600020100804023E5149453E0035
:10027000427F400072494949462141494D33181493
:10028000127F1027454545393C4A494931412111E2
:1002900009073649494936464949291E00001400D4
:1002A00000004034000000081422411414141414F7
:1002B000004122140802015909063E415D594E7C55
:1002C0001211127C7F494949363E414141227F410A
:1002D00041413E7F494949417F090909013E414168
:1002E00051737F0808087F00417F41002040413F53
:1002F000017F081422417F404040407F021C027F62
:100300007F0408107F3E4141413E7F090909063EB6
:100310004151215E7F091929462649494932030185
:100320007F01033F4040403F1F2040201F3F403897
:10033000403F631408146303047804036159494D72
:1003400043007F4141410204081020004141417FA8
:10035000040201020440404040400003070800201E
:10036000545478407F28444438384444442838441E
:1003700044287F385454541800087E090218A4A455
:100380009C787F0804047800447D40002040403D74
:10039000007F1028440000417F40007C04780478EE
:1003A0007C080404783844444438FC182424181881
:1003B000242418FC7C0804040848545454240404DD
:1003C0003F44243C4040207C1C2040201C3C4030CA
:1003D000403C44281028444C9090907C4464544CF9
:1003E0004400083641000000770000004136080054
:1003F00002010204023C2623263C1EA1A161123AFE
:100400004040207A3854545559215555794121544A
:10041000547841215554784020545579400C1E524F
:1004200072123955555559395454545939555454F3
:10043000580000457C410002457D420001457C405A
:10044000F0292429F0F0282528F07C545545002077
:1004500054547C547C0A097F493249494932324814
:10046000484832324A4848303A4141217A3A42407B
:100470002078009DA0A07D39444444393D4040404F
:100480003D3C24FF2424487E4943662B2FFC2F2B20
:10049000FF0929F620C0887E0903205454794100C1
:1004A00000447D413048484A32384040227A007A40
:1004B0000A0A727D0D19317D2629292F282629291E
:1004C000292630484D402038080808080808080840
:1004D000382F10C8ACBA2F102834FA00007B000067
:1004E00008142A142222142A1408AA005500AAAAC1
:1004F00055AA55AA000000FF00101010FF001414A8
:1005000014FF001010FF00FF1010F010F01414146E
:10051000FC001414F700FF0000FF00FF1414F404A3
:10052000FC141417101F10101F101F1414141F0098
:10053000101010F0000000001F101010101F1010FD
:100540001010F010000000FF10101010101010100C
:1005500010FF10000000FF140000FF00FF00001F4C
:1005600010170000FC04F414141710171414F404EA
:10057000F40000FF00F714141414141414F700F717
:10058000141414171410101F101F141414F4141042
:1005900010F010F000001F101F0000001F140000DA
:1005A00000FC140000F010F01010FF10FF141414E1
:1005B000FF141010101F00000000F010FFFFFFFFDD
:1005C000FFF0F0F0F0F0FFFFFF0000000000FFFF81
:1005D0000F0F0F0F0F38444438447C2A2A3E147EF4
:1005E00002020606027E027E0263554941633844D8
:1005F000443C04407E201E2006027E020299A5E7AC
:10060000A5991C2A492A1C4C7201724C304A4D4D46
:10061000303048784830BC625A463D3E494949002E
:100620007E0101017E2A2A2A2A2A44445F4444404A
:10063000514A444040444A51400000FF0103E080D9
:10064000FF000008086B6B083612362436060F09C7
:100650000F06000018180000001010003040FF01C5
:1006600001001F01011E00191D1712003C3C3C3CFB
:100670000000000000000000002300260029002CDC
:10068000002F000000000200090F00000304010019
:100690000C0000000000000000000000000000004E
:1006A000000000000000240027002A002D00300078
:1006B00013018032118064260104B1020B14C002C0
:1006C0000800C10105C5024130C701C1EC011B3A58
:1006D0008155642A040000007F2B040000009F362F
:1006E00001C8B70100F20100E08F282422312B0E4F
:1006F00053A5421618121A140332E18F171B1D0E50
:1007000014112CA53D09272D252B3C3213800A29D5
:1007100080FF04080201104080401020408040808B
:100720000802040180402010020110801020404087
:100730002000000000250028002B002E00310004BE
:100740000404040403040502020202040302020278
:1007500002060606060606040402020204044627F0
:1007600011241FBECFEFDAE0DEBFCDBF13E0A0E063
:10077000B1E0EEEDF4E502C005900D92A838B107A6
:10078000D9F725E0A8E8B3E001C01D92A33AB2076B
:10079000E1F713E0C0EBD3E004C02197FE010E9413
:1007A000DB27CF3AD107C9F70E94D7210C946D2AD5
:1007B0000C940000EF92FF920F931F93CF93DF935F
:1007C000EC014FEF6FEF8FEF0E94881B4FEF6FEF41
:1007D0008FEF0E949A1B8AE5E82E85E0F82EF7013C
:1007E0008285938503E010E0B8010E94C727C69F69
:1007F000C001C79F900DD69F900D11242AE230E0D2
:1008000045E050E0BC0180E090E00E94451BF7010C
:1008100082859385B8010E94C727C69FC001C79FE4
:10082000900DD69F900D11242AE230E045E050E073
:10083000BC018BE990E0DF91CF911F910F91FF9068
:10084000EF900C94451B83E090E09093E503809338
:10085000E40342EF65EB87E20E949A1B40E060E010
:1008600080E00E94881B24E130E044E150E060E336
:1008700070E08AE090E00E94451B40E060E080E08C
:100880000E949A1B42EF65EB87E20E94881B28E0DA
:1008900030E048E050E06AE370E084E190E00E94DC
:1008A000451B26E030E046E050E06AE370E08CE073
:1008B00090E00E94451B26E030E046E050E062E315
:1008C00070E084E190E00E94451B60E085E00C94BC
:1008D000BC17CF93DF93CDB7DEB7CA55D1090FB69A
:1008E000F894DEBF0FBECDBF1C821B8288EE93E062
:1008F000A0E0B0E08D839E83AF83B8878DE291E066
:100900009A8389838FE495E09E878D871A8A1B8A54
:100910001C8A8091E4039091E5038230910509F4EB
:1009200073C08330910509F475C0019709F0F3C0D5
:1009300040E060E080E00E945B1C4FEF6FEF8FEFC4
:100940000E94881B82E080936E0544E150E064E1E0
:1009500070E08BE891E00E943B1C48E250E068E2C6
:1009600070E086E991E00E943B1C4FEF6FEF8FEF44
:100970000E949A1B4FEF6FEF8FEF0E94881B28E2B7
:1009800030E04AE050E066E470E08AE090E00E94E7
:10099000451B28E230E048E250E066E470E088E27F
:1009A00090E00E94451B28E230E04AE050E066E417
:1009B00070E08AE590E00E94451B28E230E04EE1BD
:1009C00050E066E470E08EE690E00E94451B28E26D
:1009D00030E04AE050E066E470E086E990E00E9492
:1009E000451B6EE971E0CE018B5A9F4F0E94420E6B
:1009F000BE016B5A7F4FCE0101960E94A815CE0111
:100A00008B5A9F4F0E943D0EE091CD03F091CE0393
:100A1000099581C082E090E09093E5038093E40320
:100A200061E085E00E94BC178091E2039091E303AE
:100A300081309105D9F54FEF6FEF8FEF0E949A1B30
:100A400040E060E080E00E94881B24E130E044E167
:100A500050E060E370E08AE090E00E94451B40E0D7
:100A600060E080E00E949A1B4FEF6FEF8FEF0E94D3
:100A7000881B28E030E048E050E06AE370E084E161
:100A800090E00E94451B26E030E046E050E06AE33B
:100A900070E08CE090E00E94451B26E030E046E0EC
:100AA00050E062E370E084E190E02DC0029769F5C8
:100AB0004FEF6FEF8FEF0E949A1B40E060E080E005
:100AC0000E94881B24E130E044E150E06BE570E0D7
:100AD0008AE090E00E94451B26E030E046E050E0CE
:100AE00064E670E083E190E00E94451B40E060E036
:100AF00080E00E949A1B26E030E046E050E062E68B
:100B000070E081E190E00E94451B64EF71E080E0BD
:100B100090E00E9428188DE291E09A838983CE01AB
:100B200001960E945615C65ADF4F0FB6F894DEBFE5
:100B30000FBECDBFDF91CF9108950F931F93CF9339
:100B4000DF93CDB7DEB7CA55D1090FB6F894DEBF33
:100B50000FBECDBF1C821B8288EE93E0A0E0B0E008
:100B60008D839E83AF83B8878DE291E09A838983DA
:100B70008FE495E09E878D871A8A1B8A1C8A63ED15
:100B800071E082E694E00E94461142EF65EB87E255
:100B90000E945B1C43E463E486EF0E94881B43E4ED
:100BA00063E486EF0E949A1B20E530E048E750E0BE
:100BB0006AE070E084E190E00E94451B40E060E064
:100BC00080E00E94881B40E060E080E00E949A1B69
:100BD00082E080936E054EE150E063E270E08DEDBF
:100BE00091E00E943B1C42E350E063E270E086E942
:100BF00091E00E943B1C4FEF6FEF8FEF0E94881B2C
:100C00004FEF6FEF8FEF0E949A1B87E090E00E94FA
:100C1000781F43E463E486EF0E94881B43E463E4A7
:100C200086EF0E949A1B85E090E00E94781F6EE993
:100C300071E0CE018B5A9F4F0E94420EBE016B5A4B
:100C40007F4FCE0101960E94A8158C01CE018B5AD0
:100C50009F4F0E943D0E012BA1F08DE291E09A83FF
:100C60008983CE0101960E945615C65ADF4F0FB6F2
:100C7000F894DEBF0FBECDBFDF91CF911F910F91D2
:100C800008951092E1038091E4039091E5030197A8
:100C900029F4E091CD03F091CE03099562EE71E065
:100CA00082E694E00E944611CE0101960E948015D2
:100CB0008111FACFD2CFCF93DF9364EF71E080E060
:100CC00090E00E9428181092E5031092E40310921D
:100CD000E3031092E20366EE71E082E694E00E9484
:100CE00046114FEF6FEF8FEF0E945B1C40E060E01A
:100CF00080E00E94881B40E060E080E00E949A1B38
:100D0000CAE5D5E08A859B8563E070E00E94C7272D
:100D10009B014885598560E070E080E090E00E948A
:100D2000451B82E08C8B47E350E06AE070E08EEE7A
:100D300091E00E943B1C44E650E06AE070E084EFE2
:100D400091E00E943B1C4FEF6FEF8FEF0E94881BDA
:100D50004AE050E064E170E08AEF91E00E943B1CC1
:100D60004AE050E061E470E080911001909111013F
:100D70000E943B1C42EF65EB87E20E94881B47E321
:100D800050E06CE370E080910C0190910D010E94A5
:100D90003B1C43E463E487EF0E94881B44E650E079
:100DA0006CE370E080910E0190910F01DF91CF9183
:100DB0000C943B1C8F929F92AF92BF92CF92DF9286
:100DC000EF92FF920F931F93CF93DF93CDB7DEB7D0
:100DD000CF55D1090FB6F894DEBF0FBECDBF6EEF71
:100DE00071E082E694E00E9446114FEF6FEF8FEFC3
:100DF0000E945B1C40E060E080E00E94881B82E073
:100E000080936E0544E150E064E170E084E092E09C
:100E10000E943B1C48E250E064E170E08FE092E009
:100E20000E943B1C40E060E080E00E949A1B40E092
:100E300060E080E00E94881B28E230E043E050E060
:100E400066E470E082E090E00E94451B28E230E01A
:100E500048E250E066E470E08CE090E00E94451BC0
:100E600028E230E048E250E066E470E08CE390E095
:100E70000E94451B28E230E043E050E066E470E069
:100E80008CE690E00E94451B28E230E048E250E00A
:100E900066E470E083E790E00E94451B28E230E0C2
:100EA00043E050E066E470E08EE990E00E94451B6C
:100EB0004FEF6FEF8FEF0E949A1B4FEF6FEF8FEFA7
:100EC0000E94881B28E130E048E150E06EE470E0C9
:100ED00084E190E00E94451B28E130E048E150E0C9
:100EE0006EE470E084E490E00E94451B28E130E06D
:100EF00048E150E06EE470E08BE790E00E94451B13
:100F00001C821B8288EE93E0A0E0B0E08D839E837C
:100F1000AF83B8878DE291E09A8389838FE495E06F
:100F20009E878D871A8A1B8A1C8A67E172E0CE0130
:100F30008B5A9F4F0E94420EBE016B5A7F4FCE01CB
:100F400001960E94A8158C01CE018B5A9F4F0E94DA
:100F50003D0E012B09F088C081E08093E103CE01B2
:100F600001960E9480158111FACF8E01055A1F4FFC
:100F7000680184E0C80ED11C7801CE0101960E9460
:100F800080168B89882309F48BC00C151D0509F484
:100F900087C0CE0101960E94C316F80181938F018C
:100FA000682F82E694E00E940611E7CFF1E0AF1AC5
:100FB000B10809F457C00150110928F481E0E81A7A
:100FC000F10809E010E0F7FE08C0E1E0CE1AD10810
:100FD00059E0E52EF12C09E010E080E38C0D6696D7
:100FE0008FAF669780E38E0D67968FAF679780E32C
:100FF000800F68968FAF689769968FAE69976A96EB
:101000001FAE6A9742EF65EB87E20E949A1B42EFA0
:1010100065EB87E20E94881B24E130E04CE350E05E
:1010200063E670E081E590E00E94451B40E060E0EF
:1010300080E00E94881B90926E0543E650E061E5D7
:1010400070E0CE018B5A9F4F0E943B1C68EE73E00C
:1010500080E090E00E94281887E00E949317019793
:1010600009F0A4CF0E949D058DE291E09A838983C7
:10107000CE0101960E945615C15ADF4F0FB6F89463
:10108000DEBF0FBECDBFDF91CF911F910F91FF90BB
:10109000EF90DF90CF90BF90AF909F908F9008958A
:1010A000F701148281E090E09093E5038093E403DC
:1010B00042EF65EB87E20E945B1C4FEF6FEF8FEF13
:1010C0000E94881B4FEF6FEF8FEF0E949A1B20E565
:1010D00030E048E750E06AE070E084E190E00E9490
:1010E000451B40E060E080E00E94881B40E060E03B
:1010F00080E00E949A1B84E080936E054EE150E0F0
:1011000063E270E0C7010E943B1C4FEF6FEF8FEF6F
:101110000E94881B4FEF6FEF8FEF0E949A1B87E0B2
:1011200090E00E94781F40E060E080E00E94881B11
:1011300040E060E080E00E949A1B85E090E00E9421
:10114000781F84EBA82EB12C00E010E098E0E92E87
:10115000F12CCC24C394D12C33E7832E42E0942E7F
:101160002ACF0F931F93CF93DF9342EF65EB87E274
:101170000E949A1B40E060E080E00E94881B24E10E
:1011800030E044E150E06BE570E08AE090E00E94DE
:10119000451B26E030E046E050E064E670E083E185
:1011A00090E00E94451B40E060E080E00E949A1BB6
:1011B00026E030E046E050E062E670E081E190E059
:1011C0000E94451B83E090E09093E5038093E40345
:1011D00087E00E949317892BD1F502E010E0C0E070
:1011E000D0E087E00E949317019741F460E08DE022
:1011F000DF91CF911F910F910C94BC17CE010E94EB
:10120000A81B6EE170E080E090E00E94281825960F
:10121000C43081E0D80729F7CFEFD0E087E00E9403
:101220009317019719F3CE010E94A81B6EE170E09D
:1012300080E090E00E9428182597CB3F8FEFD807D9
:1012400069F70130110521F201E010E0C8CFDF910C
:10125000CF911F910F910895EF92FF920F931F93DB
:10126000CF93DF93EC014FEF6FEF8FEF0E94881B5E
:1012700040E060E080E00E949A1B8AE5E82E85E06D
:10128000F82EF7018285938503E010E0B8010E94F3
:10129000C727C69FC001C79F900DD69F900D1124F0
:1012A0002AE230E045E050E0BC0180E090E00E949E
:1012B000451BF70182859385B8010E94C727C69F09
:1012C000C001C79F900DD69F900D11242AE230E0F7
:1012D00045E050E0BC018BE990E0DF91CF911F9198
:1012E0000F91FF90EF900C94451BCF93DF938BE011
:1012F0000E949317EC019093C3038093C2038091E3
:10130000E4039091E503029709F053C08091C00374
:101310009091C103C817D90709F44BC08CE00E9413
:1013200093178C179D07F9F08091E2039091E303E6
:1013300018161906F4F569E472E082E694E00E945A
:1013400031116FE472E082E694E00E9431118091E5
:10135000E2039091E3030E94DA038091E20390910B
:10136000E303019720C062E572E082E694E00E9408
:1013700031116FE472E082E694E00E9431118091B5
:10138000E2039091E3032091BE033091BF0321500B
:101390003109821793076CF40E94DA038091E2030B
:1013A0009091E30301969093E3038093E2030E94FC
:1013B0002C098091C2039091C3039093C103809341
:1013C000C003DF91CF910895EEE9F3E020E030E033
:1013D000408151814817590759F4220F331F220FBA
:1013E000331FF901E256FC4F0280F381E02D09948E
:1013F0002F5F3F4F34962830310551F708952091E3
:101400009C0330919D032830310594F4F901EE0FCF
:10141000FF1FEE0FFF1FE256FC4F91838083738303
:1014200062832F5F3F4F30939D0320939C03089569
:101430006FE572E082E694E00C9446112091BE03C1
:101440003091BF0362177307D1F46A307105A4F4B9
:101450009B01220F331FF901E857FC4F91838083D2
:10146000F901E353FC4F518340836F5F7F4F7093CB
:10147000BF036093BE0308956EE772E002C061E9A6
:1014800072E082E694E00C944611EF92FF920F9383
:101490001F93CF93DF936EE972E082E694E00E949F
:1014A000461182E090E09093E5038093E4038093FB
:1014B0006E054FEF6FEF8FEF0E945B1C40E060E026
:1014C00080E00E94881B4FEF6FEF8FEF0E949A1B06
:1014D00040E060E080E00E94881B24E130E044E1CD
:1014E00050E067E070E08AE090E00E94451B2AE04F
:1014F00030E045E050E067E070E086E190E00E9477
:10150000451B40E060E080E00E949A1B2AE030E04A
:1015100045E050E061E170E08DE090E00E94451B05
:101520004FEF6FEF8FEF0E949A1B40E060E080E08A
:101530000E94881B24E130E044E150E060E370E069
:101540008AE090E00E94451B40E060E080E00E945D
:101550009A1B4FEF6FEF8FEF0E94881B28E030E05F
:1015600048E050E06AE370E084E190E00E94451BAF
:1015700026E030E046E050E06AE370E08CE090E086
:101580000E94451B26E030E046E050E062E370E058
:1015900084E190E00E94451B4FEF6FEF8FEF0E94B8
:1015A0009A1B40E060E080E00E94881B24E130E06C
:1015B00044E150E06BE570E08AE090E00E94451B5A
:1015C00026E030E046E050E064E670E083E190E041
:1015D0000E94451B40E060E080E00E949A1B26E0EC
:1015E00030E046E050E062E670E081E190E00E9489
:1015F000451B08E813E0C0E0D0E083E0E82EF12CC2
:101600008091BE039091BF03C817D907E4F480917D
:10161000640590916505B7010E94C727C69FA00188
:10162000C79F500DD69F500D1124465F5F4F68E253
:1016300070E0F801819191918F010E943B1C2196ED
:10164000C330D105E9F6DF91CF911F910F91FF9043
:10165000EF9008958091E4039091E503009719F0CD
:10166000029739F008950E94450A80E090E00C94BA
:101670002C098091E2039091E303892BB9F542EFA5
:1016800065EB87E20E949A1B40E060E080E00E94E8
:10169000881B24E130E044E150E067E070E08AE03C
:1016A00090E00E94451B2AE030E045E050E067E012
:1016B00070E086E190E00E94451B40E060E080E041
:1016C0000E949A1B2AE030E045E050E061E170E0C2
:1016D0008DE090E00E94451B1092E5031092E40318
:1016E00064EF71E080E090E00E942818E091E2034E
:1016F000F091E303EE0FFF1FE353FC4F0190F081E5
:10170000E02D09944091C7035091C8032091C5036F
:101710003091C60342175307B4F49091E8009570D6
:10172000E1F39091E80092FD19C08093F10080915F
:10173000C7039091C80301968F739927892B19F4D9
:101740008EEF8093E8008091C7039091C8030196C3
:101750009093C8038093C70381E0089580E00895C3
:10176000DF92EF92FF920F931F93CF93DF93D82EC8
:101770008A017B01E40EF51EEB01CE15DF0571F049
:10178000D7FE03C0FE01849101C088810E94820BB4
:1017900021968111F2CF8FEF9FEF01C0C801DF9139
:1017A000CF911F910F91FF90EF90DF9008956150BE
:1017B00030F02091F100FC0120830196F8CF2898A9
:1017C00084E680938E050895CF92DF92EF92FF9288
:1017D0000F931F93CF93DF936C017A018B01C0E0CD
:1017E000D0E0CE15DF0589F0D8016D918D01D601CD
:1017F000ED91FC910190F081E02DC6010995892BB6
:1018000011F47E0102C02196ECCFC701DF91CF9188
:101810001F910F91FF90EF90DF90CF900895FC0102
:10182000918D828D981761F0828DDF01A80FB11D17
:101830005D968C91928D9F5F9F73928F90E008953B
:101840008FEF9FEF0895FC01918D828D981731F0F5
:10185000828DE80FF11D858D90E008958FEF9FEF49
:101860000895FC01918D228D892F90E0805C9F4F1F
:10187000821B91098F739927089582EB94E00E944F
:10188000310C21E0892B09F420E0822F0895FC011E
:10189000848DDF01A80FB11DA35ABF4F2C91848DF9
:1018A00090E001968F739927848FA689B7892C932E
:1018B000A089B1898C9180648C93938D848D9813C9
:1018C00006C00288F389E02D80818F7D8083089592
:1018D000EF92FF920F931F93CF93DF93EC0181E080
:1018E000888F9B8D8C8D981305C0E889F98980813C
:1018F00085FD24C0F62E0B8D10E00F5F1F4F0F7378
:101900001127E02E8C8DE8120CC00FB607FCFACF21
:10191000E889F989808185FFF5CFCE010E94470CC7
:10192000F1CF8B8DFE01E80FF11DE35AFF4FF082DE
:101930000B8FEA89FB898081806207C0EE89FF896D
:101940006083E889F98980818064808381E090E008
:10195000DF91CF911F910F91FF90EF900895CF935A
:10196000DF93EC01888D8823C9F0EA89FB898081A7
:1019700085FD05C0A889B9898C9186FD0FC00FB679
:1019800007FCF5CF808185FFF2CFA889B9898C91BA
:1019900085FFEDCFCE010E94470CE7CFDF91CF91BD
:1019A000089580E090E0892B29F00E943D0C811180
:1019B0000C9400000895CF93DF931F92CDB7DEB74C
:1019C0006983DC01ED91FC910280F381E02D41E01F
:1019D00050E0BE016F5F7F4F09950F90DF91CF916F
:1019E000089583E08093E9008091F200882319F044
:1019F0008AE38093E8000895FC018485958597FD2E
:101A00000BC09FB7F89482E08093E9008091F200C8
:101A10009FBF90E0019608959FB7F89482E080936D
:101A2000E9008091F2009FBF90E008950F931F930B
:101A3000CF93DF931F92CDB7DEB782E0898342E474
:101A400050E068EE70E080E80E94B00B0E948621B2
:101A5000DC0112960D911C9113970115110569F087
:101A6000D801ED91FC910280F381E02DBE016F5F02
:101A70007F4FC801099597FF07C089810F90DF91BB
:101A8000CF911F910F910895F80100851185E5CF41
:101A90008F929F92AF92BF92CF92DF92EF92FF927E
:101AA0000F931F93CF93DF935C016B018A018091A9
:101AB0000B01882309F45EC080918F05882309F407
:101AC00059C08091CB0380FF05C08091E000826007
:101AD0008093E000E8018AEFF82E93E0E92E2FE3EF
:101AE000822E3AE3932E209709F43DC08FB7F894E5
:101AF000E092E9009091E80095FF06C09091F20015
:101B0000282D291B922F01C090E08FBF91110AC090
:101B1000FA94FF2079F161E070E080E090E00E94AB
:101B20002818E1CF292F30E0C217D3070CF49C2FDF
:101B30008FB7F894E092E9002091E80025FF11C0EA
:101B4000292F30E0C21BD30BF601915020F04191B8
:101B50004093F100FACFC20ED31E9091E80095FF9A
:101B600013C08FBFC0CF5D9884E68093C903101661
:101B7000110644F081E090E0F5019383828380E0D8
:101B800090E005C0C80103C09092E800EACFDF9161
:101B9000CF911F910F91FF90EF90DF90CF90BF906A
:101BA000AF909F908F9008950F931F93CF93DF93E3
:101BB0001F92CDB7DEB78C01FC018485958597FF18
:101BC0000EC0CE0101960E945C21019719F4298173
:101BD00030E002C02FEF3FEFF80135872487F8018E
:101BE000848595850F90DF91CF911F910F91089576
:101BF000CF93DF931F92CDB7DEB7FC018485958527
:101C000097FD05C02FEF3FEF358724870BC0CE012E
:101C100001960E945C21019719F4898190E002C02D
:101C20008FEF9FEF0F90DF91CF9108950F931F9348
:101C3000CF93DF93EC0188819981009729F02A8165
:101C40003B812617370788F48B016F5F7F4F0E9417
:101C50002229009761F0998388831B830A832C8152
:101C60003D81232B11F4FC01108281E001C080E052
:101C7000DF91CF911F910F910895FC018081918197
:101C80000C948A28FC011182108213821282158220
:101C900014826115710551F0FB0101900020E9F7F4
:101CA0003197AF01461B570B0C94D01108951F922A
:101CB0000F920FB60F9211248F939F938091E100A2
:101CC0009091E100937F9093E10083FF0FC0109209
:101CD000E90091E09093EB001092EC0092E3909376
:101CE000ED0010928F0598E09093F00082FF20C0E5
:101CF00093E09093E9009091F200992319F09AE310
:101D00009093E8009091C903992339F09091C90309
:101D100091509093C903992389F190918E0599234D
:101D200039F090918E05915090938E05992341F151
:101D300084FF10C08091E2008E7E81608093E2007B
:101D40008091E1008F7E8093E1008091CB038E7EB5
:101D5000806111C080FF16C08091E2008E7E80619C
:101D60008093E2008091E1008E7E8093E10080917B
:101D7000CB038E7E81608093CB0304C05D9ACDCF70
:101D8000289AD6CF9F918F910F900FBE0F901F90E2
:101D900018951F920F920FB60F921124CF92DF92D7
:101DA000EF92FF920F931F932F933F934F935F9365
:101DB0006F937F938F939F93AF93BF93EF93FF9313
:101DC000CF93DF93CDB7DEB76C97DEBFCDBF109258
:101DD000E9008091E80083FFFAC168E0CE014596F2
:101DE0000E94D70B82EF8093E8008D8987FF05C0A2
:101DF0009091E80090FFFCCF03C09EEF9093E80025
:101E0000982F907609F0C6C09E892F89188D911160
:101E10000CC0803829F48091CC038093F10002C07B
:101E20001092F1001092F10047C1422F50E0512B67
:101E3000913051F4811140C14130510509F03CC14C
:101E40008091CC038D7F0BC0933061F4811134C13C
:101E50004130510509F030C18091CC0382608093FC
:101E6000CC032AC1953041F48091E80080FFFCCF7B
:101E700020682093E30020C1963009F05FC0EB8C0E
:101E8000FC8C1092E9001092C8031092C703123024
:101E900091F51092C6031092C5030E94160D99E0A9
:101EA000BE016F5F7F4FDB01E92F1D92EA95E9F7D5
:101EB00099831A8391E09E8390EA98879AEF998795
:101EC0002091C7033091C803275F3F4F3C832B838A
:101ED0008D831092E9001092C8031092C703F0920C
:101EE000C603E092C50349E050E080E00E94B00BD9
:101EF0000E94160DE1C0F092C603E092C5030E9455
:101F00008621DC011296ED90FC901397E114F10408
:101F100009F4C0C0D701ED91FC910480F581E02D5A
:101F2000BE016B5E7F4FC7010995009719F00CF059
:101F3000C3C0C6C0F701E084F184E8CF973009F44C
:101F4000BFC0983021F481E08093F100B5C0993092
:101F500009F0B2C0837009F0B3C0E9E1F1E081E0BB
:101F600021E036E39081992361F08093E90020938A
:101F7000EB0091919093EC003093ED008F5F8730F0
:101F800089F78EE78093EA001092EA008F898093A8
:101F90008F0592C08B8D9C8D1092E9001092C80322
:101FA0001092C7039093C6038093C503898D811156
:101FB00056C08E899D89913A59F4813209F080C0CA
:101FC00047E050E064E071E080E00E94B00B74C034
:101FD000913209F075C0833289F4888D90E0982F92
:101FE00088272F89822BA0E0B0E080930001909396
:101FF0000101A0930201B09303015EC0803269F435
:102000008091E80082FFFCCF67E084E091E00E94CD
:10201000D70B8BEF8093E80006C0823209F04CC0EA
:102020008F8980930B018091CA03882319F0EEEF0A
:10203000FAE002C0E0E0F8E080910401909105012F
:10204000A0910601B0910701803B9440A105B10524
:1020500009F088C080910B0180FFA0C083C00E945E
:102060008621DC0112960D911C9113970115110523
:1020700039F1D801ED91FC910190F081E02DBE0184
:102080006B5E7F4FC8010995811116C0F80100856C
:102090001185ECCF1130C1F0133091F48F89882372
:1020A00009F455C08230E9F440E86BE08AE391E03E
:1020B0000E949A21882321F08EEF8093E80087C048
:1020C00081E28093EB0083C08B8D9C8D089711F487
:1020D0001093C4038091C403811136C066E471E09B
:1020E00038C0813029F440E86BE08EE291E0E0CF27
:1020F000833031F70E948621DC011296ED90FC902E
:1021000013978E010F5F1F4F6801E114F10479F0FE
:10211000D701ED91FC910680F781E02DB801C70150
:102120000995080F111DF701E084F184EECFD80165
:102130001C92F60101900020E9F73197BF016C195C
:102140007D0940E0C601B4CF68E571E002C06AE2F3
:1021500071E06115710509F4B3CFFB01449150E0C2
:1021600080E833CF0FB6F894A8958091600088611D
:1021700080936000109260000FBEA895EE3F2AE0A9
:10218000F20739F08091FE0A9091FF0A91838083D3
:1021900093CF1092FF0A1092FE0A8ECFEE3F8AE094
:1021A000F80731F0808191819093FF0A8093FE0AB5
:1021B00087E797E7918380839BE088E10FB6F894E7
:1021C000A895809360000FBE9093600075CF6C96C9
:1021D0000FB6F894DEBF0FBECDBFDF91CF91FF9158
:1021E000EF91BF91AF919F918F917F916F915F918F
:1021F0004F913F912F911F910F91FF90EF90DF90A2
:10220000CF900F900FBE0F901F901895DC01ED91AD
:10221000FC910190F081E02D0994EF92FF920F93D1
:102220001F93CF93DF938C017B01C0E0D0E0F701D7
:10223000EC0FFD1F6491662361F0D801ED91FC91D4
:102240000190F081E02DC8010995892B11F02196AC
:10225000EECFCE01DF91CF911F910F91FF90EF90C4
:1022600008956115710579F0FB0101900020E9F7EF
:102270003197AF01461B570BDC01ED91FC910280B9
:10228000F381E02D099480E090E008950C943111E1
:102290001F920F920FB60F9211242F933F934F93DB
:1022A0005F936F937F938F939F93AF93BF93EF93BE
:1022B000FF9382EB94E00E94470CFF91EF91BF9156
:1022C000AF919F918F917F916F915F914F913F91CE
:1022D0002F910F900FBE0F901F9018951F920F9285
:1022E0000FB60F9211242F938F939F93EF93FF9329
:1022F000E091C204F091C3048081E091C804F091A0
:10230000C90482FD12C090818091CB048F5F8F73CE
:102310002091CC04821751F0E091CB04F0E0EE5410
:10232000FB4F958F8093CB0401C08081FF91EF918B
:102330009F918F912F910F900FBE0F901F90189526
:102340000E94EC29EF92FF920F931F93CF93DF939C
:10235000FC01248135816115710511F480E019C0FB
:1023600041155105A9F07B01EC018A01020F131FF1
:10237000B8010E94160E882389F3288139818C8147
:102380009D81B701820F931F0E94032A1D830C8336
:1023900081E0DF91CF911F910F91FF90EF90089511
:1023A000EF92FF920F931F93CF93DF93EC017B018A
:1023B0008A01BA010E94160E2881398181110DC04F
:1023C0002115310519F0C9010E948A281982188245
:1023D0001D821C821B821A8206C01D830C83B701DA
:1023E000C9010E94032ACE01DF91CF911F910F9165
:1023F000FF90EF9008954C7F38E0439FC001112477
:1024000030E043E0359527954A95E1F7822B932BF1
:10241000687F962B089508952F923F924F925F9276
:102420006F927F928F929F92AF92BF92CF92DF92E4
:10243000EF92FF920F931F93CF93DF93CDB7DEB749
:102440002D970FB6F894DEBF0FBECDBFFC016A30EA
:1024500069F424898685978538E0239F800D911D36
:1024600011249787868715861486E4C06D3009F499
:10247000E1C09D878C8754895983828993899D8384
:102480008C83A089B189BF83AE8386849784C484FA
:10249000D58480859185C816D906BCF0EC85FD856C
:1024A0004489242F30E084859585F6E04F9F800D88
:1024B000911D1124AC85BD851D969C938E931C9710
:1024C00056964C91411192C0B5C0EC85FD85828530
:1024D00093858816990614F7F981AF2EB12CC601A1
:1024E00026E0F29F800D911D112418161906B4F6EE
:1024F000C50123E0880F991F2A95E1F7880D991DE2
:10250000181619065CF655E0659FB00111241601F6
:102510001A82CB018C199D0999878887D401189656
:10252000BB87AA87BA81B53049F0E885F985E20D05
:10253000F31DE658FE4F24912B8301C01B8224011A
:1025400034013B8130FF13C0AC85BD85ED91FC911A
:10255000B981B13031F40480F581E02D2E813F81C5
:1025600019C00684F785E02DEE80FF801EC0EC8147
:10257000FD812E813F81E217F307F1F0AC85BD8527
:10258000ED91FC91B981B13059F40480F581E02DD1
:102590002C813D81A301B1018C859D8509950CC0DD
:1025A0000684F785E02DEC80FD8085019501A20170
:1025B000B6018C859D850995EB81E695EB83FFEF50
:1025C0006F1A7F0A4A0C5B1C2A853B8562167306CC
:1025D00009F0B7CF3A813F5F3A835FEF251A350A9A
:1025E000CA0CDB1C363009F09DCF58CF4AEF4203AE
:1025F000B001439F700D1124AC85BD8518964D9197
:102600005C911997460F571F481759079CF483E0B0
:10261000220F331F8A95E1F71E968D919C911F978B
:10262000280F391F1F963C932E931E971D961C92C0
:102630001E921C9781E090E02D960FB6F894DEBFB5
:102640000FBECDBFDF91CF911F910F91FF90EF9003
:10265000DF90CF90BF90AF909F908F907F906F90C2
:102660005F904F903F902F900895EF92FF920F93BD
:102670001F93DC01ED91FC9111971A960D911C911D
:102680001B9718962D913C9119970684F785E02D9C
:102690007B0140E050E060E070E009951F910F91F0
:1026A000FF90EF9008956F927F928F929F92AF92DA
:1026B000BF92CF92DF92EF92FF920F931F93CF932F
:1026C000DF936C015A014801EB013B01620E731E5E
:1026D000C615D70574F4D601ED91FC910084F185FF
:1026E000E02D87019401A501BE01C601099521963F
:1026F000EFCFDF91CF911F910F91FF90EF90DF907F
:10270000CF90BF90AF909F908F907F906F900895E3
:10271000EF92FF920F931F93DC01ED91FC91260F36
:10272000371F215031090680F781E02D78018A0199
:1027300009951F910F91FF90EF900895EF92FF92EE
:102740000F931F937801DC01ED91FC91240F351F4D
:102750008901015011090680F781E02D9B0109953F
:102760001F910F91FF90EF9008956F927F928F923B
:102770009F92AF92BF92CF92DF92EF92FF920F9310
:102780001F93CF93DF93EC014B015A01690138018C
:10279000E881F9810284F385E02D87010995E881BC
:1027A000F981A501460D571D415051090284F38559
:1027B000E02D9601B401CE010995E881F9810084EC
:1027C000F185E02D9301A501B401CE010995E881C1
:1027D000F981C80CD91CB601615071090084F185DA
:1027E000E02D9301A501CE010995DF91CF911F91B5
:1027F0000F91FF90EF90DF90CF90BF90AF909F90A0
:102800008F907F906F9008952F923F924F925F929A
:102810006F927F928F929F92AF92BF92CF92DF92F0
:10282000EF92FF920F931F93CF93DF9300D01F92ED
:10283000CDB7DEB74C017B836A836A01590117016A
:102840009801241B350B37FF03C0319521953109C1
:10285000C5014A815B81841B950B97FF03C091954D
:102860008195910951E059838217930714F01982D9
:102870000BC09A2D8B2D5801092F182F9A818B810F
:10288000DB82CA82C92ED82E8A819B81A816B906FE
:102890005CF49C2D8D2D6801092F182F9A818B8156
:1028A000BB82AA82A92EB82E2501AA81BB814A1A11
:1028B0005B0A38016C187D0877FE03C0719461943F
:1028C0007108720157FE03C0BFEFEB1AFB0AF594C3
:1028D000E794C016D1061CF00FEF1FEF1FC001E0F8
:1028E00010E01CC0D401ED91FC91B9810480F58108
:1028F000E02D9101BB23C1F04A815B81B601C40187
:102900000995E618F708F7FE04C0C00ED11EE40CC6
:10291000F51CEA81FB813196FB83EA834A815B8166
:10292000A416B506FCF604C0A6016A817B81E7CF38
:102930000F900F900F90DF91CF911F910F91FF900B
:10294000EF90DF90CF90BF90AF909F908F907F904F
:102950006F905F904F903F902F90089508958CBD99
:102960009DBD0895CF93DF93EC018D819E81DC01A5
:10297000ED91FC910480F581E02D0995181619065A
:1029800054F48D819E81DC01ED91FC910680F781EC
:10299000E02D0995EACFDF91CF9108958F929F9214
:1029A000AF92BF92CF92DF92EF92FF92CF93DF93DD
:1029B000EC016B010E9462184B015C01E12CF12CCF
:1029C0008D819E81DC01ED91FC910680F781E02DE7
:1029D000099597FF0FC00E946218DC01CB0188198E
:1029E0009909AA09BB098C159D05AE05BF0540F3E1
:1029F0008FEF9FEFDF91CF91FF90EF90DF90CF901F
:102A0000BF90AF909F908F900895FC0123813481F7
:102A10002627022E2295207F2025032E322F229555
:102A20002F700226269532272327220F220F220FEE
:102A30002025348323830895CF92DF92EF92FF9273
:102A40000F931F936801790100E010E020E030E06F
:102A50000E946D1C1F910F91FF90EF90DF90CF901F
:102A600008950F931F93CF93DF9300D01F92CDB79C
:102A7000DEB729E42983FC0126852A836B8300E0E5
:102A800010E020E030E043E050E0BE016F5F7F4F98
:102A9000848595850E941C1581E090E00F900F9031
:102AA0000F90DF91CF911F910F910895EF92FF92B8
:102AB0000F931F93CF93DF9300D0CDB7DEB77C0188
:102AC000FC018189882389F087E7898386858A8349
:102AD00000E010E020E030E042E050E0BE016F5F37
:102AE0007F4F848595850E941C15F701118A0F90F0
:102AF0000F90DF91CF911F910F91FF90EF9008956C
:102B00000F931F93CF93DF9300D01F92CDB7DEB703
:102B100022E72983FC0126852A8301E010E09E013B
:102B20002D5F3F4F42E050E0BE016F5F7F4F8485D5
:102B300095850E941C1581E09B81913009F080E011
:102B40000F900F900F90DF91CF911F910F910895EB
:102B50008F929F92AF92BF92CF92DF92EF92FF92AD
:102B60000F931F93CF93DF93CDB7DEB728970FB6A0
:102B7000F894DEBF0FBECDBF5C017B016AE773E056
:102B8000CE0101964C010E94420EC5010E945615CD
:102B900086E090E00E94F5278C01DC0111961C92E2
:102BA0001E9213961C921E92129715961C921E92BC
:102BB00014978815990549F069817A816115710525
:102BC00021F04D815E810E94D011F501108B0787A5
:102BD000C4010E943D0E63E873E0C4010E94420EEE
:102BE000D5011F968D919C9150970E94F71D4D81A4
:102BF0005E8169817A81F501878590890E94A211A1
:102C0000C4010E943D0ED5011F968D919C91509755
:102C10000E94F71DF7014481558160817181D501C2
:102C20001F968D919C9150970E94A21182E58F83EF
:102C3000D5011F96ED91FC9150970481158120815B
:102C4000318142E0C42ED12C740141E050E0BE013C
:102C5000695F7F4F1C968D919C911D970E946D1C02
:102C60008A81F5018687078510890115110531F0E4
:102C7000C8010E943D0EC8010E948A28D5015096C5
:102C80001C921E921F978981811103C081E0519689
:102C90008C93C5010E948015882339F064E670E0AA
:102CA00080E090E00E942818F4CF87E58F83F5013B
:102CB0008685888702E010E0940142E050E0BE0182
:102CC000695F7F4F848595850E941C15898190E0FE
:102CD000982F88272A81820F911D28960FB6F89485
:102CE000DEBF0FBECDBFDF91CF911F910F91FF903F
:102CF000EF90DF90CF90BF90AF909F908F9008950E
:102D0000EF92FF920F931F93CF93DF9300D01F9208
:102D1000CDB7DEB7FC012289211118C07C01138ACE
:102D20008FE4898380E48B8386858A839F012C5E70
:102D30003F4F00E410E043E050E0BE016F5F7F4F83
:102D4000848595850E941C15F701828B0F900F904A
:102D50000F90DF91CF911F910F91FF90EF90089509
:102D6000CF93DF93EC010E9480168A89882331F08B
:102D70008B89C80FD11D8C8990E002C08FEF9FEF27
:102D8000DF91CF910895CF93DF93EC010E948016DD
:102D90008A89882359F081508A8B8B8991E0980F1A
:102DA0009B8BC80FD11D8C8990E002C08FEF9FEFE5
:102DB000DF91CF910895CF93DF93EC010E948016AD
:102DC0008A8990E0DF91CF91089590E0FC013197DE
:102DD000EF30F105B0F5EA5AFF4F0C94DB278091F4
:102DE00080008F7703C0809180008F7D809380006A
:102DF000089580918000877FF9CF84B58F7702C0D6
:102E000084B58F7D84BD0895809190008F7707C031
:102E1000809190008F7D03C080919000877F809388
:102E2000900008958091C0008F7703C08091C0000A
:102E30008F7D8093C00008958091C200877F80932A
:102E4000C20008953FB7F89480915E0490915F04AA
:102E5000A0916004B091610426B5A89B05C02F3FE6
:102E600019F00196A11DB11D3FBFBA2FA92F982FB0
:102E70008827820F911DA11DB11DBC01CD0142E02B
:102E8000660F771F881F991F4A95D1F70895EF9213
:102E9000FF920F931F93DC01ED91FC9111971A960D
:102EA0000D911C911B9718962D913C9119970684B2
:102EB000F785E02D7B0140E050E060E070E009958F
:102EC0001F910F91FF90EF900895FC01868D88234C
:102ED00039F06EBD00000DB407FEFDCF8EB508952C
:102EE00028E030E090E8A1A1B2A186A5492F4623B1
:102EF00019F04C91842B03C04C91809584238C93C2
:102F0000A3A1B4A14C9187A5842B8C93A3A1B4A1B8
:102F10004C9187A5809584238C93969521503109F7
:102F200011F708950895CF93DF93282F30E0F9012A
:102F3000ED57F94F8491F901EE5EF84FD491F90104
:102F4000E15CF84FC491CC2391F081110E94E51609
:102F5000EC2FF0E0EE0FFF1FEB58F94FA591B49165
:102F6000EC91ED2381E090E021F480E002C080E06C
:102F700090E0DF91CF9108951F93CF93DF93282F97
:102F800030E0F901ED57F94F8491F901EE5EF84F09
:102F9000D491F901E15CF84FC491CC23C9F0162F0C
:102FA00081110E94E516EC2FF0E0EE0FFF1FEF5CA1
:102FB000F84FA591B4918FB7F894111105C09C9169
:102FC000ED2FE095E92302C0EC91ED2BEC938FBF40
:102FD000DF91CF911F910895CF93DF9390E0FC0193
:102FE000EE5EF84F2491FC01E15CF84F8491882358
:102FF00061F190E0880F991FFC01EE55F94FC591E2
:10300000D491FC01EF5CF84FA591B491611109C016
:103010009FB7F8948881209582238883EC912E2392
:103020000BC0623061F49FB7F8943881822F80958D
:1030300083238883EC912E2B2C939FBF06C08FB7E0
:10304000F894E8812E2B28838FBFDF91CF910895CC
:103050008F929F92AF92BF92CF92DF92EF92FF92A8
:103060006B017C010E9422174B015C01C114D10449
:10307000E104F104F1F00E942217DC01CB01881970
:103080009909AA09BB09883E9340A105B10570F3CF
:1030900021E0C21AD108E108F10888EE880E83E029
:1030A000981EA11CB11CC114D104E104F10419F74C
:1030B000DDCFFF90EF90DF90CF90BF90AF909F90CB
:1030C0008F9008952FB7F89460915A0470915B0423
:1030D00080915C0490915D042FBF08951F920F9220
:1030E0000FB60F9211242F933F938F939F93AF931B
:1030F000BF9380915A0490915B04A0915C04B091BD
:103100005D043091590423E0230F2D3720F40196FC
:10311000A11DB11D05C026E8230F0296A11DB11DFA
:103120002093590480935A0490935B04A0935C0409
:10313000B0935D0480915E0490915F04A09160045F
:10314000B09161040196A11DB11D80935E0490931E
:103150005F04A0936004B0936104BF91AF919F910D
:103160008F913F912F910F900FBE0F901F90189548
:103170000F931F93CF93DF931F92CDB7DEB78C01D0
:10318000DC015E968C915E97882341F05F968D916D
:103190009C91909769830E94AF146981D80197969A
:1031A000ED91FC9198979081D1968C91D197892B34
:1031B00080839596ED91FC9196979081D0968C9115
:1031C000809589238083C8010E946517D801959650
:1031D000ED91FC9196979081D0968C91892B80836C
:1031E0000F90DF91CF911F910F9108950F931F932F
:1031F000CF93DF931F92CDB7DEB78C01DC015E96D3
:103200008C915E97882341F05F968D919C91909769
:1032100069830E94AF146981D8019796ED91FC9162
:1032200098979081D1968C91D197809589238083AE
:103230009596ED91FC9196979081D0968C91809582
:1032400089238083C8010E946517D8019596ED9166
:10325000FC9196979081D0968C91892B80830F90CA
:10326000DF91CF911F910F910895611102C060E22B
:1032700001C061E20C94F618EF92FF920F931F9336
:10328000CF93DF9300D0CDB7DEB77C01162F6AE273
:1032900029834A830E94F61860E0C7010E94B8188B
:1032A000F70182A9612F680FC7010E94B81860E07A
:1032B000C7010E94B818F70182A92981622F680FFF
:1032C000C7010E94B8186BE2C7010E94F61860E0BF
:1032D000C7010E94B818F70183A94A81642F680FBB
:1032E000C7010E94B81860E0C7010E94B818F70132
:1032F00083A9602F680FC7010E94B8186CE2C7014C
:103300000F900F90DF91CF911F910F91FF90EF9051
:103310000C94F618AF92BF92CF92DF92EF92FF9289
:103320000F931F93CF93DF93EC0159016801288518
:103330003985621773070CF066C08A859B8548172C
:1033400059070CF060C0FB01EA0DFB1D2E173F076B
:103350001CF45901A61AB70A9A012C0D3D1D8217BB
:1033600093071CF46C01C41AD50A8D8D823091F438
:103370009701207E3770C701982F8827990F990FE2
:10338000990F822B932BEF2CFF24E694E694E6947E
:10339000E82AF92A0FEF040F0C0D2FEF260F2A0D44
:1033A000CE010E943C198E8D882321F08F8D98A12B
:1033B0000E94AF14EFA1F8A5908189A9892B808381
:1033C000EDA1FEA1908188A98095892380831C149A
:1033D0001D049CF48501101611065CF46F2DCE01BE
:1033E0000E9465176E2DCE010E94651701501109CC
:1033F000F2CF81E0C81AD108EACFEDA1FEA19081F9
:1034000088A9892B8083DF91CF911F910F91FF9025
:10341000EF90DF90CF90BF90AF900895CF92DF9262
:10342000EF92FF920F931F93CF93DF93EC0169010B
:10343000780188859985681779070CF054C02A852A
:103440003B85421753070CF04EC09B012C0D3D1DD0
:10345000821793071CF46C01C61AD70A2FEF260FA8
:103460002C0D042FCE010E943C198D8D823091F4D9
:103470009701207E3770C701982F8827990F990FE1
:10348000990F822B932BEF2CFF24E694E694E6947D
:10349000E82AF92A8E8D882321F08F8D98A10E9429
:1034A000AF14EFA1F8A5908189A9892B8083EDA1A4
:1034B000FEA1908188A9809589238083C114D104BD
:1034C00061F06F2DCE010E9465176E2DCE010E9416
:1034D000651781E0C81AD108F1CFEDA1FEA1908156
:1034E00088A9892B8083DF91CF911F910F91FF9045
:1034F000EF90DF90CF900895CF92DF92EF92FF92FE
:103500000F931F93CF93DF93EC01690178018885B6
:103510009985681779070CF055C08A859B854817EF
:1035200059070CF04FC09A012C0D3D1D82179307CF
:103530001CF46C01C41AD50A0FEF040F0C0D262FD2
:10354000CE010E943C198D8D823091F49701207E2E
:103550003770C701982F8827990F990F990F822BE1
:10356000932BEF2CFF24E694E694E694E82AF92ABC
:103570000F2D8E8D882321F08F8D98A10E94AF147E
:10358000EFA1F8A5908189A9892B8083EDA1FEA1E7
:10359000908188A9809589238083C114D10461F02A
:1035A000602FCE010E9465176E2DCE010E94651717
:1035B00081E0C81AD108F1CFEDA1FEA1908188A9C0
:1035C000892B8083DF91CF911F910F91FF90EF9016
:1035D000DF90CF900895EF92FF920F93CF93DF93F8
:1035E000EC01790177FD4BC08885998568177907CB
:1035F0000CF045C057FD43C08A859B854817590785
:10360000F4F501E0040F21E0260FCE010E943C19E1
:103610008E8D882321F08F8D98A10E94AF14EFA189
:10362000F8A5908189A9892B8083EDA1FEA19081C5
:1036300088A98095892380838D8D823091F49701AC
:10364000207E3770C701982F8827990F990F990FFF
:10365000822B932BEF2CFF24E694E694E694E82A41
:10366000F92A6F2DCE010E9465176E2DCE010E94A2
:103670006517EDA1FEA1908188A9892B8083DF9138
:10368000CF910F91FF90EF9008958F929F92AF92FC
:10369000BF92CF92DF92EF92FF920F931F93CF933F
:1036A000DF93EC016B015A01490180917605882373
:1036B00091F0E0915A05F0915B05E0907405F0906F
:1036C00075050684F785E02D89019A01AB01BE01DD
:1036D0008AE595E0099580917305882361F0E09073
:1036E0007105F090720584019501A601BE018AE57D
:1036F00095E00E94B513DF91CF911F910F91FF903C
:10370000EF90DF90CF90BF90AF909F908F900895F3
:10371000242F462F682F8AE595E00E94FB11EAE5E9
:10372000F5E021E0218F908F878B918B808B938B9D
:10373000828B0895242F462F682F8AE595E00E94FA
:10374000FB11EAE5F5E021E0248F938F828F089545
:10375000CF93DF93EC0161E08DE00E94EC1720979E
:1037600011F460E004C0CF3FD10531F461E08DE099
:10377000DF91CF910C94BC17E0E9F6E0E4918E2F35
:1037800090E0FC013197EF30F10508F06CC0EB5987
:10379000FF4F0C94DB2784B5806884BDC7BD68C02B
:1037A00084B5806284BDC8BD63C08091800080689C
:1037B00080938000D0938900C093880059C0809185
:1037C0008000806280938000D0938B00C0938A0039
:1037D0004FC080918000886080938000D0938D00DE
:1037E000C0938C0045C080919000806880939000C9
:1037F000D0939900C09398003BC080919000806264
:1038000080939000D0939B00C0939A0031C0809128
:103810009000886080939000D0939D00C0939C009E
:1038200027C08091C00080688093C0008091C00054
:103830008F7B8093C000C093CF001AC08091C000DE
:1038400080628093C000C093D00012C08091C200FB
:1038500088608093C2008091C2008B7F8093C200F9
:10386000C093D20005C0C038D1050CF07FCF79CF0E
:10387000DF91CF910895209173052223D9F0109202
:103880007005209171053091720530936B0520937E
:103890006A0530936D0520936C05709367056093FE
:1038A00066055093690540936805BC018AE595E07B
:1038B0000C9446110895242F462F682F8AE595E031
:1038C0000E94FB11E0915A05F0915B050088F18997
:1038D000E02DBC018AE595E009942F923F924F922A
:1038E0005F926F927F928F929F92AF92BF92CF9290
:1038F000DF92EF92FF920F931F93CF93DF93CDB799
:10390000DEB72B970FB6F894DEBF0FBECDBF9B87F7
:103910008A875B011901FD82EC823A01600E711EFB
:10392000872C7B82912C44244A94542C9B01240F95
:10393000351F3F832E839101200F311F3987288740
:10394000EA85FB858085981608F036C1AA85BB8577
:1039500014965C924E92139715968D919C911697A2
:10396000DC01ED91FC910190F081E02D6FEF099564
:103970006FEF8A859B850E940515EA85FB85858109
:103980009681DC01ED91FC910190F081E02DAA85FA
:10399000BB856C910995EA85FB856081CF010E940A
:1039A0000515AA85BB8515968D919C911697DC010E
:1039B000ED91FC910190F081E02D682D09956B81CE
:1039C0008A859B850E940515EA85FB858581968100
:1039D000DC01ED91FC910190F081E02D662D0995BF
:1039E000662D8A859B850E94051575012E813F8174
:1039F000E216F306B1F0EA85FB85858196818701A1
:103A0000DC01ED91FC910190F081E02DD7016D91E9
:103A10007D010995F80160818A859B850E940515C5
:103A2000E5CF7101AA85BB8515968D919C9116975E
:103A300028853985E216F30691F08701DC01ED91C6
:103A4000FC910190F081E02DD7016D917D010995E8
:103A5000F80160818A859B850E940515E3CFDC0112
:103A6000ED91FC91AA85BB8514966C910190F08133
:103A7000E02D0995EA85FB8585819681DC01ED9134
:103A8000FC910190F081E02DAA85BB8513966C9185
:103A9000099564E670E08A859B850E94CE148F3F6D
:103AA000910509F07DC0EA85FB85548243826FEF62
:103AB000CF010E94051565E070E08A859B850E9414
:103AC000CE14AA85BB856C91262F30E08217930710
:103AD00009F066C0CD010E9405156AE070E08A8594
:103AE0009B850E94CE147C0197FD5AC0682F8A8561
:103AF0009B850E9405156AE070E08A859B850E947F
:103B0000CE148C0197FD4CC0682F8A859B850E943E
:103B10000515EA821982E981FA810E0F1F1FE12C37
:103B2000F12C65E070E08A859B85E016F106A9F02E
:103B3000EC14FD0491F00E94CE1497FD0AC0EC81B4
:103B4000FD81EE0DFF1D8083682F8A859B850E9475
:103B50000515FFEFEF1AFF0AE4CF0E94CE147C0197
:103B600097FD1EC065E070E08A859B850E94CE149B
:103B700097FD16C0FE2CEE248E0D9F1DAA85BB85D9
:103B800013962D913C9114972817390749F48C917D
:103B90008F5F8C93C801C016D10680F4C6010EC099
:103BA000939464E670E080E090E00E9428188A8593
:103BB0009B850E94B214C4CE8FEF9FEF2B960FB659
:103BC000F894DEBF0FBECDBFDF91CF911F910F9153
:103BD000FF90EF90DF90CF90BF90AF909F908F902D
:103BE0007F906F905F904F903F902F9008950F932C
:103BF0001F93CF93DF93EC010C811D810F5F1F4F4B
:103C0000B8010E94160E882369F0288139818C81C1
:103C10009D8166E873E0820F931F0E94032A1D8333
:103C20000C8381E0DF91CF911F910F910895CF9385
:103C3000DF9366E38AE595E00E94F618CAE5D5E0D1
:103C400081E08D8B68EACE010E94B81880EA90E08E
:103C50009987888780E890E09B878A87DF91CF915A
:103C60000895CF92DF92EF92FF920F931F93CF931D
:103C7000DF9310928D0510928C0561E08091840590
:103C80000E94EC1761E0809183050E94EC178091FF
:103C9000830590E0FC01E15CF84FE491F0E0EE0F69
:103CA000FF1FEF5CF84F25913491309380052093EE
:103CB0007F05FC01EE5EF84FE491E0938A05809168
:103CC000840590E0FC01E15CF84FE491F0E0EE0F38
:103CD000FF1FEF5CF84F25913491309382052093BC
:103CE0008105FC01EE5EF84FE491E0938B05809135
:103CF0007805882309F439C0CFB7F89480919C05E2
:103D0000811127C0E0E5F7E08491E3E2F7E09491C8
:103D1000E82FF0E0EE0FFF1FEE55F94FA591B4919B
:103D2000EC91E92321F461E081E10E94BC1761E09C
:103D300081E10E94EC178CB580618CBD8CB58064EC
:103D40008CBD61E08FE00E94EC1761E080E10E9491
:103D5000EC1780919C058F5F80939C05CFBF80E519
:103D60008093790510927A0549C061E080918705BA
:103D70000E94EC1761E0809186050E94EC1780910B
:103D8000870590E0FC01E15CF84FE491F0E0EE0F74
:103D9000FF1FEF5CF84FA591B491B0937E05A093FF
:103DA0007D05FC01EE5EF84F84918093890520919A
:103DB000860530E0F901E15CF84FE491F0E0EE0FA8
:103DC000FF1FEF5CF84F4591549150937C05409351
:103DD0007B05F901EE5EF84FE491E09388059C9134
:103DE000E82FE095E923EC93E0917B05F0917C05C9
:103DF000908180918805809589238083E0917F055B
:103E0000F0918005908180918A0580958923808337
:103E100080918505882321F161E00E94EC1761E023
:103E2000809185050E94BC1764EF71E080E090E00E
:103E30000E94281860E0809185050E94BC1764EFFD
:103E400071E080E090E00E94281861E08091850593
:103E50000E94BC1764EF71E080E090E00E94281897
:103E6000E0EBF6E01491C1EBD6E0112309F437C082
:103E7000FE0164918AE595E00E94F6186E01F2E079
:103E8000CF0ED11CFE013196C4910C2F0078CF7754
:103E90007601DC2FD15050F0F70164918AE595E06E
:103EA0000E94B818FFEFEF1AFF0AF4CFC6018C0F7B
:103EB000911DEC01002389F07C019FEFE91AF90ABA
:103EC000FE01649170E06F3F710511F464EF71E0E1
:103ED00080E090E00E942818E7011150C6CFDF91E2
:103EE000CF911F910F91FF90EF90DF90CF900895A9
:103EF0002F923F924F925F926F927F928F929F92FA
:103F0000AF92BF92CF92DF92EF92FF920F931F93E7
:103F1000CF93DF9300D000D000D0CDB7DEB71C0127
:103F2000892B09F4B0C180917605811162C080911E
:103F30007305882309F4A7C1E0917105F09172051A
:103F4000FA83E98381E090E07C01E218F3084424DD
:103F5000552442185308440C551CE0915A05F09121
:103F60005B050480F581E02D29813A81A101475943
:103F70005F4F6EE170E08AE595E00995E0915A05A2
:103F8000F0915B0549E650E0421953090480F58140
:103F9000E02D29813A816EE170E08AE595E009958E
:103FA000E0915A05F0915B050480F581E02D2981AF
:103FB0003A8149E650E0B101625E7F4F8AE595E0C3
:103FC0000995E0915A05F0915B056EE170E0621988
:103FD00073090480F581E02D29813A8149E650E09A
:103FE0008AE595E0099500E010E066246394712C61
:103FF00046C16090740570907505E0915A05F09186
:104000005B059101220F331F2F5F3F4F49E650E0C0
:10401000421953090084F185E02D83016EE170E0BF
:104020008AE595E0099581E090E04C0182189308BB
:1040300088279927821993095C01AA0CBB1C3E8230
:104040002D82E12CF12CCC24C394D12CAD81BE81E6
:10405000EA16FB060CF06BCF97FC0BC04D815E811E
:10406000415051095E834D8352E0A50EB11C8A0C6C
:104070009B1C8FEFE81AF80A92E0C90ED11C8C0C39
:104080009D1C4D805E80440C551CAFEF4A1A5A0AA5
:10409000E0915A05F0915B05B701625E7F4F0084A5
:1040A000F185E02D8301920149E650E08D819E81EA
:1040B000481B590B5A8349838AE595E00995A9E67F
:1040C000B0E0AE19BF09BC83AB83E0915A05F09113
:1040D0005B050084F185E02D9601AD016D817E8147
:1040E000625E7F4F8AE595E00995E0915A05F0916F
:1040F0005B056EE170E06E197F090084F185E02DAB
:10410000920149815A818AE595E00995E0915A0525
:10411000F0915B050084F185E02D96014B815C8177
:104120006EE170E08D819E81681B790B8AE595E0D8
:1041300009958CCFF7FC08C0F1E02F1A310842E056
:10414000440E511CE40CF51C0F5F1F4F52E0650E2E
:10415000711CE60CF71C48018EE1880E911CE09161
:104160005A05F0915B050480F581E02D29813A81A3
:10417000610199E6C90ED11CA601B4018AE595E05A
:1041800009958EE1A82EB12CA01AB10AE0915A052A
:10419000F0915B050480F581E02D29813A81A6012B
:1041A000B5018AE595E00995E0915A05F0915B0526
:1041B0000480F581E02D29813A8199E6C92ED12C20
:1041C000C218D308A601B4018AE595E00995E091EB
:1041D0005A05F0915B050480F581E02D29813A8133
:1041E000A601B5018AE595E009956801A9E6CA0E20
:1041F000D11CE0915A05F0915B050480F581E02D1A
:1042000029813A81A6015101BEE1AB0EB11CB50175
:104210008AE595E00995E0915A05F0915B050480E7
:10422000F581E02D29813A81A6016EE1C62ED12CBF
:10423000C218D308B6018AE595E0099579E6872E7C
:10424000912C801A910AE0915A05F0915B05048047
:10425000F581E02D29813A81A401B5018AE595E037
:104260000995E0915A05F0915B050480F581E02DF8
:1042700029813A81A401B6018AE595E009950215E4
:1042800013050CF457CF26960FB6F894DEBF0FBE79
:10429000CDBFDF91CF911F910F91FF90EF90DF90F5
:1042A000CF90BF90AF909F908F907F906F905F90D6
:1042B0004F903F902F900895FC0180918F058111C0
:1042C00003C08FEF9FEF08959FB7F89482E080932B
:1042D000E9002091F20030E01216130614F421E0F8
:1042E00030E02115310559F0289884E680938E0539
:1042F0008091F10080838091F200882319F09FBFA4
:10430000C90108958BE68093E800F9CF8091940568
:1043100081110DC082E08093900584E08093910527
:10432000109293051092920581E08093940580E9A4
:1043300095E00895CF92DF92EF92FF920F931F9333
:10434000CF93DF931F92CDB7DEB7182F062FE42E41
:10435000862F880F8E5F99830E94820B83E00E94D4
:10436000820BF12EC12E9981D92E8C2D8F19801799
:1043700098F4F601E7FE02C0849101C080810E949A
:10438000820B182F80E00E94820B8123FFEFCF1A4F
:10439000DF0A8111EACF01C081E00F90DF91CF9158
:1043A0001F910F91FF90EF90DF90CF900895CF93E2
:1043B000DF93CDB7DEB7CE5BD1090FB6F894DEBF81
:1043C0000FBECDBF789484B5826084BD84B5816012
:1043D00084BD85B5826085BD85B5816085BD8091D0
:1043E0006E00816080936E00109281008091810048
:1043F0008260809381008091810081608093810040
:104400008091800081608093800080919100826023
:1044100080939100809191008160809391008091C0
:1044200090008160809390008091C10084608093AF
:10443000C1008091C10082608093C1008091C10061
:1044400081608093C1008091C30081608093C3002C
:104450008091C00082608093C0008091C200816022
:104460008093C20080917A00846080937A0080916A
:104470007A00826080937A0080917A0081608093D4
:104480007A0080917A00806880937A0010928F057C
:104490001092CC031092CB038091D700816080935F
:1044A000D70080EA8093D80089B5806189BD89B53D
:1044B000826089BD09B400FEFDCF61E070E080E05C
:1044C00090E00E9428188091D8008F7C80618093B2
:1044D000D8008091E000807F8093E0008091E1002F
:1044E0008E7E8093E1008DE08093E200559A209AC1
:1044F000EEEFFFE7859194918B3F9C4D19F481E09D
:104500008093CA038FEF9FEF90936F0480936E04A4
:10451000E0915805F0915905A089B18982E08C930A
:10452000A485B5851C92A685B78587E08C93108EEF
:10453000A489B58986E08C93A289B3898C91806126
:104540008C93A289B3898C9188608C93A289B3895A
:104550008C9180688C930288F389E02D80818F7D17
:104560008083809156058111D4C081E080935605E7
:104570008FE495E00E94B21468EE73E080E090E072
:104580000E9428188091540590915505DC01ED9109
:10459000FC910480F581E02D09951816190644F365
:1045A00045E0F42EEE24E39452E3D52EEFE1F1E062
:1045B000DE01AB59BF4F8F2D01900D928A95E1F727
:1045C000E092570500E010E020E030E045E050E0E8
:1045D000BE016B597F4F8FE495E00E941C1563E08C
:1045E00080915405909155050E9406116AEF70E084
:1045F00080E090E00E94281868E771E080915405FF
:10460000909155050E940D116AEF70E080E090E0F6
:104610000E94281866E771E0809154059091550535
:104620000E940D1164EF71E080E090E00E94281874
:104630006AE671E080915405909155050E940D1134
:1046400064EF71E080E090E00E9428188FE495E02C
:104650000E94B214E4E2F1E0DE0111968F2D019088
:104660000D928A95E1F7D092570504E010E09E0183
:1046700027543F4F45E050E0BE016F5F7F4F8FE40E
:1046800095E00E941C158F3FBFEF9B0739F468EE41
:1046900073E080E090E00E94281888CFC754DF4F75
:1046A0002881C95BD0402111FFCF049749F5C6543A
:1046B000DF4F2881CA5BD04030E02053310984E6C7
:1046C000829FA001839F500D1124C554DF4F288184
:1046D000CB5BD04030E0205331096AE0629FC001DB
:1046E000639F900D1124840F951FC454DF4F2881C0
:1046F000CC5BD04030E020533109820F931F02C0C1
:1047000084E690E0909351058093500582E3809376
:1047100057050E94311E0E94171E61E085E00E942D
:10472000EC1761E08DE00E94EC1760E08BE00E94E6
:10473000EC1760E08CE00E94EC1760E083E00E94E0
:10474000EC1760E087E00E94EC1760E086E00E94D2
:10475000EC1760E083E00E94EC1761E083E00E94C8
:10476000BC1761E082E00E94EC1761E082E00E94E9
:10477000BC1761E085E00E94BC170E94311E0E94B8
:10478000171E63EA72E082E694E00E9446114BE550
:1047900056E060E070E086EE91E00E941E0A43E27F
:1047A00054E061E070E089EA92E00E941E0A41EB69
:1047B00058E062E070E081EB92E00E941E0AE09116
:1047C000CD03F091CE0309956AED76E083E090E0A9
:1047D0000E94FF0969E674E082E090E00E94FF0910
:1047E00065E779E084E090E00E94FF096AE27BE0FF
:1047F00085E090E00E94FF090E94621860935004D7
:104800007093510480935204909353040E94621851
:104810006093540470935504809356049093570406
:1048200028EE422E23E0522E612C712C0DE211E075
:104830003FE4A32E35E0B32E992493940E9462188E
:10484000C0905404D0905504E0905604F090570462
:10485000DC01CB018C199D09AE09BF090B97A1059D
:10486000B10578F184E090E00E94E40987E00E94BD
:104870009317019751F46AEB72E082E694E00E948C
:10488000461182E090E00E94E40986E00E949317BE
:10489000019721F483E090E00E94E40983E00E9404
:1048A0009317892B21F485E090E00E94E4090E948F
:1048B0006218609354047093550480935604909347
:1048C00057040E946218C0905004D0905104E090A8
:1048D0005204F0905304DC01CB018C199D09AE0900
:1048E000BF0981369A4EA105B10508F4C6C26FEB27
:1048F00072E082E694E00E94461142EF65EB87E2A7
:104900000E94881B42EF65EB87E20E949A1B27E01A
:1049100030E048E250E060E070E080E090E00E942B
:10492000451B27E030E044E150E060E070E086E4C1
:1049300090E00E94451B27E030E048E250E060E054
:1049400070E088E790E00E94451B27E030E048E2F5
:1049500050E069E770E080E090E00E94451B27E0AE
:1049600030E044E150E069E770E086E490E00E94C6
:10497000451B27E030E048E250E069E770E088E757
:1049800090E00E94451B4DE466EE8FEF0E94881B6D
:104990004DE466EE8FEF0E949A1B27E030E04EE177
:1049A00050E060E070E088E290E00E94451B27E064
:1049B00030E04EE150E060E070E08AE590E00E9477
:1049C000451B27E030E04EE150E069E770E08AE502
:1049D00090E00E94451B27E030E04EE150E069E79F
:1049E00070E088E290E00E94451BA9961FAE1EAEC3
:1049F000A997AD964CAE5DAE6EAE7FAEAD97A79665
:104A00001FAF0EAFA797E396BFAEAEAEE397E796A4
:104A10001FAEE797E8961FAEE897E9961FAEE997B5
:104A200065EC72E0CE0101960E94420EBE016F5FFE
:104A30007F4FCE018B599F4F0E94A8157C01CE015C
:104A400001960E943D0EEF2809F093C0CE018B59CC
:104A50009F4F0E9480158111F9CF66EF72E082E6C8
:104A600094E00E944611CE0101967C01CE018B5943
:104A70009F4F0E948016E8968FADE897882371F0CB
:104A8000CE018B599F4F0E94C316D7018D937D0194
:104A9000682F82E694E00E940611E8CF6BEF72E087
:104AA00082E694E00E94461162E073E0CE01019636
:104AB0000E940A2A60E572E080E090E00E940A2AE3
:104AC0007C01BC0182E694E00E94461164E073E040
:104AD000C7010E94FA29892B41F58091E1038111D8
:104AE00024C067E172E0CE0187549F4F0E94420EBE
:104AF000BE0167547F4FCE018B599F4F0E94A8156E
:104B00007C01CE0187549F4F0E943D0EEF2889F50E
:104B10009092E10369E073E082E694E00E9446111E
:104B200083E090E00E94E40924C06CE073E0C701D8
:104B30000E94FA29892BE9F48091E1038823C9F0C6
:104B40006EE971E0CE0187549F4F0E94420EBE0174
:104B500067547F4FCE018B599F4F0E94A8157C014F
:104B6000CE0187549F4F0E943D0EEF2811F4109202
:104B7000E10362E173E0CE0101960E94420EBE01A4
:104B80006F5F7F4FCE018B599F4F0E94A8157C010C
:104B9000CE0101960E943D0EEF2819F5CE018B59EA
:104BA0009F4F0E9480158111F9CF96EEE92E93E078
:104BB000F92ECE018B599F4F0E948016E8968FAD3B
:104BC000E897882371F0CE018B599F4F0E94C3163E
:104BD000F70181937F01682F82E694E00E9406111D
:104BE000E8CFA7961FAF0EAFA797CE018B599F4F67
:104BF0000E94561560E572E086EE93E00E940A2A54
:104C000090934B0480934A0460E572E080E090E06A
:104C10000E940A2A90934D0480934C0460E572E050
:104C200080E090E00E940A2A90934F0480934E0403
:104C30008AE4E82E84E0F82E64E473E0D7018D91D5
:104C40009D917D010E940A2A6C0166E473E00E9436
:104C5000FA29892B61F560E572E080E090E00E941E
:104C60000A2A909311018093100140E060E080E0F7
:104C70000E94881B40E060E080E00E949A1B24E1D3
:104C800030E040E550E06AE070E081E490E00E94AE
:104C9000451B4FEF6FEF8FEF0E94881B4AE050E0FB
:104CA00061E470E0809110019091110165C061E5AF
:104CB00073E0C6010E94FA29892B61F560E572E074
:104CC00080E090E00E940A2A90930F0180930E01E9
:104CD0004FEF6FEF8FEF0E94881B4FEF6FEF8FEF5B
:104CE0000E949A1B24E130E040E550E067E370E069
:104CF0008CE390E00E94451B43E463E487EF0E944D
:104D0000881B47E350E06CE370E080910E019091C6
:104D10000F0132C06CE573E0C6010E94FA29892BAD
:104D200069F560E572E080E090E00E940A2A9093C5
:104D30000D0180930C014FEF6FEF8FEF0E94881BE6
:104D40004FEF6FEF8FEF0E949A1B24E130E040E5B8
:104D500050E064E670E08CE390E00E94451B42EF77
:104D600065EB87E20E94881B44E650E06CE370E04C
:104D700080910C0190910D010E943B1CB0E5EB1657
:104D8000B4E0FB0609F058CF67E673E082E694E0F2
:104D90000E9446110E94621860935004709351045F
:104DA00080935204909353048091E4039091E5031F
:104DB00081309105E1F064F4892B09F05EC040E098
:104DC00060E080E00E94881B40E060E080E035C049
:104DD0008230910549F1039709F04FC04FEF6FEF13
:104DE0008FEF0E94881B4FEF6FEF8FEF26C042EFCF
:104DF00065EB87E20E94881B42EF65EB87E20E9429
:104E00009A1B27E030E048EC50E060E070E080E082
:104E100090E00E94451B42EF65EB87E20E94881BF1
:104E200042EF65EB87E21DC00E94450A8091E203D4
:104E30009091E3030E942C0920C00E949A1B27E056
:104E400030E048EC50E060E070E080E090E00E94EC
:104E5000451B4FEF6FEF8FEF0E94881B4FEF6FEFF7
:104E60008FEF0E949A1B27E030E048EC50E069E7A2
:104E700070E080E090E00E94451B6AE070E080E016
:104E800090E00E9428180E94D10CD8CCE2EBF4E00C
:104E90001382128248EE53E060E070E04483558351
:104EA000668377838DE391E0918380838DEC90E03E
:104EB000958784878CEC90E09787868788EC90E0D4
:104EC000918B808B89EC90E0938B828B8AEC90E0C5
:104ED000958B848B8EEC90E0978B868B118E128E47
:104EE000138E148EA2E6B4E013961C921E921297B3
:104EF00014964D935D936D937C9317978DE491E099
:104F000011969C938E932FEF3FEF1D963C932E931B
:104F10001C97AFE4B5E01C921696FC93EE931597A0
:104F200017961C92179718961C9218971A96FC932E
:104F3000EE931997EAE5F5E01382128240E850E01B
:104F40005583448360EA70E077836683158A15860B
:104F500014861786168681E0848B338B228B318BE7
:104F6000208B868B90E5978F10A29AE091A799E00D
:104F700092A798E093A7868F15A614A685E791E0DF
:104F8000918380837187608753874287089597FB59
:104F9000072E16F4009407D077FD09D00E94E12770
:104FA00007FC05D03EF4909581959F4F089570952C
:104FB00061957F4F0895EE0FFF1F0590F491E02D4E
:104FC0000994AA1BBB1B51E107C0AA1FBB1FA61750
:104FD000B70710F0A61BB70B881F991F5A95A9F7A2
:104FE00080959095BC01CD010895CF93DF938230D9
:104FF000910510F482E090E0E091A105F091A20506
:1050000020E030E0C0E0D0E0309711F140815181E4
:1050100048175907C0F04817590761F482819381F6
:10502000209719F09B838A832BC09093A2058093CD
:10503000A10526C02115310519F04217530718F4B0
:105040009A01BE01DF01EF010280F381E02DDCCF88
:105050002115310509F1281B390B2430310590F455
:1050600012968D919C9113976115710521F0FB01AA
:105070009383828304C09093A2058093A105FD01D0
:10508000329644C0FD01E20FF31F819391932250A9
:1050900031092D933C933AC020919F053091A00592
:1050A000232B41F420911401309115013093A00578
:1050B00020939F0520911201309113012115310594
:1050C00041F42DB73EB74091160150911701241BB2
:1050D000350BE0919F05F091A005E217F307A0F4CE
:1050E0002E1B3F0B2817390778F0AC014E5F5F4F3E
:1050F0002417350748F04E0F5F1F5093A0054093CB
:105100009F058193919302C0E0E0F0E0CF01DF9131
:10511000CF9108950F931F93CF93DF93009709F4D6
:105120008CC0FC013297138212820091A10510916C
:10513000A2050115110581F420813181820F931F91
:1051400020919F053091A0052817390779F5F09334
:10515000A005E0939F0571C0D80140E050E0AE1774
:10516000BF0750F412962D913C911397AD01211574
:10517000310509F1D901F3CF9D01DA01338322838F
:1051800060817181860F971F8217930769F4EC0184
:1051900028813981260F371F2E5F3F4F31832083AF
:1051A0008A819B8193838283452B29F4F093A20506
:1051B000E093A10542C01396FC93EE931297ED0184
:1051C000499159919E01240F351FE217F30771F49D
:1051D00080819181840F951F029611969C938E93E6
:1051E0008281938113969C938E931297E0E0F0E076
:1051F000D80112968D919C911397009719F0F801A0
:105200008C01F6CF8D919C9198012E5F3F4F820FBC
:10521000931F20919F053091A0052817390769F445
:10522000309729F41092A2051092A10502C01382B2
:1052300012821093A00500939F05DF91CF911F91DB
:105240000F910895A0E0B0E0E8E2F9E20C943A2A68
:10525000EC01009721F4CB010E94F527B8C0FC01B6
:10526000E60FF71F9C0122503109E217F30708F4FB
:10527000ACC0D9010D911C91119706171707B0F01A
:105280000530110508F49FC0C801049786179707D9
:1052900008F499C002501109061B170B01931193D2
:1052A0006D937C93CF010E948A288DC05B01A01A68
:1052B000B10A4C01800E911EA091A105B091A205EA
:1052C00040E050E0E12CF12C109709F44AC0A815F9
:1052D000B905D1F56D907C901197630182E0C80EFD
:1052E000D11CCA14DB0480F1A3014A195B096A01CD
:1052F00082E0C80ED11C1296BC9012971396AC9106
:10530000B5E0CB16D10440F0B282A3835183408331
:10531000D9016D937C930AC00E5F1F4FC301800FAC
:10532000911FF90191838083EB2DFA2FE114F10491
:1053300031F0D7011396FC93EE93129744C0F0938B
:10534000A205E093A1053FC08D919C91119748174C
:10535000590708F4AC017D0112960D90BC91A02D67
:10536000B3CF80919F059091A00588159905E1F430
:1053700046175707C8F480911201909113010097C6
:1053800041F48DB79EB74091160150911701841BCF
:10539000950BE817F907C8F4F093A005E0939F0573
:1053A000F901718360830FC0CB010E94F5277C0156
:1053B000009759F0A801BE010E94F129CE010E9478
:1053C0008A28C70104C0CE0102C080E090E0CDB7BA
:1053D000DEB7EEE00C94562A81E090E0F8940C944D
:1053E0006D2AFB01DC0102C001900D92415050403A
:1053F000D8F70895FB01DC018D910190801901100F
:10540000D9F3990B0895FB01DC0101900D92002066
:10541000E1F708954DE955E00E940F2A0895FA0139
:10542000A191B081009719F41097E1F0CD01DC0152
:10543000CD010D90002011F4C00113C0FB0121919A
:10544000222319F02015D9F7F3CFFB012191201564
:1054500019F41E92119606C02223C1F70D90002068
:10546000A1F7D001FA01A193B08308952F923F9242
:105470004F925F926F927F928F929F92AF92BF9264
:10548000CF92DF92EF92FF920F931F93CF93DF9310
:10549000CDB7DEB7CA1BDB0B0FB6F894DEBF0FBE6D
:1054A000CDBF09942A88398848885F846E847D84BA
:1054B0008C849B84AA84B984C884DF80EE80FD80BC
:1054C0000C811B81AA81B981CE0FD11D0FB6F89432
:0E54D000DEBF0FBECDBFED010895F894FFCFF3
:1054DE00FFFFFFFF00E10000000000006F037803F4
:1054EE0074030000A305800000C1808100000058F5
:1054FE00585858585858313030000000003115E4D3
:10550E000BDB16C316B016AE1400000000680CE4D8
:10551E000B310C0F0C230CAF0C00000000DB0C4801
:10552E000DFC0CF80DD40DF10C00000000A011E4E0
:10553E000BA011A011A011A01100000000A011E4F9
:10554E000B000000000C12E40BEB1A04147C1A0E74
:10555E001AB5138A1947173519FB1153686172650D
:10556E00206D6F6465006578706972656400727590
:10557E006279207E2F2E74656E7461636C652F7355
:10558E006372697074732F64656C6574655F74659E
:10559E006E7461636C65735F73686172696E672E9A
:1055AE0072620074696D65536861726500636F6441
:1055BE0065006F666600436F6E76657274005553B4
:1055CE00443A20004555523A2000435A4B00736826
:1055DE006172650047656E65726174696E6700631E
:1055EE006F64652E2E2E0072756279207E2F2E74BA
:1055FE00656E7461636C652F736372697074732F5B
:10560E007075745F74656E7461636C65735F7368D7
:10561E006172696E672E7262007269676874000D3E
:10562E000A006C656674004D6178696D756D206F4A
:10563E006620686F6F6B7320696E206D656E7520C6
:10564E00697320004D6178696D756D206F662069F4
:10565E0074656D7320696E206D656E75206973209B
:10566E000057726F6E6720696E64657821004D6514
:10567E006E750053657475700042656570696E676E
:10568E0000426C696E6B696E67006261636B0063EA
:10569E006865636B0072756279207E2F2E74656E5D
:1056AE007461636C652F736372697074732F6765B1
:1056BE00745F74656E7461636C65735F737461742B
:1056CE0075732E7262007265616400726561646545
:1056DE0064003A0074727565006F6E0066616C73DB
:1056EE00650072756279207E2F2E74656E7461630B
:1056FE006C652F736372697074732F6765745F7452
:10570E00656E7461636C65735F776F726B657273D0
:10571E002E7262003D00766172436F7374437A6B32
:10572E0000766172436F73744575720076617243D1
:10573E006F73745573640070617273696E670031B4
:10574E002E31310032372E3031002F62696E2F61CB
:08575E007368002D6300FE00DA
:00000001FF
