:100000000C94B0030C94D8030C94D8030C94D8032C
:100010000C94D8030C94D8030C94D8030C94D803F4
:100020000C94D8030C94D8030C94AC120C941E13AB
:100030000C94D8030C94D8030C94D8030C94D803D4
:100040000C94D8030C94D8030C94D8030C94D803C4
:100050000C94D8030C94D8030C94D8030C943F0E42
:100060000C94D8030C94BA150C9494150C94D803E2
:100070000C94D8030C94D8030C94D8030C94D80394
:100080000C94D8030C94D8030C94D8030C94D80384
:100090000C94D8030C94D8030C94D8030C94D80374
:1000A0000C94D8030C94D8030C94D803FD0B000CCB
:1000B000EF0BF30BF90B210C210C210C040C080C99
:1000C0000C0C120C160C210C1C0C221E271E2C1EB4
:1000D000361E401E8A1E8A1E8A1E4A1E541E5E1E20
:1000E000681E751E8A1E7D1E00000000003E5B4FCC
:1000F0005B3E3E6B4F6B3E1C3E7C3E1C183C7E3C88
:10010000181C577D571C1C5E7F5E1C00183C180095
:10011000FFE7C3E7FF0018241800FFE7DBE7FF3025
:10012000483A060E2629792926407F050507407F93
:1001300005253F5A3CE73C5A7F3E1C1C08081C1C06
:100140003E7F14227F22145F5F005F5F06097F01FC
:100150007F006689956A606060606094A2FFA294E7
:1001600008047E040810207E201008082A1C0808B5
:100170001C2A08081E101010100C1E0C1E0C303803
:100180003E3830060E3E0E06000000000000005F04
:1001900000000007000700147F147F14242A7F2A20
:1001A00012231308646236495620500008070300E2
:1001B000001C2241000041221C002A1C7F1C2A082E
:1001C000083E080800807030000808080808000091
:1001D00060600020100804023E5149453E00427F05
:1001E000400072494949462141494D331814127F54
:1001F0001027454545393C4A4949314121110907F4
:100200003649494936464949291E00001400000074
:100210004034000000081422411414141414004146
:1002200022140802015909063E415D594E7C121103
:10023000127C7F494949363E414141227F4141413B
:100240003E7F494949417F090909013E41415173B6
:100250007F0808087F00417F41002040413F017F27
:10026000081422417F404040407F021C027F7F04EF
:1002700008107F3E4141413E7F090909063E415138
:10028000215E7F09192946264949493203017F0128
:10029000033F4040403F1F2040201F3F4038403F29
:1002A000631408146303047804036159494D43003F
:1002B0007F4141410204081020004141417F040276
:1002C000010204404040404000030708002054540D
:1002D00078407F28444438384444442838444428EB
:1002E0007F385454541800087E090218A4A49C783E
:1002F0007F0804047800447D40002040403D007F9A
:100300001028440000417F40007C047804787C0879
:100310000404783844444438FC182424181824244D
:1003200018FC7C08040408485454542404043F4432
:10033000243C4040207C1C2040201C3C4030403C61
:1003400044281028444C9090907C4464544C4400C1
:100350000836410000007700000041360800020125
:100360000204023C2623263C1EA1A161123A404011
:10037000207A38545455592155557941215454788F
:1003800041215554784020545579400C1E52721228
:1003900039555555593954545459395554545800B0
:1003A00000457C410002457D420001457C40F0292A
:1003B0002429F0F0282528F07C5455450020545479
:1003C0007C547C0A097F49324949493232484848BD
:1003D00032324A4848303A4141217A3A4240207804
:1003E000009DA0A07D39444444393D4040403D3CFF
:1003F00024FF2424487E4943662B2FFC2F2BFF0922
:1004000029F620C0887E0903205454794100004415
:100410007D413048484A32384040227A007A0A0A00
:10042000727D0D19317D2629292F28262929292673
:1004300030484D4020380808080808080808382FB8
:1004400010C8ACBA2F102834FA00007B0000081442
:100450002A142222142A1408AA005500AAAA55AA6E
:1004600055AA000000FF00101010FF00141414FF24
:10047000001010FF00FF1010F010F0141414FC0016
:100480001414F700FF0000FF00FF1414F404FC1420
:100490001417101F10101F101F1414141F00101019
:1004A00010F0000000001F101010101F101010108E
:1004B000F010000000FF101010101010101010FFAE
:1004C00010000000FF140000FF00FF00001F1017C5
:1004D0000000FC04F414141710171414F404F400AE
:1004E00000FF00F714141414141414F700F7141474
:1004F00014171410101F101F141414F4141010F0FB
:1005000010F000001F101F0000001F14000000FC6E
:10051000140000F010F01010FF10FF141414FF145A
:100520001010101F00000000F010FFFFFFFFFFF091
:10053000F0F0F0F0FFFFFF0000000000FFFF0F0FE2
:100540000F0F0F38444438447C2A2A3E147E02029E
:100550000606027E027E0263554941633844443CEC
:1005600004407E201E2006027E020299A5E7A5997E
:100570001C2A492A1C4C7201724C304A4D4D3030B5
:1005800048784830BC625A463D3E494949007E01A0
:1005900001017E2A2A2A2A2A44445F444440514ABF
:1005A000444040444A51400000FF0103E080FF0006
:1005B0000008086B6B083612362436060F090F0642
:1005C000000018180000001010003040FF0101006A
:1005D0001F01011E00191D1712003C3C3C3C00008D
:1005E00000000072756E2D6272696467650A000A08
:1005F000000A00000000002300260029002C002F24
:1006000000080B00020202010009040000010202BE
:100610000000052400100105240101010424020644
:1006200005240600010705810310004009040100AC
:10063000020A0000000705020240000007058302CD
:100640004000000403090441726475696E6F204C18
:100650004C430041726475696E6F2059756E0012CB
:10066000010002000000404123418000010102031B
:100670000112010002EF020140412341800001010B
:100680000203010000000200090F00000304010042
:100690000C0000000000000000000000000000004E
:1006A000000000000000240027002A002D00300078
:1006B00013018032118064260104B1020B14C002C0
:1006C0000800C10105C5024130C701C1EC011B3A58
:1006D0008155642A040000007F2B040000009F362F
:1006E00001C8B70100F20100E08F282422312B0E4F
:1006F00053A5421618121A140332E18F171B1D0E50
:1007000014112CA53D09272D252B3C3213800A29D5
:1007100080FF04080201104080401020408040808B
:100720000802040180402010020110801020404087
:100730002000000000250028002B002E00310004BE
:100740000404040403040502020202040302020278
:100750000206060606060604040202020404E8264F
:1007600011241FBECFEFDAE0DEBFCDBF13E0A0E063
:10077000B1E0E2E2F4E502C005900D92AC3AB107B7
:10078000D9F725E0ACEAB3E001C01D92A83CB2075E
:10079000E1F713E0C0EBD3E004C02197FE010E9413
:1007A0007D27CF3AD107C9F70E9429210C940F2A3F
:1007B0000C9400004C7F38E0439FC001112430E0CE
:1007C00043E0359527954A95E1F7822B932B687F77
:1007D000962B089508952F923F924F925F926F92B9
:1007E0007F928F929F92AF92BF92CF92DF92EF92C1
:1007F000FF920F931F93CF93DF93CDB7DEB72D9763
:100800000FB6F894DEBF0FBECDBFFC016A3069F4AD
:1008100024898685978538E0239F800D911D1124BA
:100820009787868715861486E4C06D3009F4E1C089
:100830009D878C8754895983828993899D838C8372
:10084000A089B189BF83AE8386849784C484D5840C
:1008500080859185C816D906BCF0EC85FD85448954
:10086000242F30E084859585F6E04F9F800D911D03
:100870001124AC85BD851D969C938E931C9756962E
:100880004C91411192C0B5C0EC85FD858285938560
:100890008816990614F7F981AF2EB12CC60126E00F
:1008A000F29F800D911D112418161906B4F6C5018A
:1008B00023E0880F991F2A95E1F7880D991D1816D6
:1008C00019065CF655E0659FB001112416011A82E5
:1008D000CB018C199D0999878887D4011896BB870D
:1008E000AA87BA81B53049F0E885F985E20DF31D94
:1008F000E851FF4F24912B8301C01B822401340156
:100900003B8130FF13C0AC85BD85ED91FC91B98171
:10091000B13031F40480F581E02D2E813F8119C082
:100920000684F785E02DEE80FF801EC0EC81FD81FE
:100930002E813F81E217F307F1F0AC85BD85ED9183
:10094000FC91B981B13059F40480F581E02D2C81FE
:100950003D81A301B1018C859D8509950CC006845C
:10096000F785E02DEC80FD8085019501A201B6019F
:100970008C859D850995EB81E695EB83FFEF6F1ADA
:100980007F0A4A0C5B1C2A853B856216730609F0B8
:10099000B7CF3A813F5F3A835FEF251A350ACA0C19
:1009A000DB1C363009F09DCF58CF4AEF4203B0012F
:1009B000439F700D1124AC85BD8518964D915C91B7
:1009C0001997460F571F481759079CF483E0220FC9
:1009D000331F8A95E1F71E968D919C911F97280FE2
:1009E000391F1F963C932E931E971D961C921E92A4
:1009F0001C9781E090E02D960FB6F894DEBF0FBEF5
:100A0000CDBFDF91CF911F910F91FF90EF90DF90BD
:100A1000CF90BF90AF909F908F907F906F905F909E
:100A20004F903F902F900895EF92FF920F931F9356
:100A3000DC01ED91FC9111971A960D911C911B9779
:100A400018962D913C9119970684F785E02D7B012E
:100A500040E050E060E070E009951F910F91FF9039
:100A6000EF9008956F927F928F929F92AF92BF9274
:100A7000CF92DF92EF92FF920F931F93CF93DF936A
:100A80006C015A014801EB013B01620E731EC61551
:100A9000D70574F4D601ED91FC910084F185E02D29
:100AA00087019401A501BE01C60109952196EFCFEA
:100AB000DF91CF911F910F91FF90EF90DF90CF903A
:100AC000BF90AF909F908F907F906F900895EF921E
:100AD000FF920F931F93DC01ED91FC91260F371FBE
:100AE000215031090680F781E02D78018A010995AE
:100AF0001F910F91FF90EF900895EF92FF920F9347
:100B00001F937801DC01ED91FC91240F351F8901C1
:100B1000015011090680F781E02D9B0109951F9175
:100B20000F91FF90EF9008956F927F928F929F9216
:100B3000AF92BF92CF92DF92EF92FF920F931F93EB
:100B4000CF93DF93EC014B015A0169013801E88131
:100B5000F9810284F385E02D87010995E881F98107
:100B6000A501460D571D415051090284F385E02D22
:100B70009601B401CE010995E881F9810084F185DF
:100B8000E02D9301A501B401CE010995E881F98119
:100B9000C80CD91CB601615071090084F185E02DA3
:100BA0009301A501CE010995DF91CF911F910F917E
:100BB000FF90EF90DF90CF90BF90AF909F908F907D
:100BC0007F906F9008952F923F924F925F926F9215
:100BD0007F928F929F92AF92BF92CF92DF92EF92CD
:100BE000FF920F931F93CF93DF9300D01F92CDB747
:100BF000DEB74C017B836A836A01590117019801B2
:100C0000241B350B37FF03C0319521953109C501F0
:100C10004A815B81841B950B97FF03C09195819559
:100C2000910951E059838217930714F019820BC080
:100C30009A2D8B2D5801092F182F9A818B81DB82D9
:100C4000CA82C92ED82E8A819B81A816B9065CF467
:100C50009C2D8D2D6801092F182F9A818B81BB82C5
:100C6000AA82A92EB82E2501AA81BB814A1A5B0A45
:100C700038016C187D0877FE03C071946194710887
:100C8000720157FE03C0BFEFEB1AFB0AF594E7941D
:100C9000C016D1061CF00FEF1FEF1FC001E010E0DF
:100CA0001CC0D401ED91FC91B9810480F581E02D47
:100CB0009101BB23C1F04A815B81B601C401099552
:100CC000E618F708F7FE04C0C00ED11EE40CF51CB0
:100CD000EA81FB813196FB83EA834A815B81A4161A
:100CE000B506FCF604C0A6016A817B81E7CF0F90B0
:100CF0000F900F90DF91CF911F910F91FF90EF9088
:100D0000DF90CF90BF90AF909F908F907F906F902B
:100D10005F904F903F902F90089508954FEF6FEFA1
:100D20008FEF0E94331F40E060E080E00E94211FAF
:100D30004FEF6FEF8FEF0E94131F40E060E080E005
:100D40000E94211F24E130E044E150E067E070E0C0
:100D50008AE090E00E94D01E2AE030E045E050E0BA
:100D600067E070E086E190E00E94D01E40E060E025
:100D700080E00E94131F2AE030E045E050E061E18E
:100D800070E08DE090E00E94D01E4FEF6FEF8FEF8C
:100D90000E94131F40E060E080E00E94211F24E1D8
:100DA00030E044E150E060E370E08AE090E00E94CF
:100DB000D01E40E060E080E00E94131F4FEF6FEF15
:100DC0008FEF0E94211F28E030E048E050E06AE306
:100DD00070E084E190E00E94D01E26E030E046E022
:100DE00050E06AE370E08CE090E00E94D01E26E0C4
:100DF00030E046E050E062E370E084E190E00E9481
:100E0000D01E4FEF6FEF8FEF0E94131F40E060E0A6
:100E100080E00E94211F24E130E044E150E06BE5D6
:100E200070E08AE090E00E94D01E26E030E046E0CC
:100E300050E064E670E083E190E00E94D01E40E064
:100E400060E080E00E94131F26E030E046E050E0C2
:100E500062E670E081E190E00C94D01E83E090E0C7
:100E60009093C9038093C80342EF65EB87E20E9429
:100E7000131F40E060E080E00E94211F24E130E089
:100E800044E150E060E370E08AE090E00E94D01E10
:100E900040E060E080E00E94131F42EF65EB87E2D4
:100EA0000E94211F28E030E048E050E06AE370E053
:100EB00084E190E00E94D01E26E030E046E050E061
:100EC0006AE370E08CE090E00E94D01E26E030E003
:100ED00046E050E062E370E084E190E00E94D01EC2
:100EE00060E085E00C94010D0F931F93CF93DF9387
:100EF00042EF65EB87E20E94131F40E060E080E074
:100F00000E94211F24E130E044E150E06BE570E0F5
:100F10008AE090E00E94D01E26E030E046E050E0FB
:100F200064E670E083E190E00E94D01E40E060E063
:100F300080E00E94131F26E030E046E050E062E6C9
:100F400070E081E190E00E94D01E83E090E09093F9
:100F5000C9038093C80387E00E94D80C892BD1F580
:100F600002E010E0C0E0D0E087E00E94D80C0197DA
:100F700041F460E08DE0DF91CF911F910F910C94CF
:100F8000010DCE010E94FF1D6EE170E080E090E057
:100F90000E946D0D2596C43081E0D80729F7CFEF68
:100FA000D0E087E00E94D80C019719F3CE010E948F
:100FB000FF1D6EE170E080E090E00E946D0D2597CE
:100FC000CB3F8FEFD80769F70130110521F201E01F
:100FD00010E0C8CFDF91CF911F910F910895CF936B
:100FE000DF931092C9031092C8031092C7031092A6
:100FF000C6034FEF6FEF8FEF0E94331F40E060E0BA
:1010000080E00E94211F40E060E080E00E94131F0A
:10101000CEE8D5E08A859B8563E070E00E94692771
:101020009B014885598560E070E080E090E00E9477
:10103000D01E82E08C8B47E350E06AE070E08BE8E2
:1010400091E00E94451F44E650E06AE070E081E9CB
:1010500091E00E94451F4FEF6FEF8FEF0E94211F1D
:101060004AE050E064E170E087E991E00E94451FAA
:101070004AE050E061E470E0809104019091050144
:101080000E94451F42EF65EB87E20E94211F47E364
:1010900050E06CE370E080910001909101010E94AA
:1010A000451F4FEF6FEF8FEF0E94211F4FEF6FEF44
:1010B0008FEF0E94131F29E130E04EE150E062E320
:1010C00070E082E890E00E94D01E43E463E487EF82
:1010D0000E94211F44E650E06CE370E08091020121
:1010E000909103010E94451F4FEF6FEF8FEF0E9419
:1010F000211F4FEF6FEF8FEF0E94131F29E130E0A8
:101100004EE150E06FE570E082E890E00E94D01E72
:1011100029E130E04EE150E062E370E082E890E0E7
:10112000DF91CF910C94D01ECF93DF93EC018D8192
:101130009E81DC01ED91FC910480F581E02D099503
:101140001816190654F48D819E81DC01ED91FC91F5
:101150000680F781E02D0995EACFDF91CF910895C0
:101160008F929F92AF92BF92CF92DF92EF92FF92B7
:10117000CF93DF93EC016B010E94330E4B015C01B6
:10118000E12CF12C8D819E81DC01ED91FC9106809A
:10119000F781E02D099597FF0FC00E94330EDC0107
:1011A000CB0188199909AA09BB098C159D05AE05C3
:1011B000BF0540F38FEF9FEFDF91CF91FF90EF904E
:1011C000DF90CF90BF90AF909F908F900895FC01DB
:1011D000238134812627022E2295207F2025032E6D
:1011E000322F22952F700226269532272327220F91
:1011F000220F220F2025348323830895CF92DF927C
:10120000EF92FF920F931F936801790100E010E0C5
:1012100020E030E00E94651F1F910F91FF90EF903A
:10122000DF90CF9008950F931F93CF93DF9300D05B
:101230001F92CDB7DEB729E42983FC0126852A83D6
:101240006B8300E010E020E030E043E050E0BE01BE
:101250006F5F7F4F848595850E94FE0881E090E056
:101260000F900F900F90DF91CF911F910F910895E4
:10127000EF92FF920F931F93CF93DF9300D0CDB7E0
:10128000DEB77C01FC018189882389F087E78983A7
:1012900086858A8300E010E020E030E042E050E004
:1012A000BE016F5F7F4F848595850E94FE08F70120
:1012B000118A0F900F90DF91CF911F910F91FF90A6
:1012C000EF9008950F931F93CF93DF9300D01F9259
:1012D000CDB7DEB722E72983FC0126852A8301E00A
:1012E00010E09E012D5F3F4F42E050E0BE016F5F76
:1012F0007F4F848595850E94FE0881E09B81913017
:1013000009F080E00F900F900F90DF91CF911F9127
:101310000F9108958F929F92AF92BF92CF92DF92DA
:10132000EF92FF920F931F93CF93DF93CDB7DEB76A
:1013300028970FB6F894DEBF0FBECDBF5C017B01CE
:101340006BE971E0CE0101964C010E949712C50134
:101350000E94380986E090E00E9497278C01DC010A
:1013600011961C921E9213961C921E92129715961D
:101370001C921E9214978815990549F069817A810B
:101380006115710521F04D815E810E94700BF501A0
:10139000108B0787C4010E949B0B64EA71E0C401B3
:1013A0000E949712D5011F968D919C9150970E9493
:1013B000EF204D815E8169817A81F5018785908971
:1013C0000E94420BC4010E949B0BD5011F968D9178
:1013D0009C9150970E94EF20F701448155816081D4
:1013E0007181D5011F968D919C9150970E94420B5F
:1013F00082E58F83D5011F96ED91FC915097048172
:1014000015812081318142E0C42ED12C740141E04C
:1014100050E0BE01695F7F4F1C968D919C911D9796
:101420000E94651F8A81F50186870785108901154D
:10143000110531F0C8010E949B0BC8010E942C28A5
:10144000D50150961C921E921F978981811103C06D
:1014500081E051968C93C5010E946209882339F07E
:1014600064E670E080E090E00E946D0DF4CF87E5C7
:101470008F83F5018685888702E010E0940142E0C1
:1014800050E0BE01695F7F4F848595850E94FE080C
:10149000898190E0982F88272A81820F911D2896B4
:1014A0000FB6F894DEBF0FBECDBFDF91CF911F9175
:1014B0000F91FF90EF90DF90CF90BF90AF909F90F3
:1014C0008F900895EF92FF920F931F93CF93DF9326
:1014D00000D01F92CDB7DEB7FC012289211118C0C0
:1014E0007C01138A8FE4898380E48B8386858A83D9
:1014F0009F012C5E3F4F00E410E043E050E0BE014E
:101500006F5F7F4F848595850E94FE08F701828B6F
:101510000F900F900F90DF91CF911F910F91FF903F
:10152000EF900895CF93DF93EC010E94620A8A89BD
:10153000882331F08B89C80FD11D8C8990E002C0BF
:101540008FEF9FEFDF91CF910895CF93DF93EC0161
:101550000E94620A8A89882359F081508A8B8B897C
:1015600091E0980F9B8BC80FD11D8C8990E002C031
:101570008FEF9FEFDF91CF910895CF93DF93EC0131
:101580000E94620A8A8990E0DF91CF91089542EF2C
:1015900065EB87E20E94331F43E463E486EF0E9419
:1015A000211F43E463E486EF0E94131F20E530E02F
:1015B00048E750E06AE070E084E190E00E94D01ECD
:1015C00040E060E080E00E94211F40E060E080E0B9
:1015D0000E94131F82E08093A2054EE150E063E277
:1015E00070E087EA91E00E94451F42E350E063E229
:1015F00070E08CEA91E00E94451F4FEF6FEF8FEF94
:101600000E94211F4FEF6FEF8FEF0E94131F87E0A3
:1016100090E00E941B1C43E463E486EF0E94211FBC
:1016200043E463E486EF0E94131F85E090E00C948E
:101630001B1C0E948E290F931F93CF93DF93EC0105
:1016400088819981009729F02A813B8126173707E5
:1016500088F48B016F5F7F4F0E94C428009761F070
:10166000998388831B830A832C813D81232B11F46A
:10167000FC01108281E001C080E0DF91CF911F91D9
:101680000F910895EF92FF920F931F93CF93DF93E3
:10169000FC01248135816115710511F480E019C0C8
:1016A00041155105A9F07B01EC018A01020F131FBE
:1016B000B8010E941B0B882389F3288139818C8112
:1016C0009D81B701820F931F0E94A5291D830C8362
:1016D00081E0DF91CF911F910F91FF90EF900895DE
:1016E000EF92FF920F931F93CF93DF93EC017B0157
:1016F0008A01BA010E941B0B2881398181110DC01A
:101700002115310519F0C9010E942C28198218826F
:101710001D821C821B821A8206C01D830C83B701A6
:10172000C9010E94A529CE01DF91CF911F910F9190
:10173000FF90EF900895FC01808191810C942C28FA
:1017400080E090E0892B29F00E94D11181110C9446
:1017500000000895CF93DF931F92CDB7DEB7698362
:10176000DC01ED91FC910280F381E02D41E050E03D
:10177000BE016F5F7F4F09950F90DF91CF91089564
:1017800083E08093E9008091F200882319F08AE3D6
:101790008093E8000895FC018485958597FD0BC032
:1017A0009FB7F89482E08093E9008091F2009FBF98
:1017B00090E0019608959FB7F89482E08093E90045
:1017C0008091F2009FBF90E0089590E0FC01319776
:1017D000EF30F105B0F5EA5AFF4F0C947D27809168
:1017E00080008F7703C0809180008F7D8093800080
:1017F000089580918000877FF9CF84B58F7702C0EC
:1018000084B58F7D84BD0895809190008F7707C047
:10181000809190008F7D03C080919000877F80939E
:10182000900008958091C0008F7703C08091C00020
:101830008F7D8093C00008958091C200877F809340
:10184000C20008953FB7F8948091410490914204FA
:10185000A0914304B091440426B5A89B05C02F3F36
:1018600019F00196A11DB11D3FBFBA2FA92F982FC6
:101870008827820F911DA11DB11DBC01CD0142E041
:10188000660F771F881F991F4A95D1F70895EF9229
:10189000FF920F931F93DC01ED91FC9111971A9623
:1018A0000D911C911B9718962D913C9119970684C8
:1018B000F785E02D7B0140E050E060E070E00995A5
:1018C0001F910F91FF90EF900895FC01868D882362
:1018D00039F06EBD00000DB407FEFDCF8EB5089542
:1018E00028E030E090E8A1A1B2A186A5492F4623C7
:1018F00019F04C91842B03C04C91809584238C93D8
:10190000A3A1B4A14C9187A5842B8C93A3A1B4A1CE
:101910004C9187A5809584238C939695215031090D
:1019200011F7089508958CBD9DBD08950F931F93E1
:10193000CF93DF931F92CDB7DEB78C01FC01848576
:10194000958597FF0EC0CE0101960E94921E0197C9
:1019500019F4298130E002C02FEF3FEFF8013587FD
:101960002487F801848595850F90DF91CF911F9191
:101970000F910895CF93DF931F92CDB7DEB7FC018F
:101980008485958597FD05C02FEF3FEF3587248728
:101990000BC0CE0101960E94921E019719F4898115
:1019A00090E002C08FEF9FEF0F90DF91CF910895ED
:1019B000CF93DF93282F30E0F901ED57F94F849151
:1019C000F901EE5EF84FD491F901E15CF84FC49152
:1019D000CC2391F081110E94E50BEC2FF0E0EE0F8B
:1019E000FF1FED50FA4FA591B491EC91ED2381E0EA
:1019F00090E021F480E002C080E090E0DF91CF91A0
:101A000008951F93CF93DF93282F30E0F901ED570E
:101A1000F94F8491F901EE5EF84FD491F901E15C40
:101A2000F84FC491CC23C9F0162F81110E94E50B09
:101A3000EC2FF0E0EE0FFF1FEF5CF84FA591B49193
:101A40008FB7F894111105C09C91ED2FE095E92313
:101A500002C0EC91ED2BEC938FBFDF91CF911F91E2
:101A60000895CF93DF9390E0FC01EE5EF84F249150
:101A7000FC01E15CF84F8491882361F190E0880FCC
:101A8000991FFC01EE55F94FC591D491FC01EF5C13
:101A9000F84FA591B491611109C09FB7F89488815E
:101AA000209582238883EC912E230BC0623061F451
:101AB0009FB7F8943881822F809583238883EC9197
:101AC0002E2B2C939FBF06C08FB7F894E8812E2B46
:101AD00028838FBFDF91CF9108958F929F92AF920D
:101AE000BF92CF92DF92EF92FF926B017C010E9436
:101AF000220C4B015C01C114D104E104F104F1F0AA
:101B00000E94220CDC01CB0188199909AA09BB09A2
:101B1000883E9340A105B10570F321E0C21AD108B7
:101B2000E108F10888EE880E83E0981EA11CB11C24
:101B3000C114D104E104F10419F7DDCFFF90EF9057
:101B4000DF90CF90BF90AF909F908F9008958F922D
:101B50009F92AF92BF92CF92DF92EF92FF920F933C
:101B60001F93CF93DF935C016B018A018091110178
:101B7000882309F45EC080918804882309F459C041
:101B80008091AD0380FF05C08091E000826080936A
:101B9000E000E8018AEFF82E93E0E92E2FE3822E91
:101BA0003AE3932E209709F43DC08FB7F894E09262
:101BB000E9009091E80095FF06C09091F200282D71
:101BC000291B922F01C090E08FBF91110AC0FA9497
:101BD000FF2079F161E070E080E090E00E946D0DFF
:101BE000E1CF292F30E0C217D3070CF49C2F8FB719
:101BF000F894E092E9002091E80025FF11C0292F18
:101C000030E0C21BD30BF601915020F0419140937C
:101C1000F100FACFC20ED31E9091E80095FF13C0D9
:101C20008FBFC0CF5D9884E68093450410161106DF
:101C300044F081E090E0F5019383828380E090E0BE
:101C400005C0C80103C09092E800EACFDF91CF91B0
:101C50001F910F91FF90EF90DF90CF90BF90AF90CA
:101C60009F908F9008952FB7F89460913D047091E4
:101C70003E0480913F04909140042FBF08951F922D
:101C80000F920FB60F9211242F933F938F939F9330
:101C9000AF93BF9380913D0490913E04A0913F0487
:101CA000B091400430913C0423E0230F2D3720F401
:101CB0000196A11DB11D05C026E8230F0296A11DA6
:101CC000B11D20933C0480933D0490933E04A09367
:101CD0003F04B09340048091410490914204A0914C
:101CE0004304B09144040196A11DB11D80934104A9
:101CF00090934204A0934304B0934404BF91AF91E6
:101D00009F918F913F912F910F900FBE0F901F9039
:101D100018950F931F93CF93DF931F92CDB7DEB724
:101D20008C01DC015E968C915E97882341F05F9672
:101D30008D919C91909769830E94930C6981D80141
:101D40009796ED91FC9198979081D1968C91D1972F
:101D5000892B80839596ED91FC9196979081D096F2
:101D60008C91809589238083C8010E94650CD801DD
:101D70009596ED91FC9196979081D0968C91892BB8
:101D800080830F90DF91CF911F910F9108950F9352
:101D90001F93CF93DF931F92CDB7DEB78C01DC0189
:101DA0005E968C915E97882341F05F968D919C9111
:101DB000909769830E94930C6981D8019796ED9161
:101DC000FC9198979081D1968C91D1978095892399
:101DD00080839596ED91FC9196979081D0968C9109
:101DE000809589238083C8010E94650CD80195964F
:101DF000ED91FC9196979081D0968C91892B808360
:101E00000F90DF91CF911F910F910895611102C042
:101E100060E201C061E20C94C70EEF92FF920F9353
:101E20001F93CF93DF9300D0CDB7DEB77C01162F81
:101E30006AE229834A830E94C70E60E0C7010E94BC
:101E4000890EF70182A9612F680FC7010E94890ED0
:101E500060E0C7010E94890EF70182A92981622FE3
:101E6000680FC7010E94890E6BE2C7010E94C70E6E
:101E700060E0C7010E94890EF70183A94A81642F9F
:101E8000680FC7010E94890E60E0C7010E94890E99
:101E9000F70183A9602F680FC7010E94890E6CE2C9
:101EA000C7010F900F90DF91CF911F910F91FF907D
:101EB000EF900C94C70EAF92BF92CF92DF92EF9249
:101EC000FF920F931F93CF93DF93EC0159016801A9
:101ED00028853985621773070CF066C08A859B8553
:101EE000481759070CF060C0FB01EA0DFB1D2E17C7
:101EF0003F071CF45901A61AB70A9A012C0D3D1D83
:101F0000821793071CF46C01C41AD50A8D8D823098
:101F100091F49701207E3770C701982F8827990F79
:101F2000990F990F822B932BEF2CFF24E694E694C4
:101F3000E694E82AF92A0FEF040F0C0D2FEF260F75
:101F40002A0DCE010E940D0F8E8D882321F08F8DDA
:101F500098A10E94930CEFA1F8A5908189A9892BE3
:101F60008083EDA1FEA1908188A98095892380833B
:101F70001C141D049CF48501101611065CF46F2DD1
:101F8000CE010E94650C6E2DCE010E94650C0150A1
:101F90001109F2CF81E0C81AD108EACFEDA1FEA164
:101FA000908188A9892B8083DF91CF911F910F9118
:101FB000FF90EF90DF90CF90BF90AF900895CF92B9
:101FC000DF92EF92FF920F931F93CF93DF93EC0179
:101FD0006901780188859985681779070CF054C0E4
:101FE0002A853B85421753070CF04EC09B012C0DF0
:101FF0003D1D821793071CF46C01C61AD70A2FEFF8
:10200000260F2C0D042FCE010E940D0F8D8D8230D6
:1020100091F49701207E3770C701982F8827990F78
:10202000990F990F822B932BEF2CFF24E694E694C3
:10203000E694E82AF92A8E8D882321F08F8D98A1C5
:102040000E94930CEFA1F8A5908189A9892B808328
:10205000EDA1FEA1908188A9809589238083C11478
:10206000D10461F06F2DCE010E94650C6E2DCE0162
:102070000E94650C81E0C81AD108F1CFEDA1FEA144
:10208000908188A9892B8083DF91CF911F910F9137
:10209000FF90EF90DF90CF900895CF92DF92EF9274
:1020A000FF920F931F93CF93DF93EC0169017801A7
:1020B00088859985681779070CF055C08A859B85B6
:1020C000481759070CF04FC09A012C0D3D1D82177F
:1020D00093071CF46C01C41AD50A0FEF040F0C0D02
:1020E000262FCE010E940D0F8D8D823091F4970125
:1020F000207E3770C701982F8827990F990F990F65
:10210000822B932BEF2CFF24E694E694E694E82AA6
:10211000F92A0F2D8E8D882321F08F8D98A10E9492
:10212000930CEFA1F8A5908189A9892B8083EDA15B
:10213000FEA1908188A9809589238083C114D10450
:1021400061F0602FCE010E94650C6E2DCE010E94C1
:10215000650C81E0C81AD108F1CFEDA1FEA19081F4
:1021600088A9892B8083DF91CF911F910F91FF90D8
:10217000EF90DF90CF900895EF92FF920F93CF935F
:10218000DF93EC01790177FD4BC08885998568174D
:1021900079070CF045C057FD43C08A859B854817D9
:1021A0005907F4F501E0040F21E0260FCE010E944B
:1021B0000D0F8E8D882321F08F8D98A10E94930C96
:1021C000EFA1F8A5908189A9892B8083EDA1FEA1BB
:1021D000908188A98095892380838D8D823091F4A8
:1021E0009701207E3770C701982F8827990F990F84
:1021F000990F822B932BEF2CFF24E694E694E69420
:10220000E82AF92A6F2DCE010E94650C6E2DCE01B1
:102210000E94650CEDA1FEA1908188A9892B808385
:10222000DF91CF910F91FF90EF9008954091490475
:1022300050914A04209147043091480442175307B3
:10224000B4F49091E8009570E1F39091E80092FD6C
:1022500019C08093F1008091490490914A0401963D
:102260008F739927892B19F48EEF8093E800809162
:10227000490490914A04019690934A04809349043A
:1022800081E0089580E00895DF92EF92FF920F932E
:102290001F93CF93DF93D82E8A017B01E40EF51EA6
:1022A000EB01CE15DF0571F0D7FE03C0FE0184916E
:1022B00001C088810E94161121968111F2CF8FEF03
:1022C0009FEF01C0C801DF91CF911F910F91FF9047
:1022D000EF90DF900895615030F02091F100FC0103
:1022E00020830196F8CF289884E680938704089588
:1022F000CF92DF92EF92FF920F931F93CF93DF93D2
:102300006C017A018B01C0E0D0E0CE15DF0589F0C9
:10231000D8016D918D01D601ED91FC910190F08174
:10232000E02DC6010995892B11F47E0102C021968A
:10233000ECCFC701DF91CF911F910F91FF90EF90EC
:10234000DF90CF900895FC01918D828D981761F0F8
:10235000828DDF01A80FB11D5D968C91928D9F5FDC
:102360009F73928F90E008958FEF9FEF0895FC0187
:10237000918D828D981731F0828DE80FF11D858D3A
:1023800090E008958FEF9FEF0895FC01918D228DCD
:10239000892F90E0805C9F4F821B91098F73992752
:1023A000089586EE94E00E94C51121E0892B09F47E
:1023B00020E0822F0895FC01848DDF01A80FB11D5C
:1023C000A35ABF4F2C91848D90E001968F7399276B
:1023D000848FA689B7892C93A089B1898C91806458
:1023E0008C93938D848D981306C00288F389E02D19
:1023F00080818F7D80830895EF92FF920F931F93CA
:10240000CF93DF93EC0181E0888F9B8D8C8D9813A7
:1024100005C0E889F989808185FD24C0F62E0B8DE1
:1024200010E00F5F1F4F0F731127E02E8C8DE81205
:102430000CC00FB607FCFACFE889F989808185FFC7
:10244000F5CFCE010E94DB11F1CF8B8DFE01E80F9D
:10245000F11DE35AFF4FF0820B8FEA89FB898081DF
:10246000806207C0EE89FF896083E889F9898081ED
:102470008064808381E090E0DF91CF911F910F9184
:10248000FF90EF900895CF93DF93EC01888D882320
:10249000C9F0EA89FB89808185FD05C0A889B989D1
:1024A0008C9186FD0FC00FB607FCF5CF808185FFAC
:1024B000F2CFA889B9898C9185FFEDCFCE010E941A
:1024C000DB11E7CFDF91CF9108950F931F93CF9347
:1024D000DF931F92CDB7DEB782E0898342E450E0FC
:1024E00061E076E080E80E9444110E94BC1EDC019D
:1024F00012960D911C9113970115110569F0D801E1
:10250000ED91FC910280F381E02DBE016F5F7F4F62
:10251000C801099597FF07C089810F90DF91CF917E
:102520001F910F910895F80100851185E5CFFC01F9
:102530001182108213821282158214826115710534
:1025400051F0FB0101900020E9F73197AF01461BE4
:10255000570B0C94700B08951F920F920FB60F92A9
:1025600011248F939F938091E1009091E100937FDC
:102570009093E10083FF0FC01092E90091E09093E7
:10258000EB001092EC0092E39093ED00109288041F
:1025900098E09093F00082FF20C093E09093E900D0
:1025A0009091F200992319F09AE39093E8009091AA
:1025B0004504992339F09091450491509093450436
:1025C000992389F190918704992339F09091870498
:1025D000915090938704992341F184FF10C080911A
:1025E000E2008E7E81608093E2008091E1008F7E28
:1025F0008093E1008091AD038E7E806111C080FFE9
:1026000016C08091E2008E7E80618093E20080910E
:10261000E1008E7E8093E1008091AD038E7E81602B
:102620008093AD0304C05D9ACDCF289AD6CF9F91F9
:102630008F910F900FBE0F901F9018951F920F92C1
:102640000FB60F921124CF92DF92EF92FF920F9369
:102650001F932F933F934F935F936F937F938F932A
:102660009F93AF93BF93EF93FF93CF93DF93CDB738
:10267000DEB76C97DEBFCDBF1092E9008091E80015
:1026800083FFFAC168E0CE0145960E946B1182EF8C
:102690008093E8008D8987FF05C09091E80090FF46
:1026A000FCCF03C09EEF9093E800982F907609F03E
:1026B000C6C09E892F89188D91110CC0803829F4CD
:1026C0008091AE038093F10002C01092F10010924D
:1026D000F10047C1422F50E0512B913051F481114C
:1026E00040C14130510509F03CC18091AE038D7F5E
:1026F0000BC0933061F4811134C14130510509F0B0
:1027000030C18091AE0382608093AE032AC19530C0
:1027100041F48091E80080FFFCCF20682093E30023
:1027200020C1963009F05FC0EB8CFC8C1092E90060
:1027300010924A0410924904123091F51092480404
:10274000109247040E94651299E0BE016F5F7F4FAF
:10275000DB01E92F1D92EA95E9F799831A8391E04D
:102760009E8390EA98879AEF998720914904309147
:102770004A04275F3F4F3C832B838D831092E900EF
:1027800010924A0410924904F0924804E0924704DF
:1027900049E050E080E00E9444110E946512E1C0CF
:1027A000F0924804E09247040E94BC1EDC0112969D
:1027B000ED90FC901397E114F10409F4C0C0D70127
:1027C000ED91FC910480F581E02DBE016B5E7F4FA1
:1027D000C7010995009719F00CF0C3C0C6C0F701F6
:1027E000E084F184E8CF973009F4BFC0983021F439
:1027F00081E08093F100B5C0993009F0B2C08370D8
:1028000009F0B3C0E3E3F1E081E021E036E3908139
:10281000992361F08093E9002093EB0091919093CC
:10282000EC003093ED008F5F873089F78EE780935F
:10283000EA001092EA008F898093880492C08B8D01
:102840009C8D1092E90010924A04109249049093D2
:10285000480480934704898D811156C08E899D89D3
:10286000913A59F4813209F080C047E050E06AE0C3
:1028700071E080E00E94441174C0913209F075C08B
:10288000833289F4888D90E0982F88272F89822BB6
:10289000A0E0B0E08093060190930701A0930801A7
:1028A000B09309015EC0803269F48091E80082FF34
:1028B000FCCF67E08AE091E00E946B118BEF809380
:1028C000E80006C0823209F04CC08F898093110164
:1028D0008091AC03882319F0EEEFFAE002C0E0E04B
:1028E000F8E080910A0190910B01A0910C01B09148
:1028F0000D01803B9440A105B10509F088C080918D
:10290000110180FFA0C083C00E94BC1EDC01129692
:102910000D911C9113970115110539F1D801ED9115
:10292000FC910190F081E02DBE016B5E7F4FC801EC
:102930000995811116C0F80100851185ECCF113081
:10294000C1F0133091F48F89882309F455C0823087
:10295000E9F440E86BE083E596E00E94AB2688232B
:1029600021F08EEF8093E80087C081E28093EB0036
:1029700083C08B8D9C8D089711F410934604809131
:102980004604811136C06FE576E038C0813029F405
:1029900040E86BE087E496E0E0CF833031F70E94B7
:1029A000BC1EDC011296ED90FC9013978E010F5F18
:1029B0001F4F6801E114F10479F0D701ED91FC910A
:1029C0000680F781E02DB801C7010995080F111D98
:1029D000F701E084F184EECFD8011C92F60101905A
:1029E0000020E9F73197BF016C197D0940E0C6016D
:1029F000B4CF61E776E002C063E476E0611571056B
:102A000009F4B3CFFB01449150E080E833CF0FB617
:102A1000F894A8958091600088618093600010927E
:102A200060000FBEA895EE3F2AE0F20739F08091D2
:102A3000FE0A9091FF0A9183808393CF1092FF0A40
:102A40001092FE0A8ECFEE3F8AE0F80731F08081C7
:102A500091819093FF0A8093FE0A87E797E791831D
:102A600080839BE088E10FB6F894A895809360007E
:102A70000FBE9093600075CF6C960FB6F894DEBFD2
:102A80000FBECDBFDF91CF91FF91EF91BF91AF917D
:102A90009F918F917F916F915F914F913F912F9176
:102AA0001F910F91FF90EF90DF90CF900F900FBE8E
:102AB0000F901F9018956115710579F0FB01019039
:102AC0000020E9F73197AF01461B570BDC01ED9170
:102AD000FC910280F381E02D099480E090E008955C
:102AE000EF92FF920F931F93CF93DF938C017B01A3
:102AF000C0E0D0E0F701EC0FFD1F6491662361F0A8
:102B0000D801ED91FC910190F081E02DC80109956B
:102B1000892B11F02196EECFCE01DF91CF911F913D
:102B20000F91FF90EF9008951F920F920FB60F92A2
:102B300011242F933F934F935F936F937F938F93C2
:102B40009F93AF93BF93EF93FF9386EE94E00E9421
:102B5000DB11FF91EF91BF91AF919F918F917F9189
:102B60006F915F914F913F912F910F900FBE0F90FA
:102B70001F9018951F920F920FB60F9211242F934A
:102B80008F939F93EF93FF93E091F604F091F704F6
:102B90008081E091FC04F091FD0482FD12C09081DF
:102BA0008091FF048F5F8F7320910005821751F091
:102BB000E091FF04F0E0EA51FB4F958F8093FF0412
:102BC00001C08081FF91EF919F918F912F910F9084
:102BD0000FBE0F901F901895EF92FF920F931F93C7
:102BE000CF93DF93EC014FEF6FEF8FEF0E94211F28
:102BF0004FEF6FEF8FEF0E94131F8EE8E82E85E0F6
:102C0000F82EF7018285938503E010E0B8010E9459
:102C10006927C69FC001C79F900DD69F900D1124B4
:102C20002AE230E045E050E0BC0180E090E00E9404
:102C3000D01EF70182859385B8010E946927C69F3F
:102C4000C001C79F900DD69F900D11242AE230E05D
:102C500045E050E0BC018BE990E0DF91CF911F91FE
:102C60000F91FF90EF900C94D01ECF93DF93CDB7D0
:102C7000DEB7CA55D1090FB6F894DEBF0FBECDBF7F
:102C80001C821B8288EE93E0A0E0B0E08D839E83DF
:102C9000AF83B88786E291E09A83898383E895E0E1
:102CA0009E878D871A8A1B8A1C8A0E94C70A68EE33
:102CB00073E080E090E00E946D0D6FED72E0CE0158
:102CC0008B5A9F4F0E949712BE016B5A7F4FCE01C5
:102CD00001960E948A09CE018B5A9F4F0E949B0B3E
:102CE0001092C503E091AF03F091B0030995CE01B6
:102CF00001960E9462098111FACF86E291E09A83DF
:102D00008983CE0101960E943809C65ADF4F0FB65B
:102D1000F894DEBF0FBECDBFDF91CF9108958F92A3
:102D20009F92AF92BF92CF92DF92EF92FF920F935A
:102D30001F93CF93DF93CDB7DEB7CF55D1090FB631
:102D4000F894DEBF0FBECDBF4FEF6FEF8FEF0E9445
:102D5000331F40E060E080E00E94211F82E080930A
:102D6000A20544E150E064E170E085E193E00E9457
:102D7000451F48E250E064E170E080E293E00E9489
:102D8000451F40E060E080E00E94131F40E060E0EB
:102D900080E00E94211F28E230E043E050E066E43A
:102DA00070E082E090E00E94D01E28E230E048E22D
:102DB00050E066E470E08CE090E00E94D01E28E2D3
:102DC00030E048E250E066E470E08CE390E00E947E
:102DD000D01E28E230E043E050E066E470E08CE68C
:102DE00090E00E94D01E28E230E048E250E066E425
:102DF00070E083E790E00E94D01E28E230E043E0DC
:102E000050E066E470E08EE990E00E94D01E4FEF43
:102E10006FEF8FEF0E94131F4FEF6FEF8FEF0E9446
:102E2000211F28E130E048E150E06EE470E084E1E9
:102E300090E00E94D01E28E130E048E150E06EE4CE
:102E400070E084E490E00E94D01E28E130E048E188
:102E500050E06EE470E08BE790E00E94D01E1C8290
:102E60001B8288EE93E0A0E0B0E08D839E83AF8369
:102E7000B88786E291E09A83898383E895E09E870C
:102E80008D871A8A1B8A1C8A68E273E0CE018B5AEE
:102E90009F4F0E949712BE016B5A7F4FCE01019641
:102EA0000E948A098C01CE018B5A9F4F0E949B0B76
:102EB000012B19F581E08093C503CE0101960E9494
:102EC00062098111FACF8E01055A1F4F680184E013
:102ED000C80ED11C7801CE0101960E94620A8B892E
:102EE000882361F10C151D0549F1CE0101960E9460
:102EF000A50AF80181938F01EECFE091AF03F09125
:102F0000B003099586E291E09A838983CE01019608
:102F10000E943809C15ADF4F0FB6F894DEBF0FBECA
:102F2000CDBFDF91CF911F910F91FF90EF90DF9078
:102F3000CF90BF90AF909F908F900895F70114822B
:102F400081E090E09093C9038093C80342EF65EB62
:102F500087E20E94331F4FEF6FEF8FEF0E94211F18
:102F60004FEF6FEF8FEF0E94131F20E530E048E72F
:102F700050E06AE070E084E190E00E94D01E4FEFE4
:102F80006FEF8FEF0E94211F4FEF6FEF8FEF0E94C7
:102F9000131F87E090E00E941B1C40E060E080E08F
:102FA0000E94211F40E060E080E00E94131F85E046
:102FB00090E00E941B1C40E060E080E00E94211F26
:102FC00040E060E080E00E94131F84E08093A2054F
:102FD0004EE150E063E270E0C7010E94451F84EBC0
:102FE000A82EB12C00E010E098E0E92EF12CCC24C2
:102FF000C394D12C33E7832E42E0942E0150110963
:1030000028F481E0E81AF10809E010E0F7FE08C0B2
:10301000E1E0CE1AD10859E0E52EF12C09E010E0EC
:1030200080E38C0D66968FAF669780E38E0D679672
:103030008FAF679780E3800F68968FAF6897699628
:103040008FAE69976A961FAE6A9742EF65EB87E28B
:103050000E94131F42EF65EB87E20E94211F24E1CB
:1030600030E04CE350E063E670E081E590E00E94E0
:10307000D01E40E060E080E00E94211F9092A205F7
:1030800043E650E061E570E0CE018B5A9F4F0E940D
:10309000451F68EE73E080E090E00E946D0D87E0D0
:1030A0000E94D80C019729F0F1E0AF1AB10809F09D
:1030B000A5CF0E94351626CF0F931F93CF93DF9392
:1030C000CDB7DEB7CA55D1090FB6F894DEBF0FBE33
:1030D000CDBF1C821B8288EE93E0A0E0B0E08D8320
:1030E0009E83AF83B88786E291E09A83898383E8E1
:1030F00095E09E878D871A8A1B8A1C8A8091C80357
:103100009091C9038230910501F18330910519F145
:10311000019709F0A1C00E94C70A67E472E0CE01DE
:103120008B5A9F4F0E949712BE016B5A7F4FCE0160
:1031300001960E948A098C01CE018B5A9F4F0E94F2
:103140009B0B012B11F41092C503E091AF03F0919A
:10315000B003099581C082E090E09093C903809309
:10316000C80361E085E00E94010D8091C603909143
:10317000C70381309105D9F54FEF6FEF8FEF0E94B4
:10318000131F40E060E080E00E94211F24E130E056
:1031900044E150E060E370E08AE090E00E94D01EDD
:1031A00040E060E080E00E94131F4FEF6FEF8FEF71
:1031B0000E94211F28E030E048E050E06AE370E020
:1031C00084E190E00E94D01E26E030E046E050E02E
:1031D0006AE370E08CE090E00E94D01E26E030E0D0
:1031E00046E050E062E370E084E190E02DC0029799
:1031F00069F54FEF6FEF8FEF0E94131F40E060E023
:1032000080E00E94211F24E130E044E150E06BE5C2
:1032100070E08AE090E00E94D01E26E030E046E0B8
:1032200050E064E670E083E190E00E94D01E40E050
:1032300060E080E00E94131F26E030E046E050E0AE
:1032400062E670E081E190E00E94D01E64EF71E0E0
:1032500080E090E00E946D0D86E291E09A83898380
:10326000CE0101960E943809C65ADF4F0FB6F89476
:10327000DEBF0FBECDBFDF91CF911F910F9108959B
:10328000EF92FF920F931F93CF93DF93EC014FEFD9
:103290006FEF8FEF0E94211F40E060E080E00E940E
:1032A000131F8EE8E82E85E0F82EF70182859385BE
:1032B00003E010E0B8010E946927C69FC001C79FC4
:1032C000900DD69F900D11242AE230E045E050E0A9
:1032D000BC0180E090E00E94D01EF70182859385BA
:1032E000B8010E946927C69FC001C79F900DD69F55
:1032F000900D11242AE230E045E050E0BC018BE95A
:1033000090E0DF91CF911F910F91FF90EF900C947F
:10331000D01ECF93DF938CE00E94D80CEC019093E9
:103320008604809385048091C8039091C903029715
:1033300099F58091830490918404C817D90761F1AD
:103340008BE00E94D80C2091C6033091C7038C17E4
:103350009D0761F012161306FCF4C9010E94EC15DA
:103360008091C6039091C703019710C0809181049A
:103370009091820401972817390774F4C9010E94BB
:10338000EC158091C6039091C70301969093C703F3
:103390008093C6030E944019809185049091860411
:1033A0009093840480938304DF91CF910895E1E6A4
:1033B000F4E020E030E0408151814817590759F48A
:1033C000220F331F220F331FF901EF59FB4F0280E9
:1033D000F381E02D09942F5F3F4F3496283031055B
:1033E00051F7089520915F04309160042830310531
:1033F00094F4F901EE0FFF1FEE0FFF1FEF59FB4F83
:1034000091838083738362832F5F3F4F3093600487
:1034100020935F04089562E673E086E994E00C94DB
:103420005B15209181043091820462177307D1F4F7
:103430006A307105A4F49B01220F331FF901E55B8B
:10344000FB4F91838083F901E155FC4F5183408309
:103450006F5F7F4F7093820460938104089569E8E1
:1034600073E002C06CE973E086E994E00C945B15AC
:10347000EF92FF920F931F93CF93DF9382E090E040
:103480009093C9038093C8038093A205E091C3037E
:10349000F091C40309950BE414E0C0E0D0E083E0B0
:1034A000E82EF12C8091810490918204C817D907ED
:1034B000E4F48091980590919905B7010E946927DD
:1034C000C69FA001C79F500DD69F500D1124465F87
:1034D0005F4F68E270E0F801819191918F010E9445
:1034E000451F2196C330D105E9F6DF91CF911F9199
:1034F0000F91FF90EF9008958091C8039091C903B8
:10350000009719F0029739F008950E94381A80E068
:1035100090E00C9440198091C6039091C703892BC9
:10352000B9F542EF65EB87E20E94131F40E060E0CF
:1035300080E00E94211F24E130E044E150E067E098
:1035400070E08AE090E00E94D01E2AE030E045E082
:1035500050E067E070E086E190E00E94D01E40E01D
:1035600060E080E00E94131F2AE030E045E050E078
:1035700061E170E08DE090E00E94D01E1092C903DE
:103580001092C80364EF71E080E090E00E946D0D3E
:10359000E091C603F091C703EE0FFF1FE155FC4F0A
:1035A0000190F081E02D0994CF92DF92EF92FF928B
:1035B0000F931F93CF93DF931092C1051092C00514
:1035C00061E08091B8050E94310D61E08091B705FE
:1035D0000E94310D8091B70590E0FC01E15CF84F4D
:1035E000E491F0E0EE0FFF1FEF5CF84F259134916E
:1035F0003093B4052093B305FC01EE5EF84FE491DF
:10360000E093BE058091B80590E0FC01E15CF84FC5
:10361000E491F0E0EE0FFF1FEF5CF84F259134913D
:103620003093B6052093B505FC01EE5EF84FE491AA
:10363000E093BF058091AC05882309F439C0CFB76A
:10364000F89480919504811127C0E0E5F7E084911A
:10365000E3E2F7E09491E82FF0E0EE0FFF1FEE5564
:10366000F94FA591B491EC91E92321F461E081E156
:103670000E94010D61E081E10E94310D8CB58061F5
:103680008CBD8CB580648CBD61E08FE00E94310DF3
:1036900061E080E10E94310D809195048F5F8093FD
:1036A0009504CFBF80E58093AD051092AE0549C06B
:1036B00061E08091BB050E94310D61E08091BA0507
:1036C0000E94310D8091BB0590E0FC01E15CF84F58
:1036D000E491F0E0EE0FFF1FEF5CF84FA591B4917D
:1036E000B093B205A093B105FC01EE5EF84F849152
:1036F0008093BD052091BA0530E0F901E15CF84FF7
:10370000E491F0E0EE0FFF1FEF5CF84F459154910C
:103710005093B0054093AF05F901EE5EF84FE49188
:10372000E093BC059C91E82FE095E923EC93E091B0
:10373000AF05F091B00590818091BC0580958923FB
:103740008083E091B305F091B40590818091BE052E
:103750008095892380838091B905882321F161E0D8
:103760000E94310D61E08091B9050E94010D64EF66
:1037700071E080E090E00E946D0D60E08091B905FD
:103780000E94010D64EF71E080E090E00E946D0DF9
:1037900061E08091B9050E94010D64EF71E080E065
:1037A00090E00E946D0DE0EBF6E01491C1EBD6E0E5
:1037B000112309F437C0FE0164918EE895E00E9460
:1037C000C70E6E01F2E0CF0ED11CFE013196C491FE
:1037D0000C2F0078CF777601DC2FD15050F0F70115
:1037E00064918EE895E00E94890EFFEFEF1AFF0AC0
:1037F000F4CFC6018C0F911DEC01002389F07C01F0
:103800009FEFE91AF90AFE01649170E06F3F7105BC
:1038100011F464EF71E080E090E00E946D0DE7012B
:103820001150C6CFDF91CF911F910F91FF90EF9074
:10383000DF90CF9008952F923F924F925F926F92B8
:103840007F928F929F92AF92BF92CF92DF92EF9230
:10385000FF920F931F93CF93DF9300D000D000D03F
:10386000CDB7DEB71C01892B09F4B0C18091AA0540
:10387000811162C08091A705882309F4A7C1E09156
:10388000A505F091A605FA83E98381E090E07C012B
:10389000E218F3084424552442185308440C551CDC
:1038A000E0918E05F0918F050480F581E02D29814E
:1038B0003A81A10147595F4F6EE170E08EE895E0D3
:1038C0000995E0918E05F0918F0549E650E0421987
:1038D00053090480F581E02D29813A816EE170E081
:1038E0008EE895E00995E0918E05F0918F050480B2
:1038F000F581E02D29813A8149E650E0B101625E0F
:103900007F4F8EE895E00995E0918E05F0918F0547
:103910006EE170E0621973090480F581E02D298160
:103920003A8149E650E08EE895E0099500E010E024
:1039300066246394712C46C16090A8057090A90517
:10394000E0918E05F0918F059101220F331F2F5FBB
:103950003F4F49E650E0421953090084F185E02DBC
:1039600083016EE170E08EE895E0099581E090E0DA
:103970004C018218930888279927821993095C01C2
:10398000AA0CBB1C3E822D82E12CF12CCC24C394CA
:10399000D12CAD81BE81EA16FB060CF06BCF97FCF3
:1039A0000BC04D815E81415051095E834D8352E0D1
:1039B000A50EB11C8A0C9B1C8FEFE81AF80A92E046
:1039C000C90ED11C8C0C9D1C4D805E80440C551C76
:1039D000AFEF4A1A5A0AE0918E05F0918F05B701B0
:1039E000625E7F4F0084F185E02D8301920149E6FC
:1039F00050E08D819E81481B590B5A8349838EE884
:103A000095E00995A9E6B0E0AE19BF09BC83AB8388
:103A1000E0918E05F0918F050084F185E02D9601EF
:103A2000AD016D817E81625E7F4F8EE895E00995E4
:103A3000E0918E05F0918F056EE170E06E197F09BF
:103A40000084F185E02D920149815A818EE895E04C
:103A50000995E0918E05F0918F050084F185E02DA8
:103A600096014B815C816EE170E08D819E81681BC7
:103A7000790B8EE895E009958CCFF7FC08C0F1E052
:103A80002F1A310842E0440E511CE40CF51C0F5F64
:103A90001F4F52E0650E711CE60CF71C48018EE1C9
:103AA000880E911CE0918E05F0918F050480F581C0
:103AB000E02D29813A81610199E6C90ED11CA60148
:103AC000B4018EE895E009958EE1A82EB12CA01ADC
:103AD000B10AE0918E05F0918F050480F581E02D0B
:103AE00029813A81A601B5018EE895E00995E0911A
:103AF0008E05F0918F050480F581E02D29813A81B2
:103B000099E6C92ED12CC218D308A601B4018EE8BB
:103B100095E00995E0918E05F0918F050480F5817F
:103B2000E02D29813A81A601B5018EE895E009953D
:103B30006801A9E6CA0ED11CE0918E05F0918F05AF
:103B40000480F581E02D29813A81A6015101BEE171
:103B5000AB0EB11CB5018EE895E00995E0918E059C
:103B6000F0918F050480F581E02D29813A81A6012D
:103B70006EE1C62ED12CC218D308B6018EE895E0AE
:103B8000099579E6872E912C801A910AE0918E058D
:103B9000F0918F050480F581E02D29813A81A401FF
:103BA000B5018EE895E00995E0918E05F0918F05BD
:103BB0000480F581E02D29813A81A401B6018EE8C7
:103BC00095E00995021513050CF457CF26960FB60C
:103BD000F894DEBF0FBECDBFDF91CF911F910F9143
:103BE000FF90EF90DF90CF90BF90AF909F908F901D
:103BF0007F906F905F904F903F902F900895CF935C
:103C0000DF93EC0161E08DE00E94310D209711F40B
:103C100060E004C0CF3FD10531F461E08DE0DF9179
:103C2000CF910C94010DE0E9F6E0E4918E2F90E045
:103C3000FC013197EF30F10508F06CC0EB59FF4FF4
:103C40000C947D2784B5806884BDC7BD68C084B5E9
:103C5000806284BDC8BD63C080918000806880930D
:103C60008000D0938900C093880059C08091800063
:103C7000806280938000D0938B00C0938A004FC0F5
:103C800080918000886080938000D0938D00C093E5
:103C90008C0045C080919000806880939000D09304
:103CA0009900C09398003BC08091900080628093FF
:103CB0009000D0939B00C0939A0031C080919000F7
:103CC000886080939000D0939D00C0939C0027C093
:103CD0008091C00080688093C0008091C0008F7B7D
:103CE0008093C000C093CF001AC08091C000806252
:103CF0008093C000C093D00012C08091C200886041
:103D00008093C2008091C2008B7F8093C200C093D9
:103D1000D20005C0C038D1050CF07FCF79CFDF913C
:103D2000CF910895FC0180918804811103C08FEF29
:103D30009FEF08959FB7F89482E08093E900209167
:103D4000F20030E01216130614F421E030E02115E1
:103D5000310559F0289884E6809387048091F1001A
:103D600080838091F200882319F09FBFC9010895D4
:103D70008BE68093E800F9CF80918D0481110DC00E
:103D800082E08093890484E080938A0410928C04FA
:103D900010928B0481E080938D0489E894E008956B
:103DA0008F929F92AF92BF92CF92DF92EF92FF924B
:103DB0000F931F93CF93DF93EC016B015A014901DD
:103DC0008091AA05882391F0E0918E05F0918F05EE
:103DD000E090A805F090A9050684F785E02D8901FB
:103DE0009A01AB01BE018EE895E009958091A70587
:103DF000882361F0E090A505F090A6058401950167
:103E0000A601BE018EE895E00E949405DF91CF9156
:103E10001F910F91FF90EF90DF90CF90BF90AF90E8
:103E20009F908F900895242F462F682F8EE895E05D
:103E30000E94DA03EEE8F5E021E0248F938F828F71
:103E40000895242F462F682F8EE895E00E94DA030C
:103E5000EEE8F5E021E0218F908F878B918B808BAE
:103E6000938B828B0895242F462F682F8EE895E040
:103E70000E94DA03E0918E05F0918F050088F189A8
:103E8000E02DBC018EE895E009942091A70522233E
:103E9000D9F01092A4052091A5053091A605309384
:103EA0009F0520939E053093A1052093A005709354
:103EB0009B0560939A0550939D0540939C05BC011A
:103EC0008EE895E00C945B1508952F923F924F92E7
:103ED0005F926F927F928F929F92AF92BF92CF929A
:103EE000DF92EF92FF920F931F93CF93DF93CDB7A3
:103EF000DEB72B970FB6F894DEBF0FBECDBF9B8702
:103F00008A875B011901FD82EC823A01600E711E05
:103F1000872C7B82912C44244A94542C9B01240F9F
:103F2000351F3F832E839101200F311F398728874A
:103F3000EA85FB858085981608F036C1AA85BB8581
:103F400014965C924E92139715968D919C911697AC
:103F5000DC01ED91FC910190F081E02D6FEF09956E
:103F60006FEF8A859B850E94E708EA85FB8585813E
:103F70009681DC01ED91FC910190F081E02DAA8504
:103F8000BB856C910995EA85FB856081CF010E9414
:103F9000E708AA85BB8515968D919C911697DC0143
:103FA000ED91FC910190F081E02D682D09956B81D8
:103FB0008A859B850E94E708EA85FB858581968135
:103FC000DC01ED91FC910190F081E02D662D0995C9
:103FD000662D8A859B850E94E70875012E813F81A9
:103FE000E216F306B1F0EA85FB85858196818701AB
:103FF000DC01ED91FC910190F081E02DD7016D91F4
:104000007D010995F80160818A859B850E94E708FA
:10401000E5CF7101AA85BB8515968D919C91169768
:1040200028853985E216F30691F08701DC01ED91D0
:10403000FC910190F081E02DD7016D917D010995F2
:10404000F80160818A859B850E94E708E3CFDC0147
:10405000ED91FC91AA85BB8514966C910190F0813D
:10406000E02D0995EA85FB8585819681DC01ED913E
:10407000FC910190F081E02DAA85BB8513966C918F
:10408000099564E670E08A859B850E94B0088F3FA1
:10409000910509F07DC0EA85FB85548243826FEF6C
:1040A000CF010E94E70865E070E08A859B850E9449
:1040B000B008AA85BB856C91262F30E08217930744
:1040C00009F066C0CD010E94E7086AE070E08A85C9
:1040D0009B850E94B0087C0197FD5AC0682F8A8595
:1040E0009B850E94E7086AE070E08A859B850E94B4
:1040F000B0088C0197FD4CC0682F8A859B850E9473
:10410000E708EA821982E981FA810E0F1F1FE12C6C
:10411000F12C65E070E08A859B85E016F106A9F038
:10412000EC14FD0491F00E94B00897FD0AC0EC81E8
:10413000FD81EE0DFF1D8083682F8A859B850E947F
:10414000E708FFEFEF1AFF0AE4CF0E94B0087C01F6
:1041500097FD1EC065E070E08A859B850E94B008CF
:1041600097FD16C0FE2CEE248E0D9F1DAA85BB85E3
:1041700013962D913C9114972817390749F48C9187
:104180008F5F8C93C801C016D10680F4C6010EC0A3
:10419000939464E670E080E090E00E946D0D8A8563
:1041A0009B850E949408C4CE8FEF9FEF2B960FB68D
:1041B000F894DEBF0FBECDBFDF91CF911F910F915D
:1041C000FF90EF90DF90CF90BF90AF909F908F9037
:1041D0007F906F905F904F903F902F9008950F9336
:1041E0001F93CF93DF93EC010C811D810F5F1F4F55
:1041F000B8010E941B0B882369F0288139818C81CA
:104200009D8169EA73E0820F931F0E94A5291D8397
:104210000C8381E0DF91CF911F910F910895CF938F
:10422000DF9366E38EE895E00E94C70ECEE8D5E006
:1042300081E08D8B68EACE010E94890E80EA90E0D1
:104240009987888780E890E09B878A87DF91CF9164
:104250000895CF93DF93CDB7DEB7CE5BD1090FB60C
:10426000F894DEBF0FBECDBF789484B5826084BD64
:1042700084B5816084BD85B5826085BD85B581606A
:1042800085BD80916E00816080936E0010928100E8
:1042900080918100826080938100809181008160A3
:1042A0008093810080918000816080938000809164
:1042B0009100826080939100809191008160809351
:1042C0009100809190008160809390008091C10066
:1042D00084608093C1008091C10082608093C1009E
:1042E0008091C10081608093C1008091C300816092
:1042F0008093C3008091C00082608093C000809151
:10430000C20081608093C20080917A0084608093B3
:104310007A0080917A00826080937A0080917A009E
:10432000816080937A0080917A00806880937A001F
:10433000109288041092AE031092AD038091D700C2
:1043400081608093D70080EA8093D80089B580612E
:1043500089BD89B5826089BD09B400FEFDCF61E0E9
:1043600070E080E090E00E946D0D8091D8008F7C1D
:1043700080618093D8008091E000807F8093E0008E
:104380008091E1008E7E8093E1008DE08093E200D9
:10439000559A209AEEEFFFE7859194918B3F9C4DC3
:1043A00019F481E08093AC038FEF9FEF9093A30407
:1043B0008093A204E0918C05F0918D05A089B189CC
:1043C00082E08C93A485B5851C92A685B78587E08D
:1043D0008C93108EA489B58986E08C93A289B389C9
:1043E0008C9180618C93A289B3898C9188608C9325
:1043F000A289B3898C9180688C930288F389E02D1F
:1044000080818F7D808380918A058111D9C081E070
:1044100080938A0583E895E00E94940868EE73E033
:1044200080E090E00E946D0D809188059091890553
:10443000DC01ED91FC910480F581E02D09951816C1
:10444000190644F345E0F42EEE24E39452E3D52E0E
:10445000E8E1F1E0DE01AB59BF4F8F2D01900D92E5
:104460008A95E1F7E0928B0500E010E020E030E073
:1044700045E050E0BE016B597F4F83E895E00E9414
:10448000FE088091880590918905DC01ED91FC91F1
:104490000190F081E02D63E009956AEF70E080E023
:1044A00090E00E946D0D61EF75E08091880590911C
:1044B00089050E9470156AEF70E080E090E00E942C
:1044C0006D0D6FEE75E080918805909189050E94D1
:1044D000701564EF71E080E090E00E946D0D63EE76
:1044E00075E080918805909189050E94701564EFB0
:1044F00071E080E090E00E946D0D83E895E00E94FD
:104500009408EDE1F1E0DE0111968F2D01900D92FE
:104510008A95E1F7D0928B0504E010E09E012754C4
:104520003F4F45E050E0BE016F5F7F4F83E895E06D
:104530000E94FE088F3FBFEF9B0739F468EE73E0DF
:1045400080E090E00E946D0D83CFC754DF4F28813B
:10455000C95BD0402111FFCF049749F5C654DF4F06
:104560002881CA5BD04030E02053310984E6829F25
:10457000A001839F500D1124C554DF4F2881CB5BD0
:10458000D04030E0205331096AE0629FC001639F50
:10459000900D1124840F951FC454DF4F2881CC5BEC
:1045A000D04030E020533109820F931F02C084E6CF
:1045B00090E0909385058093840582E380938B053A
:1045C0000E94D41A0E940F2161E085E00E94310D03
:1045D00061E08DE00E94310D60E08CE00E94310DC1
:1045E00060E08BE00E94310D60E083E00E94310DBD
:1045F00060E087E00E94310D60E086E00E94310DAE
:1046000061E082E00E94310D61E082E00E94010DD4
:1046100061E083E00E94010D61E085E00E94010DF0
:104620000E94D41A0E940F218EE896E09093C40352
:104630008093C3034FEE57E060E070E084EB91E0BD
:104640000E94111A4EE257E061E070E08CEB91E0BD
:104650000E94111A44E757E062E070E084EC91E0B8
:104660000E94111AE091AF03F091B00309956FE831
:1046700076E183E090E00E94F2196CE578E182E057
:1046800090E00E94F21969E879E184E090E00E94EC
:10469000F2196CE77AE185E090E00E94F2190E943D
:1046A000330E6093340470933504809336049093F2
:1046B00037040E94330E609338047093390480935A
:1046C0003A0490933B0428EE822E23E0922EA12CF4
:1046D000B12C06E211E033E8432E35E0532E3324AB
:1046E00033940E94330EC0903804D0903904E09087
:1046F0003A04F0903B04DC01CB018C199D09AE0912
:10470000BF090697A105B10548F184E090E00E9439
:10471000D71987E00E94D80C019721F482E090E03D
:104720000E94D71986E00E94D80C019721F483E0FB
:1047300090E00E94D71983E00E94D80C892B21F4C5
:1047400085E090E00E94D7190E94330E60933804F0
:104750007093390480933A0490933B040E94330E83
:10476000C0903404D0903504E0903604F0903704C3
:10477000DC01CB018C199D09AE09BF0981369A4E27
:10478000A105B10508F4DEC242EF65EB87E20E94A5
:10479000211F42EF65EB87E20E94131F27E030E004
:1047A00048E250E060E070E080E090E00E94D01EBF
:1047B00027E030E044E150E060E070E086E490E023
:1047C0000E94D01E27E030E048E250E060E070E058
:1047D00088E790E00E94D01E27E030E048E250E0F9
:1047E00069E770E080E090E00E94D01E27E030E0B2
:1047F00044E150E069E770E086E490E00E94D01E5A
:1048000027E030E048E250E069E770E088E790E0B8
:104810000E94D01E4DE466EE8FEF0E94211F4DE4F2
:1048200066EE8FEF0E94131F27E030E04EE150E06C
:1048300060E070E088E290E00E94D01E27E030E067
:104840004EE150E060E070E08AE590E00E94D01E0A
:1048500027E030E04EE150E069E770E08AE590E063
:104860000E94D01E27E030E04EE150E069E770E0A2
:1048700088E290E00E94D01EA9961FAE1EAEA997B6
:10488000AD968CAE9DAEAEAEBFAEAD97A7961FAF48
:104890000EAFA797E3965FAE4EAEE397E7961FAED7
:1048A000E797E8961FAEE897E9961FAEE9976DEC9B
:1048B00071E0CE0101960E949712BE016F5F7F4F9B
:1048C000CE018B599F4F0E948A097C01CE0101962F
:1048D0000E949B0BEF2809F09EC0CE018B599F4F81
:1048E0000E9462098111F9CFCE0101967C01CE01AF
:1048F0008B599F4F0E94620AE8968FADE8978823F4
:10490000A1F0CE018B599F4F0E94A50A682FD701B5
:104910008D937D01E0919604F09197040190F081D0
:10492000E02D86E994E00995E2CF6EEF71E0CE01CB
:1049300001960E94AC2960E072E080E090E00E9465
:10494000AC296C016EEF71E0CE0101960E94AC299A
:1049500060E072E080E090E00E94AC297C0162E0BF
:1049600072E0C6010E949C293C01892B11F58091BF
:10497000C50381111EC067E072E0CE0187549F4FCE
:104980000E949712BE0167547F4FCE018B599F4FF3
:104990000E948A097C01CE0187549F4F0E949B0B85
:1049A000EF28C9F53092C50383E090E00E94D71943
:1049B00032C061E472E0C6010E949C29892BF1F4A7
:1049C0008091C503882301F167E472E0CE0187542A
:1049D0009F4F0E949712BE0167547F4FCE018B59A3
:1049E0009F4F0E948A097C01CE0187549F4F0E94ED
:1049F0009B0BEF2881F41092C5030DC0672859F472
:104A00008091C503882339F064E872E0C7010E94F1
:104A10009C29892BC9F266E872E0CE0101960E94BA
:104A20009712BE016F5F7F4FCE018B599F4F0E943F
:104A30008A097C01CE0101960E949B0BEF28F1F4BC
:104A4000CE018B599F4F0E9462098111F9CF9AECD8
:104A5000E92E93E0F92ECE018B599F4F0E94620AF6
:104A6000E8968FADE897882349F0CE018B599F4F88
:104A70000E94A50AF70181937F01EDCFA7961FAF92
:104A80000EAFA797CE018B599F4F0E94380960E067
:104A900072E08AEC93E00E94AC2990932F048093FB
:104AA0002E0460E072E080E090E00E94AC299093D8
:104AB00031048093300460E072E080E090E00E9476
:104AC000AC2990933304809332048EE2E82E84E084
:104AD000F82E68EB72E0D7018D919D917D010E94C7
:104AE000AC296C016AEB72E00E949C29892B71F55C
:104AF00060E072E080E090E00E94AC2990930501B4
:104B00008093040140E060E080E00E94211F40E0CB
:104B100060E080E00E94131F24E130E040E550E0B7
:104B20006AE070E081E490E00E94D01E4FEF6FEFEA
:104B30008FEF0E94211F4AE050E061E470E0809115
:104B40000401909105010E94451F83C065EC72E04D
:104B5000C6010E949C29892BC9F560E072E080E0C3
:104B600090E00E94AC2990930301809302014FEFE3
:104B70006FEF8FEF0E94211F4FEF6FEF8FEF0E94BB
:104B8000131F24E130E040E550E064E670E08CE380
:104B900090E00E94D01E43E463E487EF0E94211F4F
:104BA00044E650E06CE370E08091020190910301D3
:104BB0000E94451F4FEF6FEF8FEF0E94211F29E1E9
:104BC00030E04EE150E06FE570E03FC060ED72E034
:104BD000C6010E949C29892BE1F560E072E080E02B
:104BE00090E00E94AC2990930101809300014FEF67
:104BF0006FEF8FEF0E94211F4FEF6FEF8FEF0E943B
:104C0000131F24E130E040E550E067E370E08CE3FF
:104C100090E00E94D01E42EF65EB87E20E94211FC8
:104C200047E350E06CE370E0809100019091010156
:104C30000E94451F4FEF6FEF8FEF0E94211F29E168
:104C400030E04EE150E062E370E082E890E00E94E4
:104C5000D01EB4E3EB16B4E0FB0609F03ACF0E9495
:104C6000330E60933404709335048093360490932C
:104C700037048091C8039091C90381309105E1F018
:104C800064F4892B09F05EC040E060E080E00E949F
:104C9000211F40E060E080E035C08230910549F19D
:104CA000039709F04FC04FEF6FEF8FEF0E94211F66
:104CB0004FEF6FEF8FEF26C042EF65EB87E20E9468
:104CC000211F42EF65EB87E20E94131F27E030E0CF
:104CD00048EC50E060E070E080E090E00E94D01E80
:104CE00042EF65EB87E20E94211F42EF65EB87E20E
:104CF0001DC00E94381A8091C6039091C7030E947C
:104D0000401920C00E94131F27E030E048EC50E01B
:104D100060E070E080E090E00E94D01E4FEF6FEF07
:104D20008FEF0E94211F4FEF6FEF8FEF0E94131F35
:104D300027E030E048EC50E069E770E080E090E088
:104D40000E94D01E6AE070E080E090E00E946D0D4D
:104D50000E94A00BC6CCCF92DF92EF92FF920F93EE
:104D60001F93CF93DF931F92CDB7DEB7182F062F77
:104D7000E42E862F880F8E5F99830E94161183E0A0
:104D80000E941611F12EC12E9981D92E8C2D8F19CA
:104D9000801798F4F601E7FE02C0849101C080817B
:104DA0000E941611182F80E00E9416118123FFEF38
:104DB000CF1ADF0A8111EACF01C081E00F90DF91A5
:104DC000CF911F910F91FF90EF90DF90CF900895BA
:104DD000E6EEF4E01382128248EE53E060E070E009
:104DE00044835583668377838DE391E09183808349
:104DF0008DEC90E0958784878CEC90E09787868790
:104E000088EC90E0918B808B89EC90E0938B828B87
:104E10008AEC90E0958B848B8EEC90E0978B868B60
:104E2000118E128E138E148EA6E9B4E013961C9286
:104E30001E92129714964D935D936D937C931797E2
:104E40008DE491E011969C938E932FEF3FEF1D968A
:104E50003C932E931C97A3E8B5E01C921696FC9306
:104E6000EE93159717961C92179718961C92189701
:104E70001A96FC93EE931997EEE8F5E013821282EE
:104E800040E850E05583448360EA70E077836683AE
:104E9000158A158614861786168681E0848B338BD7
:104EA000228B318B208B868B90E5978F10A29AE016
:104EB00091A799E092A798E093A7868F15A614A6CC
:104EC00085E791E09183808371876087538742876C
:104ED000089597FB072E16F4009407D077FD09D0AC
:104EE0000E94832707FC05D03EF4909581959F4F43
:104EF0000895709561957F4F0895EE0FFF1F0590FF
:104F0000F491E02D0994AA1BBB1B51E107C0AA1F15
:104F1000BB1FA617B70710F0A61BB70B881F991F5A
:104F20005A95A9F780959095BC01CD010895CF932E
:104F3000DF938230910510F482E090E0E091C605A5
:104F4000F091C70520E030E0C0E0D0E0309711F1EB
:104F50004081518148175907C0F04817590761F43B
:104F600082819381209719F09B838A832BC0909331
:104F7000C7058093C60526C02115310519F04217D3
:104F8000530718F49A01BE01DF01EF010280F3819B
:104F9000E02DDCCF2115310509F1281B390B243018
:104FA000310590F412968D919C91139761157105BE
:104FB00021F0FB019383828304C09093C705809303
:104FC000C605FD01329644C0FD01E20FF31F819337
:104FD0009193225031092D933C933AC02091C405FE
:104FE0003091C505232B41F4209114013091150116
:104FF0003093C5052093C40520911201309113010F
:105000002115310541F42DB73EB74091160150915D
:105010001701241B350BE091C405F091C505E2177B
:10502000F307A0F42E1B3F0B2817390778F0AC01CB
:105030004E5F5F4F2417350748F04E0F5F1F5093A8
:10504000C5054093C4058193919302C0E0E0F0E070
:10505000CF01DF91CF9108950F931F93CF93DF93EB
:10506000009709F48CC0FC013297138212820091E0
:10507000C6051091C7050115110581F42081318104
:10508000820F931F2091C4053091C5052817390759
:1050900079F5F093C505E093C40571C0D80140E0EF
:1050A00050E0AE17BF0750F412962D913C91139724
:1050B000AD012115310509F1D901F3CF9D01DA01C7
:1050C0003383228360817181860F971F8217930734
:1050D00069F4EC0128813981260F371F2E5F3F4F7D
:1050E000318320838A819B8193838283452B29F49A
:1050F000F093C705E093C60542C01396FC93EE9368
:105100001297ED01499159919E01240F351FE21725
:10511000F30771F480819181840F951F0296119697
:105120009C938E938281938113969C938E93129776
:10513000E0E0F0E0D80112968D919C9113970097D2
:1051400019F0F8018C01F6CF8D919C9198012E5F9A
:105150003F4F820F931F2091C4053091C50528173A
:10516000390769F4309729F41092C7051092C605E3
:1051700002C0138212821093C5050093C405DF910B
:10518000CF911F910F910895A0E0B0E0EAECF8E212
:105190000C94DC29EC01009721F4CB010E949727A5
:1051A000B8C0FC01E60FF71F9C0122503109E2173D
:1051B000F30708F4ACC0D9010D911C9111970617A3
:1051C0001707B0F00530110508F49FC0C801049717
:1051D0008617970708F499C002501109061B170B90
:1051E000019311936D937C93CF010E942C288DC065
:1051F0005B01A01AB10A4C01800E911EA091C60558
:10520000B091C70540E050E0E12CF12C109709F473
:105210004AC0A815B905D1F56D907C90119763012E
:1052200082E0C80ED11CCA14DB0480F1A3014A1924
:105230005B096A0182E0C80ED11C1296BC901297DD
:105240001396AC91B5E0CB16D10440F0B282A383A3
:1052500051834083D9016D937C930AC00E5F1F4F29
:10526000C301800F911FF90191838083EB2DFA2FE9
:10527000E114F10431F0D7011396FC93EE931297E9
:1052800044C0F093C705E093C6053FC08D919C9143
:1052900011974817590708F4AC017D0112960D903B
:1052A000BC91A02DB3CF8091C4059091C505881500
:1052B0009905E1F446175707C8F4809112019091BF
:1052C0001301009741F48DB79EB74091160150919C
:1052D0001701841B950BE817F907C8F4F093C5056F
:1052E000E093C405F901718360830FC0CB010E9474
:1052F00097277C01009759F0A801BE010E949329CD
:10530000CE010E942C28C70104C0CE0102C080E05B
:1053100090E0CDB7DEB7EEE00C94F82981E090E0A4
:10532000F8940C940F2AFB01DC0102C001900D924D
:1053300041505040D8F70895FB01DC018D91019058
:1053400080190110D9F3990B0895FB01DC0101903C
:105350000D920020E1F7089542EC55E00E94B1293A
:105360000895FA01A191B081009719F41097E1F026
:10537000CD01DC01CD010D90002011F4C00113C05E
:10538000FB012191222319F02015D9F7F3CFFB015E
:105390002191201519F41E92119606C02223C1F7FF
:1053A0000D900020A1F7D001FA01A193B0830895D8
:1053B0002F923F924F925F926F927F928F929F9225
:1053C000AF92BF92CF92DF92EF92FF920F931F9313
:1053D000CF93DF93CDB7DEB7CA1BDB0B0FB6F894C4
:1053E000DEBF0FBECDBF09942A88398848885F8404
:1053F0006E847D848C849B84AA84B984C884DF8075
:10540000EE80FD800C811B81AA81B981CE0FD11D58
:105410000FB6F894DEBF0FBECDBFED010895F8942E
:02542000FFCFBC
:10542200DB02DB02DB02FFFFFFFF00E10000000006
:1054320000000000C8058000585858585858583184
:1054420030300000000013097811BD0AA50A920A43
:105452008D0600C1808100000000000000FC117870
:1054620011C511A311B711431200000000AA0BA726
:105472000DCB0BBA0C960CC00B00000000190B7878
:1054820011190B190B190B190B00000000190B78DD
:105492001100000000EB037811BC10E3054D10DF92
:1054A2000F94055B0F470C060FDA035553443A205D
:1054B200004555523A2000435A4B002F62696E2F25
:1054C200617368002D6300636F64650065787069BD
:1054D20072656400436F6E76657274004265657032
:1054E200696E6700426C696E6B696E670072756205
:1054F20079207E2F2E74656E7461636C652F7363E1
:1055020072697074732F6765745F74656E7461631A
:105512006C65735F7374617475732E7262003A0006
:105522000A00747275650072756279207E2F2E747E
:10553200656E7461636C652F736372697074732F27
:105542007075745F74656E7461636C65735F5F61BF
:105552006E656D6F6E6553686172696E672E7262F9
:105562000066616C73650072756279207E2F2E74FD
:10557200656E7461636C652F736372697074732FE7
:1055820064656C6574655F74656E7461636C657384
:105592005F5F616E656D6F6E6553686172696E679C
:1055A2002E726200320072756279207E2F2E74652F
:1055B2006E7461636C652F736372697074732F67A5
:1055C20065745F74656E7461636C65735F776F7227
:1055D2006B6572732E7262003D00766172436F7367
:1055E20074437A6B00766172436F7374457572000F
:1055F200766172436F7374557364006E2F6100722B
:10560200756279207E2F2E74656E7461636C652FCE
:10561200736372697074732F64656C6574655F740B
:10562200656E7461636C65735F5F73686172696EE6
:10563200672E72620047656E65726174696E6700FB
:10564200636F64652E2E2E0072756279207E2F2E76
:1056520074656E7461636C652F73637269707473C1
:105662002F7075745F74656E7461636C65735F73BC
:10567200686172696E672E7262004D6178696D753C
:105682006D206F66205F616E656D6F6E65486F6F2E
:105692006B7320696E206D656E7520697320004DF5
:1056A2006178696D756D206F66206974656D732010
:1056B200696E206D656E75206973200057726F6E7A
:0C56C2006720696E6465782100FE00001E
:00000001FF
